{
	"DeFi-EduOps/contracts/MicroLons.sol": {
		"MicroLoan": {
			"abi": [
				{
					"inputs": [],
					"stateMutability": "nonpayable",
					"type": "constructor"
				},
				{
					"anonymous": false,
					"inputs": [
						{
							"indexed": true,
							"internalType": "uint256",
							"name": "id",
							"type": "uint256"
						},
						{
							"indexed": true,
							"internalType": "address",
							"name": "borrower",
							"type": "address"
						},
						{
							"indexed": false,
							"internalType": "uint256",
							"name": "principal",
							"type": "uint256"
						},
						{
							"indexed": false,
							"internalType": "uint256",
							"name": "interest",
							"type": "uint256"
						},
						{
							"indexed": false,
							"internalType": "uint256",
							"name": "dueDate",
							"type": "uint256"
						}
					],
					"name": "LoanCreated",
					"type": "event"
				},
				{
					"anonymous": false,
					"inputs": [
						{
							"indexed": true,
							"internalType": "uint256",
							"name": "id",
							"type": "uint256"
						},
						{
							"indexed": true,
							"internalType": "address",
							"name": "borrower",
							"type": "address"
						},
						{
							"indexed": false,
							"internalType": "uint256",
							"name": "amount",
							"type": "uint256"
						}
					],
					"name": "LoanRepaid",
					"type": "event"
				},
				{
					"inputs": [],
					"name": "admin",
					"outputs": [
						{
							"internalType": "address",
							"name": "",
							"type": "address"
						}
					],
					"stateMutability": "view",
					"type": "function"
				},
				{
					"inputs": [
						{
							"internalType": "uint256",
							"name": "_amount",
							"type": "uint256"
						}
					],
					"name": "adminWithdraw",
					"outputs": [],
					"stateMutability": "nonpayable",
					"type": "function"
				},
				{
					"inputs": [
						{
							"internalType": "address",
							"name": "",
							"type": "address"
						},
						{
							"internalType": "uint256",
							"name": "",
							"type": "uint256"
						}
					],
					"name": "borrowerLoans",
					"outputs": [
						{
							"internalType": "uint256",
							"name": "",
							"type": "uint256"
						}
					],
					"stateMutability": "view",
					"type": "function"
				},
				{
					"inputs": [
						{
							"internalType": "address payable",
							"name": "_borrower",
							"type": "address"
						},
						{
							"internalType": "uint256",
							"name": "_principal",
							"type": "uint256"
						},
						{
							"internalType": "uint256",
							"name": "_interest",
							"type": "uint256"
						},
						{
							"internalType": "uint256",
							"name": "_durationDays",
							"type": "uint256"
						}
					],
					"name": "createLoan",
					"outputs": [],
					"stateMutability": "nonpayable",
					"type": "function"
				},
				{
					"inputs": [],
					"name": "loanCounter",
					"outputs": [
						{
							"internalType": "uint256",
							"name": "",
							"type": "uint256"
						}
					],
					"stateMutability": "view",
					"type": "function"
				},
				{
					"inputs": [
						{
							"internalType": "uint256",
							"name": "",
							"type": "uint256"
						}
					],
					"name": "loans",
					"outputs": [
						{
							"internalType": "uint256",
							"name": "id",
							"type": "uint256"
						},
						{
							"internalType": "address",
							"name": "borrower",
							"type": "address"
						},
						{
							"internalType": "uint256",
							"name": "principal",
							"type": "uint256"
						},
						{
							"internalType": "uint256",
							"name": "interest",
							"type": "uint256"
						},
						{
							"internalType": "uint256",
							"name": "dueDate",
							"type": "uint256"
						},
						{
							"internalType": "bool",
							"name": "repaid",
							"type": "bool"
						}
					],
					"stateMutability": "view",
					"type": "function"
				},
				{
					"inputs": [
						{
							"internalType": "uint256",
							"name": "_loanId",
							"type": "uint256"
						}
					],
					"name": "repayLoan",
					"outputs": [],
					"stateMutability": "payable",
					"type": "function"
				},
				{
					"stateMutability": "payable",
					"type": "receive"
				}
			],
			"devdoc": {
				"kind": "dev",
				"methods": {},
				"title": "Simple MicroLoan Contract (testnet prototype)",
				"version": 1
			},
			"evm": {
				"assembly": "    /* \"DeFi-EduOps/contracts/MicroLons.sol\":248:2667  contract MicroLoan {... */\n  mstore(0x40, 0x80)\n    /* \"DeFi-EduOps/contracts/MicroLons.sol\":941:1015  constructor() {... */\n  callvalue\n  dup1\n  iszero\n  tag_1\n  jumpi\n  revert(0x00, 0x00)\ntag_1:\n  pop\n    /* \"DeFi-EduOps/contracts/MicroLons.sol\":973:983  msg.sender */\n  caller\n    /* \"DeFi-EduOps/contracts/MicroLons.sol\":965:970  admin */\n  0x00\n  0x00\n    /* \"DeFi-EduOps/contracts/MicroLons.sol\":965:983  admin = msg.sender */\n  0x0100\n  exp\n  dup2\n  sload\n  dup2\n  0xffffffffffffffffffffffffffffffffffffffff\n  mul\n  not\n  and\n  swap1\n  dup4\n  0xffffffffffffffffffffffffffffffffffffffff\n  and\n  mul\n  or\n  swap1\n  sstore\n  pop\n    /* \"DeFi-EduOps/contracts/MicroLons.sol\":1007:1008  0 */\n  0x00\n    /* \"DeFi-EduOps/contracts/MicroLons.sol\":993:1004  loanCounter */\n  0x01\n    /* \"DeFi-EduOps/contracts/MicroLons.sol\":993:1008  loanCounter = 0 */\n  dup2\n  swap1\n  sstore\n  pop\n    /* \"DeFi-EduOps/contracts/MicroLons.sol\":248:2667  contract MicroLoan {... */\n  dataSize(sub_0)\n  dup1\n  dataOffset(sub_0)\n  0x00\n  codecopy\n  0x00\n  return\nstop\n\nsub_0: assembly {\n        /* \"DeFi-EduOps/contracts/MicroLons.sol\":248:2667  contract MicroLoan {... */\n      mstore(0x40, 0x80)\n      jumpi(tag_1, lt(calldatasize, 0x04))\n      shr(0xe0, calldataload(0x00))\n      dup1\n      0xab7b1c89\n      gt\n      tag_10\n      jumpi\n      dup1\n      0xab7b1c89\n      eq\n      tag_6\n      jumpi\n      dup1\n      0xe1ec3c68\n      eq\n      tag_7\n      jumpi\n      dup1\n      0xe3ed1902\n      eq\n      tag_8\n      jumpi\n      dup1\n      0xf851a440\n      eq\n      tag_9\n      jumpi\n      jump(tag_2)\n    tag_10:\n      dup1\n      0x34d9289e\n      eq\n      tag_3\n      jumpi\n      dup1\n      0x7c5b4a37\n      eq\n      tag_4\n      jumpi\n      dup1\n      0x9e8101c6\n      eq\n      tag_5\n      jumpi\n      jump(tag_2)\n    tag_1:\n      jumpi(tag_2, calldatasize)\n      stop\n    tag_2:\n      revert(0x00, 0x00)\n        /* \"DeFi-EduOps/contracts/MicroLons.sol\":299:322  uint public loanCounter */\n    tag_3:\n      callvalue\n      dup1\n      iszero\n      tag_13\n      jumpi\n      revert(0x00, 0x00)\n    tag_13:\n      pop\n      tag_14\n      tag_15\n      jump\t// in\n    tag_14:\n      mload(0x40)\n      tag_16\n      swap2\n      swap1\n      tag_17\n      jump\t// in\n    tag_16:\n      mload(0x40)\n      dup1\n      swap2\n      sub\n      swap1\n      return\n        /* \"DeFi-EduOps/contracts/MicroLons.sol\":2426:2665  function adminWithdraw(uint _amount) public onlyAdmin {... */\n    tag_4:\n      callvalue\n      dup1\n      iszero\n      tag_18\n      jumpi\n      revert(0x00, 0x00)\n    tag_18:\n      pop\n      tag_19\n      0x04\n      dup1\n      calldatasize\n      sub\n      dup2\n      add\n      swap1\n      tag_20\n      swap2\n      swap1\n      tag_21\n      jump\t// in\n    tag_20:\n      tag_22\n      jump\t// in\n    tag_19:\n      stop\n        /* \"DeFi-EduOps/contracts/MicroLons.sol\":1214:1867  function createLoan(address payable _borrower, uint _principal, uint _interest, uint _durationDays) public onlyAdmin {... */\n    tag_5:\n      callvalue\n      dup1\n      iszero\n      tag_23\n      jumpi\n      revert(0x00, 0x00)\n    tag_23:\n      pop\n      tag_24\n      0x04\n      dup1\n      calldatasize\n      sub\n      dup2\n      add\n      swap1\n      tag_25\n      swap2\n      swap1\n      tag_26\n      jump\t// in\n    tag_25:\n      tag_27\n      jump\t// in\n    tag_24:\n      stop\n        /* \"DeFi-EduOps/contracts/MicroLons.sol\":1937:2354  function repayLoan(uint _loanId) public payable {... */\n    tag_6:\n      tag_28\n      0x04\n      dup1\n      calldatasize\n      sub\n      dup2\n      add\n      swap1\n      tag_29\n      swap2\n      swap1\n      tag_21\n      jump\t// in\n    tag_29:\n      tag_30\n      jump\t// in\n    tag_28:\n      stop\n        /* \"DeFi-EduOps/contracts/MicroLons.sol\":560:594  mapping(uint => Loan) public loans */\n    tag_7:\n      callvalue\n      dup1\n      iszero\n      tag_31\n      jumpi\n      revert(0x00, 0x00)\n    tag_31:\n      pop\n      tag_32\n      0x04\n      dup1\n      calldatasize\n      sub\n      dup2\n      add\n      swap1\n      tag_33\n      swap2\n      swap1\n      tag_21\n      jump\t// in\n    tag_33:\n      tag_34\n      jump\t// in\n    tag_32:\n      mload(0x40)\n      tag_35\n      swap7\n      swap6\n      swap5\n      swap4\n      swap3\n      swap2\n      swap1\n      tag_36\n      jump\t// in\n    tag_35:\n      mload(0x40)\n      dup1\n      swap2\n      sub\n      swap1\n      return\n        /* \"DeFi-EduOps/contracts/MicroLons.sol\":600:647  mapping(address => uint[]) public borrowerLoans */\n    tag_8:\n      callvalue\n      dup1\n      iszero\n      tag_37\n      jumpi\n      revert(0x00, 0x00)\n    tag_37:\n      pop\n      tag_38\n      0x04\n      dup1\n      calldatasize\n      sub\n      dup2\n      add\n      swap1\n      tag_39\n      swap2\n      swap1\n      tag_40\n      jump\t// in\n    tag_39:\n      tag_41\n      jump\t// in\n    tag_38:\n      mload(0x40)\n      tag_42\n      swap2\n      swap1\n      tag_17\n      jump\t// in\n    tag_42:\n      mload(0x40)\n      dup1\n      swap2\n      sub\n      swap1\n      return\n        /* \"DeFi-EduOps/contracts/MicroLons.sol\":273:293  address public admin */\n    tag_9:\n      callvalue\n      dup1\n      iszero\n      tag_43\n      jumpi\n      revert(0x00, 0x00)\n    tag_43:\n      pop\n      tag_44\n      tag_45\n      jump\t// in\n    tag_44:\n      mload(0x40)\n      tag_46\n      swap2\n      swap1\n      tag_47\n      jump\t// in\n    tag_46:\n      mload(0x40)\n      dup1\n      swap2\n      sub\n      swap1\n      return\n        /* \"DeFi-EduOps/contracts/MicroLons.sol\":299:322  uint public loanCounter */\n    tag_15:\n      sload(0x01)\n      dup2\n      jump\t// out\n        /* \"DeFi-EduOps/contracts/MicroLons.sol\":2426:2665  function adminWithdraw(uint _amount) public onlyAdmin {... */\n    tag_22:\n        /* \"DeFi-EduOps/contracts/MicroLons.sol\":897:902  admin */\n      0x00\n      0x00\n      swap1\n      sload\n      swap1\n      0x0100\n      exp\n      swap1\n      div\n      0xffffffffffffffffffffffffffffffffffffffff\n      and\n        /* \"DeFi-EduOps/contracts/MicroLons.sol\":883:902  msg.sender == admin */\n      0xffffffffffffffffffffffffffffffffffffffff\n      and\n        /* \"DeFi-EduOps/contracts/MicroLons.sol\":883:893  msg.sender */\n      caller\n        /* \"DeFi-EduOps/contracts/MicroLons.sol\":883:902  msg.sender == admin */\n      0xffffffffffffffffffffffffffffffffffffffff\n      and\n      eq\n        /* \"DeFi-EduOps/contracts/MicroLons.sol\":875:917  require(msg.sender == admin, \"Only admin\") */\n      tag_49\n      jumpi\n      mload(0x40)\n      0x08c379a000000000000000000000000000000000000000000000000000000000\n      dup2\n      mstore\n      0x04\n      add\n      tag_50\n      swap1\n      tag_51\n      jump\t// in\n    tag_50:\n      mload(0x40)\n      dup1\n      swap2\n      sub\n      swap1\n      revert\n    tag_49:\n        /* \"DeFi-EduOps/contracts/MicroLons.sol\":2523:2530  _amount */\n      dup1\n        /* \"DeFi-EduOps/contracts/MicroLons.sol\":2498:2519  address(this).balance */\n      selfbalance\n        /* \"DeFi-EduOps/contracts/MicroLons.sol\":2498:2530  address(this).balance >= _amount */\n      lt\n      iszero\n        /* \"DeFi-EduOps/contracts/MicroLons.sol\":2490:2555  require(address(this).balance >= _amount, \"Insufficient balance\") */\n      tag_53\n      jumpi\n      mload(0x40)\n      0x08c379a000000000000000000000000000000000000000000000000000000000\n      dup2\n      mstore\n      0x04\n      add\n      tag_54\n      swap1\n      tag_55\n      jump\t// in\n    tag_54:\n      mload(0x40)\n      dup1\n      swap2\n      sub\n      swap1\n      revert\n    tag_53:\n        /* \"DeFi-EduOps/contracts/MicroLons.sol\":2566:2573  bool ok */\n      0x00\n        /* \"DeFi-EduOps/contracts/MicroLons.sol\":2587:2592  admin */\n      0x00\n      0x00\n      swap1\n      sload\n      swap1\n      0x0100\n      exp\n      swap1\n      div\n      0xffffffffffffffffffffffffffffffffffffffff\n      and\n        /* \"DeFi-EduOps/contracts/MicroLons.sol\":2579:2598  payable(admin).call */\n      0xffffffffffffffffffffffffffffffffffffffff\n      and\n        /* \"DeFi-EduOps/contracts/MicroLons.sol\":2606:2613  _amount */\n      dup3\n        /* \"DeFi-EduOps/contracts/MicroLons.sol\":2579:2618  payable(admin).call{value: _amount}(\"\") */\n      mload(0x40)\n      tag_56\n      swap1\n      tag_57\n      jump\t// in\n    tag_56:\n      0x00\n      mload(0x40)\n      dup1\n      dup4\n      sub\n      dup2\n      dup6\n      dup8\n      gas\n      call\n      swap3\n      pop\n      pop\n      pop\n      returndatasize\n      dup1\n      0x00\n      dup2\n      eq\n      tag_60\n      jumpi\n      mload(0x40)\n      swap2\n      pop\n      and(add(returndatasize, 0x3f), not(0x1f))\n      dup3\n      add\n      0x40\n      mstore\n      returndatasize\n      dup3\n      mstore\n      returndatasize\n      0x00\n      0x20\n      dup5\n      add\n      returndatacopy\n      jump(tag_59)\n    tag_60:\n      0x60\n      swap2\n      pop\n    tag_59:\n      pop\n        /* \"DeFi-EduOps/contracts/MicroLons.sol\":2565:2618  (bool ok, ) = payable(admin).call{value: _amount}(\"\") */\n      pop\n      swap1\n      pop\n        /* \"DeFi-EduOps/contracts/MicroLons.sol\":2636:2638  ok */\n      dup1\n        /* \"DeFi-EduOps/contracts/MicroLons.sol\":2628:2658  require(ok, \"Withdraw failed\") */\n      tag_61\n      jumpi\n      mload(0x40)\n      0x08c379a000000000000000000000000000000000000000000000000000000000\n      dup2\n      mstore\n      0x04\n      add\n      tag_62\n      swap1\n      tag_63\n      jump\t// in\n    tag_62:\n      mload(0x40)\n      dup1\n      swap2\n      sub\n      swap1\n      revert\n    tag_61:\n        /* \"DeFi-EduOps/contracts/MicroLons.sol\":2480:2665  {... */\n      pop\n        /* \"DeFi-EduOps/contracts/MicroLons.sol\":2426:2665  function adminWithdraw(uint _amount) public onlyAdmin {... */\n      pop\n      jump\t// out\n        /* \"DeFi-EduOps/contracts/MicroLons.sol\":1214:1867  function createLoan(address payable _borrower, uint _principal, uint _interest, uint _durationDays) public onlyAdmin {... */\n    tag_27:\n        /* \"DeFi-EduOps/contracts/MicroLons.sol\":897:902  admin */\n      0x00\n      0x00\n      swap1\n      sload\n      swap1\n      0x0100\n      exp\n      swap1\n      div\n      0xffffffffffffffffffffffffffffffffffffffff\n      and\n        /* \"DeFi-EduOps/contracts/MicroLons.sol\":883:902  msg.sender == admin */\n      0xffffffffffffffffffffffffffffffffffffffff\n      and\n        /* \"DeFi-EduOps/contracts/MicroLons.sol\":883:893  msg.sender */\n      caller\n        /* \"DeFi-EduOps/contracts/MicroLons.sol\":883:902  msg.sender == admin */\n      0xffffffffffffffffffffffffffffffffffffffff\n      and\n      eq\n        /* \"DeFi-EduOps/contracts/MicroLons.sol\":875:917  require(msg.sender == admin, \"Only admin\") */\n      tag_65\n      jumpi\n      mload(0x40)\n      0x08c379a000000000000000000000000000000000000000000000000000000000\n      dup2\n      mstore\n      0x04\n      add\n      tag_66\n      swap1\n      tag_51\n      jump\t// in\n    tag_66:\n      mload(0x40)\n      dup1\n      swap2\n      sub\n      swap1\n      revert\n    tag_65:\n        /* \"DeFi-EduOps/contracts/MicroLons.sol\":1374:1384  _principal */\n      dup3\n        /* \"DeFi-EduOps/contracts/MicroLons.sol\":1349:1370  address(this).balance */\n      selfbalance\n        /* \"DeFi-EduOps/contracts/MicroLons.sol\":1349:1384  address(this).balance >= _principal */\n      lt\n      iszero\n        /* \"DeFi-EduOps/contracts/MicroLons.sol\":1341:1414  require(address(this).balance >= _principal, \"Insufficient pool balance\") */\n      tag_68\n      jumpi\n      mload(0x40)\n      0x08c379a000000000000000000000000000000000000000000000000000000000\n      dup2\n      mstore\n      0x04\n      add\n      tag_69\n      swap1\n      tag_70\n      jump\t// in\n    tag_69:\n      mload(0x40)\n      dup1\n      swap2\n      sub\n      swap1\n      revert\n    tag_68:\n        /* \"DeFi-EduOps/contracts/MicroLons.sol\":1439:1440  1 */\n      0x01\n        /* \"DeFi-EduOps/contracts/MicroLons.sol\":1424:1435  loanCounter */\n      dup1\n      0x00\n        /* \"DeFi-EduOps/contracts/MicroLons.sol\":1424:1440  loanCounter += 1 */\n      dup3\n      dup3\n      sload\n      tag_71\n      swap2\n      swap1\n      tag_72\n      jump\t// in\n    tag_71:\n      swap3\n      pop\n      pop\n      dup2\n      swap1\n      sstore\n      pop\n        /* \"DeFi-EduOps/contracts/MicroLons.sol\":1450:1458  uint due */\n      0x00\n        /* \"DeFi-EduOps/contracts/MicroLons.sol\":1496:1502  1 days */\n      0x015180\n        /* \"DeFi-EduOps/contracts/MicroLons.sol\":1480:1493  _durationDays */\n      dup3\n        /* \"DeFi-EduOps/contracts/MicroLons.sol\":1480:1502  _durationDays * 1 days */\n      tag_73\n      swap2\n      swap1\n      tag_74\n      jump\t// in\n    tag_73:\n        /* \"DeFi-EduOps/contracts/MicroLons.sol\":1461:1476  block.timestamp */\n      timestamp\n        /* \"DeFi-EduOps/contracts/MicroLons.sol\":1461:1503  block.timestamp + (_durationDays * 1 days) */\n      tag_75\n      swap2\n      swap1\n      tag_72\n      jump\t// in\n    tag_75:\n        /* \"DeFi-EduOps/contracts/MicroLons.sol\":1450:1503  uint due = block.timestamp + (_durationDays * 1 days) */\n      swap1\n      pop\n        /* \"DeFi-EduOps/contracts/MicroLons.sol\":1534:1597  Loan(loanCounter, _borrower, _principal, _interest, due, false) */\n      mload(0x40)\n      dup1\n      0xc0\n      add\n      0x40\n      mstore\n      dup1\n        /* \"DeFi-EduOps/contracts/MicroLons.sol\":1539:1550  loanCounter */\n      sload(0x01)\n        /* \"DeFi-EduOps/contracts/MicroLons.sol\":1534:1597  Loan(loanCounter, _borrower, _principal, _interest, due, false) */\n      dup2\n      mstore\n      0x20\n      add\n        /* \"DeFi-EduOps/contracts/MicroLons.sol\":1552:1561  _borrower */\n      dup7\n        /* \"DeFi-EduOps/contracts/MicroLons.sol\":1534:1597  Loan(loanCounter, _borrower, _principal, _interest, due, false) */\n      0xffffffffffffffffffffffffffffffffffffffff\n      and\n      dup2\n      mstore\n      0x20\n      add\n        /* \"DeFi-EduOps/contracts/MicroLons.sol\":1563:1573  _principal */\n      dup6\n        /* \"DeFi-EduOps/contracts/MicroLons.sol\":1534:1597  Loan(loanCounter, _borrower, _principal, _interest, due, false) */\n      dup2\n      mstore\n      0x20\n      add\n        /* \"DeFi-EduOps/contracts/MicroLons.sol\":1575:1584  _interest */\n      dup5\n        /* \"DeFi-EduOps/contracts/MicroLons.sol\":1534:1597  Loan(loanCounter, _borrower, _principal, _interest, due, false) */\n      dup2\n      mstore\n      0x20\n      add\n        /* \"DeFi-EduOps/contracts/MicroLons.sol\":1586:1589  due */\n      dup3\n        /* \"DeFi-EduOps/contracts/MicroLons.sol\":1534:1597  Loan(loanCounter, _borrower, _principal, _interest, due, false) */\n      dup2\n      mstore\n      0x20\n      add\n        /* \"DeFi-EduOps/contracts/MicroLons.sol\":1591:1596  false */\n      0x00\n        /* \"DeFi-EduOps/contracts/MicroLons.sol\":1534:1597  Loan(loanCounter, _borrower, _principal, _interest, due, false) */\n      iszero\n      iszero\n      dup2\n      mstore\n      pop\n        /* \"DeFi-EduOps/contracts/MicroLons.sol\":1513:1518  loans */\n      0x02\n        /* \"DeFi-EduOps/contracts/MicroLons.sol\":1513:1531  loans[loanCounter] */\n      0x00\n        /* \"DeFi-EduOps/contracts/MicroLons.sol\":1519:1530  loanCounter */\n      sload(0x01)\n        /* \"DeFi-EduOps/contracts/MicroLons.sol\":1513:1531  loans[loanCounter] */\n      dup2\n      mstore\n      0x20\n      add\n      swap1\n      dup2\n      mstore\n      0x20\n      add\n      0x00\n      keccak256\n        /* \"DeFi-EduOps/contracts/MicroLons.sol\":1513:1597  loans[loanCounter] = Loan(loanCounter, _borrower, _principal, _interest, due, false) */\n      0x00\n      dup3\n      add\n      mload\n      dup2\n      0x00\n      add\n      sstore\n      0x20\n      dup3\n      add\n      mload\n      dup2\n      0x01\n      add\n      exp(0x0100, 0x00)\n      dup2\n      sload\n      dup2\n      0xffffffffffffffffffffffffffffffffffffffff\n      mul\n      not\n      and\n      swap1\n      dup4\n      0xffffffffffffffffffffffffffffffffffffffff\n      and\n      mul\n      or\n      swap1\n      sstore\n      pop\n      0x40\n      dup3\n      add\n      mload\n      dup2\n      0x02\n      add\n      sstore\n      0x60\n      dup3\n      add\n      mload\n      dup2\n      0x03\n      add\n      sstore\n      0x80\n      dup3\n      add\n      mload\n      dup2\n      0x04\n      add\n      sstore\n      0xa0\n      dup3\n      add\n      mload\n      dup2\n      0x05\n      add\n      exp(0x0100, 0x00)\n      dup2\n      sload\n      dup2\n      0xff\n      mul\n      not\n      and\n      swap1\n      dup4\n      iszero\n      iszero\n      mul\n      or\n      swap1\n      sstore\n      pop\n      swap1\n      pop\n      pop\n        /* \"DeFi-EduOps/contracts/MicroLons.sol\":1607:1620  borrowerLoans */\n      0x03\n        /* \"DeFi-EduOps/contracts/MicroLons.sol\":1607:1631  borrowerLoans[_borrower] */\n      0x00\n        /* \"DeFi-EduOps/contracts/MicroLons.sol\":1621:1630  _borrower */\n      dup7\n        /* \"DeFi-EduOps/contracts/MicroLons.sol\":1607:1631  borrowerLoans[_borrower] */\n      0xffffffffffffffffffffffffffffffffffffffff\n      and\n      0xffffffffffffffffffffffffffffffffffffffff\n      and\n      dup2\n      mstore\n      0x20\n      add\n      swap1\n      dup2\n      mstore\n      0x20\n      add\n      0x00\n      keccak256\n        /* \"DeFi-EduOps/contracts/MicroLons.sol\":1637:1648  loanCounter */\n      sload(0x01)\n        /* \"DeFi-EduOps/contracts/MicroLons.sol\":1607:1649  borrowerLoans[_borrower].push(loanCounter) */\n      swap1\n      dup1\n      0x01\n      dup2\n      sload\n      add\n      dup1\n      dup3\n      sstore\n      dup1\n      swap2\n      pop\n      pop\n      0x01\n      swap1\n      sub\n      swap1\n      0x00\n      mstore\n      keccak256(0x00, 0x20)\n      add\n      0x00\n      swap1\n      swap2\n      swap1\n      swap2\n      swap1\n      swap2\n      pop\n      sstore\n        /* \"DeFi-EduOps/contracts/MicroLons.sol\":1691:1698  bool ok */\n      0x00\n        /* \"DeFi-EduOps/contracts/MicroLons.sol\":1704:1713  _borrower */\n      dup6\n        /* \"DeFi-EduOps/contracts/MicroLons.sol\":1704:1718  _borrower.call */\n      0xffffffffffffffffffffffffffffffffffffffff\n      and\n        /* \"DeFi-EduOps/contracts/MicroLons.sol\":1726:1736  _principal */\n      dup6\n        /* \"DeFi-EduOps/contracts/MicroLons.sol\":1704:1741  _borrower.call{value: _principal}(\"\") */\n      mload(0x40)\n      tag_77\n      swap1\n      tag_57\n      jump\t// in\n    tag_77:\n      0x00\n      mload(0x40)\n      dup1\n      dup4\n      sub\n      dup2\n      dup6\n      dup8\n      gas\n      call\n      swap3\n      pop\n      pop\n      pop\n      returndatasize\n      dup1\n      0x00\n      dup2\n      eq\n      tag_80\n      jumpi\n      mload(0x40)\n      swap2\n      pop\n      and(add(returndatasize, 0x3f), not(0x1f))\n      dup3\n      add\n      0x40\n      mstore\n      returndatasize\n      dup3\n      mstore\n      returndatasize\n      0x00\n      0x20\n      dup5\n      add\n      returndatacopy\n      jump(tag_79)\n    tag_80:\n      0x60\n      swap2\n      pop\n    tag_79:\n      pop\n        /* \"DeFi-EduOps/contracts/MicroLons.sol\":1690:1741  (bool ok, ) = _borrower.call{value: _principal}(\"\") */\n      pop\n      swap1\n      pop\n        /* \"DeFi-EduOps/contracts/MicroLons.sol\":1759:1761  ok */\n      dup1\n        /* \"DeFi-EduOps/contracts/MicroLons.sol\":1751:1781  require(ok, \"Transfer failed\") */\n      tag_81\n      jumpi\n      mload(0x40)\n      0x08c379a000000000000000000000000000000000000000000000000000000000\n      dup2\n      mstore\n      0x04\n      add\n      tag_82\n      swap1\n      tag_83\n      jump\t// in\n    tag_82:\n      mload(0x40)\n      dup1\n      swap2\n      sub\n      swap1\n      revert\n    tag_81:\n        /* \"DeFi-EduOps/contracts/MicroLons.sol\":1822:1831  _borrower */\n      dup6\n        /* \"DeFi-EduOps/contracts/MicroLons.sol\":1797:1860  LoanCreated(loanCounter, _borrower, _principal, _interest, due) */\n      0xffffffffffffffffffffffffffffffffffffffff\n      and\n        /* \"DeFi-EduOps/contracts/MicroLons.sol\":1809:1820  loanCounter */\n      sload(0x01)\n        /* \"DeFi-EduOps/contracts/MicroLons.sol\":1797:1860  LoanCreated(loanCounter, _borrower, _principal, _interest, due) */\n      0xb2cca1719ad611d325136b9c9a4357f412d33694d93c60d4c1b6e922d524cf59\n        /* \"DeFi-EduOps/contracts/MicroLons.sol\":1833:1843  _principal */\n      dup8\n        /* \"DeFi-EduOps/contracts/MicroLons.sol\":1845:1854  _interest */\n      dup8\n        /* \"DeFi-EduOps/contracts/MicroLons.sol\":1856:1859  due */\n      dup7\n        /* \"DeFi-EduOps/contracts/MicroLons.sol\":1797:1860  LoanCreated(loanCounter, _borrower, _principal, _interest, due) */\n      mload(0x40)\n      tag_84\n      swap4\n      swap3\n      swap2\n      swap1\n      tag_85\n      jump\t// in\n    tag_84:\n      mload(0x40)\n      dup1\n      swap2\n      sub\n      swap1\n      log3\n        /* \"DeFi-EduOps/contracts/MicroLons.sol\":1331:1867  {... */\n      pop\n      pop\n        /* \"DeFi-EduOps/contracts/MicroLons.sol\":1214:1867  function createLoan(address payable _borrower, uint _principal, uint _interest, uint _durationDays) public onlyAdmin {... */\n      pop\n      pop\n      pop\n      pop\n      jump\t// out\n        /* \"DeFi-EduOps/contracts/MicroLons.sol\":1937:2354  function repayLoan(uint _loanId) public payable {... */\n    tag_30:\n        /* \"DeFi-EduOps/contracts/MicroLons.sol\":1995:2009  Loan storage l */\n      0x00\n        /* \"DeFi-EduOps/contracts/MicroLons.sol\":2012:2017  loans */\n      0x02\n        /* \"DeFi-EduOps/contracts/MicroLons.sol\":2012:2026  loans[_loanId] */\n      0x00\n        /* \"DeFi-EduOps/contracts/MicroLons.sol\":2018:2025  _loanId */\n      dup4\n        /* \"DeFi-EduOps/contracts/MicroLons.sol\":2012:2026  loans[_loanId] */\n      dup2\n      mstore\n      0x20\n      add\n      swap1\n      dup2\n      mstore\n      0x20\n      add\n      0x00\n      keccak256\n        /* \"DeFi-EduOps/contracts/MicroLons.sol\":1995:2026  Loan storage l = loans[_loanId] */\n      swap1\n      pop\n        /* \"DeFi-EduOps/contracts/MicroLons.sol\":2052:2053  0 */\n      0x00\n        /* \"DeFi-EduOps/contracts/MicroLons.sol\":2044:2045  l */\n      dup2\n        /* \"DeFi-EduOps/contracts/MicroLons.sol\":2044:2048  l.id */\n      0x00\n      add\n      sload\n        /* \"DeFi-EduOps/contracts/MicroLons.sol\":2044:2053  l.id != 0 */\n      sub\n        /* \"DeFi-EduOps/contracts/MicroLons.sol\":2036:2072  require(l.id != 0, \"Loan not exist\") */\n      tag_87\n      jumpi\n      mload(0x40)\n      0x08c379a000000000000000000000000000000000000000000000000000000000\n      dup2\n      mstore\n      0x04\n      add\n      tag_88\n      swap1\n      tag_89\n      jump\t// in\n    tag_88:\n      mload(0x40)\n      dup1\n      swap2\n      sub\n      swap1\n      revert\n    tag_87:\n        /* \"DeFi-EduOps/contracts/MicroLons.sol\":2091:2092  l */\n      dup1\n        /* \"DeFi-EduOps/contracts/MicroLons.sol\":2091:2099  l.repaid */\n      0x05\n      add\n      0x00\n      swap1\n      sload\n      swap1\n      0x0100\n      exp\n      swap1\n      div\n      0xff\n      and\n        /* \"DeFi-EduOps/contracts/MicroLons.sol\":2090:2099  !l.repaid */\n      iszero\n        /* \"DeFi-EduOps/contracts/MicroLons.sol\":2082:2118  require(!l.repaid, \"Already repaid\") */\n      tag_90\n      jumpi\n      mload(0x40)\n      0x08c379a000000000000000000000000000000000000000000000000000000000\n      dup2\n      mstore\n      0x04\n      add\n      tag_91\n      swap1\n      tag_92\n      jump\t// in\n    tag_91:\n      mload(0x40)\n      dup1\n      swap2\n      sub\n      swap1\n      revert\n    tag_90:\n        /* \"DeFi-EduOps/contracts/MicroLons.sol\":2164:2165  l */\n      dup1\n        /* \"DeFi-EduOps/contracts/MicroLons.sol\":2164:2174  l.interest */\n      0x03\n      add\n      sload\n        /* \"DeFi-EduOps/contracts/MicroLons.sol\":2150:2151  l */\n      dup2\n        /* \"DeFi-EduOps/contracts/MicroLons.sol\":2150:2161  l.principal */\n      0x02\n      add\n      sload\n        /* \"DeFi-EduOps/contracts/MicroLons.sol\":2150:2174  l.principal + l.interest */\n      tag_93\n      swap2\n      swap1\n      tag_72\n      jump\t// in\n    tag_93:\n        /* \"DeFi-EduOps/contracts/MicroLons.sol\":2136:2145  msg.value */\n      callvalue\n        /* \"DeFi-EduOps/contracts/MicroLons.sol\":2136:2175  msg.value >= (l.principal + l.interest) */\n      lt\n      iszero\n        /* \"DeFi-EduOps/contracts/MicroLons.sol\":2128:2202  require(msg.value >= (l.principal + l.interest), \"Insufficient repayment\") */\n      tag_94\n      jumpi\n      mload(0x40)\n      0x08c379a000000000000000000000000000000000000000000000000000000000\n      dup2\n      mstore\n      0x04\n      add\n      tag_95\n      swap1\n      tag_96\n      jump\t// in\n    tag_95:\n      mload(0x40)\n      dup1\n      swap2\n      sub\n      swap1\n      revert\n    tag_94:\n        /* \"DeFi-EduOps/contracts/MicroLons.sol\":2223:2227  true */\n      0x01\n        /* \"DeFi-EduOps/contracts/MicroLons.sol\":2212:2213  l */\n      dup2\n        /* \"DeFi-EduOps/contracts/MicroLons.sol\":2212:2220  l.repaid */\n      0x05\n      add\n      0x00\n        /* \"DeFi-EduOps/contracts/MicroLons.sol\":2212:2227  l.repaid = true */\n      0x0100\n      exp\n      dup2\n      sload\n      dup2\n      0xff\n      mul\n      not\n      and\n      swap1\n      dup4\n      iszero\n      iszero\n      mul\n      or\n      swap1\n      sstore\n      pop\n        /* \"DeFi-EduOps/contracts/MicroLons.sol\":2262:2272  msg.sender */\n      caller\n        /* \"DeFi-EduOps/contracts/MicroLons.sol\":2242:2284  LoanRepaid(_loanId, msg.sender, msg.value) */\n      0xffffffffffffffffffffffffffffffffffffffff\n      and\n        /* \"DeFi-EduOps/contracts/MicroLons.sol\":2253:2260  _loanId */\n      dup3\n        /* \"DeFi-EduOps/contracts/MicroLons.sol\":2242:2284  LoanRepaid(_loanId, msg.sender, msg.value) */\n      0x512d3e65b3e58c2187bb1872aa435dba5bd09c1c03823ba56ab70aac411e4a21\n        /* \"DeFi-EduOps/contracts/MicroLons.sol\":2274:2283  msg.value */\n      callvalue\n        /* \"DeFi-EduOps/contracts/MicroLons.sol\":2242:2284  LoanRepaid(_loanId, msg.sender, msg.value) */\n      mload(0x40)\n      tag_97\n      swap2\n      swap1\n      tag_17\n      jump\t// in\n    tag_97:\n      mload(0x40)\n      dup1\n      swap2\n      sub\n      swap1\n      log3\n        /* \"DeFi-EduOps/contracts/MicroLons.sol\":1985:2354  {... */\n      pop\n        /* \"DeFi-EduOps/contracts/MicroLons.sol\":1937:2354  function repayLoan(uint _loanId) public payable {... */\n      pop\n      jump\t// out\n        /* \"DeFi-EduOps/contracts/MicroLons.sol\":560:594  mapping(uint => Loan) public loans */\n    tag_34:\n      mstore(0x20, 0x02)\n      dup1\n      0x00\n      mstore\n      keccak256(0x00, 0x40)\n      0x00\n      swap2\n      pop\n      swap1\n      pop\n      dup1\n      0x00\n      add\n      sload\n      swap1\n      dup1\n      0x01\n      add\n      0x00\n      swap1\n      sload\n      swap1\n      0x0100\n      exp\n      swap1\n      div\n      0xffffffffffffffffffffffffffffffffffffffff\n      and\n      swap1\n      dup1\n      0x02\n      add\n      sload\n      swap1\n      dup1\n      0x03\n      add\n      sload\n      swap1\n      dup1\n      0x04\n      add\n      sload\n      swap1\n      dup1\n      0x05\n      add\n      0x00\n      swap1\n      sload\n      swap1\n      0x0100\n      exp\n      swap1\n      div\n      0xff\n      and\n      swap1\n      pop\n      dup7\n      jump\t// out\n        /* \"DeFi-EduOps/contracts/MicroLons.sol\":600:647  mapping(address => uint[]) public borrowerLoans */\n    tag_41:\n      mstore(0x20, 0x03)\n      dup2\n      0x00\n      mstore\n      keccak256(0x00, 0x40)\n      dup2\n      dup2\n      sload\n      dup2\n      lt\n      tag_98\n      jumpi\n      0x00\n      dup1\n      revert\n    tag_98:\n      swap1\n      0x00\n      mstore\n      keccak256(0x00, 0x20)\n      add\n      0x00\n      swap2\n      pop\n      swap2\n      pop\n      pop\n      sload\n      dup2\n      jump\t// out\n        /* \"DeFi-EduOps/contracts/MicroLons.sol\":273:293  address public admin */\n    tag_45:\n      0x00\n      0x00\n      swap1\n      sload\n      swap1\n      0x0100\n      exp\n      swap1\n      div\n      0xffffffffffffffffffffffffffffffffffffffff\n      and\n      dup2\n      jump\t// out\n        /* \"#utility.yul\":7:84   */\n    tag_100:\n        /* \"#utility.yul\":44:51   */\n      0x00\n        /* \"#utility.yul\":73:78   */\n      dup2\n        /* \"#utility.yul\":62:78   */\n      swap1\n      pop\n        /* \"#utility.yul\":7:84   */\n      swap2\n      swap1\n      pop\n      jump\t// out\n        /* \"#utility.yul\":90:208   */\n    tag_101:\n        /* \"#utility.yul\":177:201   */\n      tag_141\n        /* \"#utility.yul\":195:200   */\n      dup2\n        /* \"#utility.yul\":177:201   */\n      tag_100\n      jump\t// in\n    tag_141:\n        /* \"#utility.yul\":172:175   */\n      dup3\n        /* \"#utility.yul\":165:202   */\n      mstore\n        /* \"#utility.yul\":90:208   */\n      pop\n      pop\n      jump\t// out\n        /* \"#utility.yul\":214:436   */\n    tag_17:\n        /* \"#utility.yul\":307:311   */\n      0x00\n        /* \"#utility.yul\":345:347   */\n      0x20\n        /* \"#utility.yul\":334:343   */\n      dup3\n        /* \"#utility.yul\":330:348   */\n      add\n        /* \"#utility.yul\":322:348   */\n      swap1\n      pop\n        /* \"#utility.yul\":358:429   */\n      tag_143\n        /* \"#utility.yul\":426:427   */\n      0x00\n        /* \"#utility.yul\":415:424   */\n      dup4\n        /* \"#utility.yul\":411:428   */\n      add\n        /* \"#utility.yul\":402:408   */\n      dup5\n        /* \"#utility.yul\":358:429   */\n      tag_101\n      jump\t// in\n    tag_143:\n        /* \"#utility.yul\":214:436   */\n      swap3\n      swap2\n      pop\n      pop\n      jump\t// out\n        /* \"#utility.yul\":523:640   */\n    tag_103:\n        /* \"#utility.yul\":632:633   */\n      0x00\n        /* \"#utility.yul\":629:630   */\n      0x00\n        /* \"#utility.yul\":622:634   */\n      revert\n        /* \"#utility.yul\":769:891   */\n    tag_105:\n        /* \"#utility.yul\":842:866   */\n      tag_148\n        /* \"#utility.yul\":860:865   */\n      dup2\n        /* \"#utility.yul\":842:866   */\n      tag_100\n      jump\t// in\n    tag_148:\n        /* \"#utility.yul\":835:840   */\n      dup2\n        /* \"#utility.yul\":832:867   */\n      eq\n        /* \"#utility.yul\":822:885   */\n      tag_149\n      jumpi\n        /* \"#utility.yul\":881:882   */\n      0x00\n        /* \"#utility.yul\":878:879   */\n      0x00\n        /* \"#utility.yul\":871:883   */\n      revert\n        /* \"#utility.yul\":822:885   */\n    tag_149:\n        /* \"#utility.yul\":769:891   */\n      pop\n      jump\t// out\n        /* \"#utility.yul\":897:1036   */\n    tag_106:\n        /* \"#utility.yul\":943:948   */\n      0x00\n        /* \"#utility.yul\":981:987   */\n      dup2\n        /* \"#utility.yul\":968:988   */\n      calldataload\n        /* \"#utility.yul\":959:988   */\n      swap1\n      pop\n        /* \"#utility.yul\":997:1030   */\n      tag_151\n        /* \"#utility.yul\":1024:1029   */\n      dup2\n        /* \"#utility.yul\":997:1030   */\n      tag_105\n      jump\t// in\n    tag_151:\n        /* \"#utility.yul\":897:1036   */\n      swap3\n      swap2\n      pop\n      pop\n      jump\t// out\n        /* \"#utility.yul\":1042:1371   */\n    tag_21:\n        /* \"#utility.yul\":1101:1107   */\n      0x00\n        /* \"#utility.yul\":1150:1152   */\n      0x20\n        /* \"#utility.yul\":1138:1147   */\n      dup3\n        /* \"#utility.yul\":1129:1136   */\n      dup5\n        /* \"#utility.yul\":1125:1148   */\n      sub\n        /* \"#utility.yul\":1121:1153   */\n      slt\n        /* \"#utility.yul\":1118:1237   */\n      iszero\n      tag_153\n      jumpi\n        /* \"#utility.yul\":1156:1235   */\n      tag_154\n      tag_103\n      jump\t// in\n    tag_154:\n        /* \"#utility.yul\":1118:1237   */\n    tag_153:\n        /* \"#utility.yul\":1276:1277   */\n      0x00\n        /* \"#utility.yul\":1301:1354   */\n      tag_155\n        /* \"#utility.yul\":1346:1353   */\n      dup5\n        /* \"#utility.yul\":1337:1343   */\n      dup3\n        /* \"#utility.yul\":1326:1335   */\n      dup6\n        /* \"#utility.yul\":1322:1344   */\n      add\n        /* \"#utility.yul\":1301:1354   */\n      tag_106\n      jump\t// in\n    tag_155:\n        /* \"#utility.yul\":1291:1354   */\n      swap2\n      pop\n        /* \"#utility.yul\":1247:1364   */\n      pop\n        /* \"#utility.yul\":1042:1371   */\n      swap3\n      swap2\n      pop\n      pop\n      jump\t// out\n        /* \"#utility.yul\":1377:1503   */\n    tag_107:\n        /* \"#utility.yul\":1414:1421   */\n      0x00\n        /* \"#utility.yul\":1454:1496   */\n      0xffffffffffffffffffffffffffffffffffffffff\n        /* \"#utility.yul\":1447:1452   */\n      dup3\n        /* \"#utility.yul\":1443:1497   */\n      and\n        /* \"#utility.yul\":1432:1497   */\n      swap1\n      pop\n        /* \"#utility.yul\":1377:1503   */\n      swap2\n      swap1\n      pop\n      jump\t// out\n        /* \"#utility.yul\":1509:1613   */\n    tag_108:\n        /* \"#utility.yul\":1554:1561   */\n      0x00\n        /* \"#utility.yul\":1583:1607   */\n      tag_158\n        /* \"#utility.yul\":1601:1606   */\n      dup3\n        /* \"#utility.yul\":1583:1607   */\n      tag_107\n      jump\t// in\n    tag_158:\n        /* \"#utility.yul\":1572:1607   */\n      swap1\n      pop\n        /* \"#utility.yul\":1509:1613   */\n      swap2\n      swap1\n      pop\n      jump\t// out\n        /* \"#utility.yul\":1619:1757   */\n    tag_109:\n        /* \"#utility.yul\":1700:1732   */\n      tag_160\n        /* \"#utility.yul\":1726:1731   */\n      dup2\n        /* \"#utility.yul\":1700:1732   */\n      tag_108\n      jump\t// in\n    tag_160:\n        /* \"#utility.yul\":1693:1698   */\n      dup2\n        /* \"#utility.yul\":1690:1733   */\n      eq\n        /* \"#utility.yul\":1680:1751   */\n      tag_161\n      jumpi\n        /* \"#utility.yul\":1747:1748   */\n      0x00\n        /* \"#utility.yul\":1744:1745   */\n      0x00\n        /* \"#utility.yul\":1737:1749   */\n      revert\n        /* \"#utility.yul\":1680:1751   */\n    tag_161:\n        /* \"#utility.yul\":1619:1757   */\n      pop\n      jump\t// out\n        /* \"#utility.yul\":1763:1918   */\n    tag_110:\n        /* \"#utility.yul\":1817:1822   */\n      0x00\n        /* \"#utility.yul\":1855:1861   */\n      dup2\n        /* \"#utility.yul\":1842:1862   */\n      calldataload\n        /* \"#utility.yul\":1833:1862   */\n      swap1\n      pop\n        /* \"#utility.yul\":1871:1912   */\n      tag_163\n        /* \"#utility.yul\":1906:1911   */\n      dup2\n        /* \"#utility.yul\":1871:1912   */\n      tag_109\n      jump\t// in\n    tag_163:\n        /* \"#utility.yul\":1763:1918   */\n      swap3\n      swap2\n      pop\n      pop\n      jump\t// out\n        /* \"#utility.yul\":1924:2705   */\n    tag_26:\n        /* \"#utility.yul\":2018:2024   */\n      0x00\n        /* \"#utility.yul\":2026:2032   */\n      0x00\n        /* \"#utility.yul\":2034:2040   */\n      0x00\n        /* \"#utility.yul\":2042:2048   */\n      0x00\n        /* \"#utility.yul\":2091:2094   */\n      0x80\n        /* \"#utility.yul\":2079:2088   */\n      dup6\n        /* \"#utility.yul\":2070:2077   */\n      dup8\n        /* \"#utility.yul\":2066:2089   */\n      sub\n        /* \"#utility.yul\":2062:2095   */\n      slt\n        /* \"#utility.yul\":2059:2179   */\n      iszero\n      tag_165\n      jumpi\n        /* \"#utility.yul\":2098:2177   */\n      tag_166\n      tag_103\n      jump\t// in\n    tag_166:\n        /* \"#utility.yul\":2059:2179   */\n    tag_165:\n        /* \"#utility.yul\":2218:2219   */\n      0x00\n        /* \"#utility.yul\":2243:2304   */\n      tag_167\n        /* \"#utility.yul\":2296:2303   */\n      dup8\n        /* \"#utility.yul\":2287:2293   */\n      dup3\n        /* \"#utility.yul\":2276:2285   */\n      dup9\n        /* \"#utility.yul\":2272:2294   */\n      add\n        /* \"#utility.yul\":2243:2304   */\n      tag_110\n      jump\t// in\n    tag_167:\n        /* \"#utility.yul\":2233:2304   */\n      swap5\n      pop\n        /* \"#utility.yul\":2189:2314   */\n      pop\n        /* \"#utility.yul\":2353:2355   */\n      0x20\n        /* \"#utility.yul\":2379:2432   */\n      tag_168\n        /* \"#utility.yul\":2424:2431   */\n      dup8\n        /* \"#utility.yul\":2415:2421   */\n      dup3\n        /* \"#utility.yul\":2404:2413   */\n      dup9\n        /* \"#utility.yul\":2400:2422   */\n      add\n        /* \"#utility.yul\":2379:2432   */\n      tag_106\n      jump\t// in\n    tag_168:\n        /* \"#utility.yul\":2369:2432   */\n      swap4\n      pop\n        /* \"#utility.yul\":2324:2442   */\n      pop\n        /* \"#utility.yul\":2481:2483   */\n      0x40\n        /* \"#utility.yul\":2507:2560   */\n      tag_169\n        /* \"#utility.yul\":2552:2559   */\n      dup8\n        /* \"#utility.yul\":2543:2549   */\n      dup3\n        /* \"#utility.yul\":2532:2541   */\n      dup9\n        /* \"#utility.yul\":2528:2550   */\n      add\n        /* \"#utility.yul\":2507:2560   */\n      tag_106\n      jump\t// in\n    tag_169:\n        /* \"#utility.yul\":2497:2560   */\n      swap3\n      pop\n        /* \"#utility.yul\":2452:2570   */\n      pop\n        /* \"#utility.yul\":2609:2611   */\n      0x60\n        /* \"#utility.yul\":2635:2688   */\n      tag_170\n        /* \"#utility.yul\":2680:2687   */\n      dup8\n        /* \"#utility.yul\":2671:2677   */\n      dup3\n        /* \"#utility.yul\":2660:2669   */\n      dup9\n        /* \"#utility.yul\":2656:2678   */\n      add\n        /* \"#utility.yul\":2635:2688   */\n      tag_106\n      jump\t// in\n    tag_170:\n        /* \"#utility.yul\":2625:2688   */\n      swap2\n      pop\n        /* \"#utility.yul\":2580:2698   */\n      pop\n        /* \"#utility.yul\":1924:2705   */\n      swap3\n      swap6\n      swap2\n      swap5\n      pop\n      swap3\n      pop\n      jump\t// out\n        /* \"#utility.yul\":2711:2807   */\n    tag_111:\n        /* \"#utility.yul\":2748:2755   */\n      0x00\n        /* \"#utility.yul\":2777:2801   */\n      tag_172\n        /* \"#utility.yul\":2795:2800   */\n      dup3\n        /* \"#utility.yul\":2777:2801   */\n      tag_107\n      jump\t// in\n    tag_172:\n        /* \"#utility.yul\":2766:2801   */\n      swap1\n      pop\n        /* \"#utility.yul\":2711:2807   */\n      swap2\n      swap1\n      pop\n      jump\t// out\n        /* \"#utility.yul\":2813:2931   */\n    tag_112:\n        /* \"#utility.yul\":2900:2924   */\n      tag_174\n        /* \"#utility.yul\":2918:2923   */\n      dup2\n        /* \"#utility.yul\":2900:2924   */\n      tag_111\n      jump\t// in\n    tag_174:\n        /* \"#utility.yul\":2895:2898   */\n      dup3\n        /* \"#utility.yul\":2888:2925   */\n      mstore\n        /* \"#utility.yul\":2813:2931   */\n      pop\n      pop\n      jump\t// out\n        /* \"#utility.yul\":2937:3027   */\n    tag_113:\n        /* \"#utility.yul\":2971:2978   */\n      0x00\n        /* \"#utility.yul\":3014:3019   */\n      dup2\n        /* \"#utility.yul\":3007:3020   */\n      iszero\n        /* \"#utility.yul\":3000:3021   */\n      iszero\n        /* \"#utility.yul\":2989:3021   */\n      swap1\n      pop\n        /* \"#utility.yul\":2937:3027   */\n      swap2\n      swap1\n      pop\n      jump\t// out\n        /* \"#utility.yul\":3033:3142   */\n    tag_114:\n        /* \"#utility.yul\":3114:3135   */\n      tag_177\n        /* \"#utility.yul\":3129:3134   */\n      dup2\n        /* \"#utility.yul\":3114:3135   */\n      tag_113\n      jump\t// in\n    tag_177:\n        /* \"#utility.yul\":3109:3112   */\n      dup3\n        /* \"#utility.yul\":3102:3136   */\n      mstore\n        /* \"#utility.yul\":3033:3142   */\n      pop\n      pop\n      jump\t// out\n        /* \"#utility.yul\":3148:3911   */\n    tag_36:\n        /* \"#utility.yul\":3375:3379   */\n      0x00\n        /* \"#utility.yul\":3413:3416   */\n      0xc0\n        /* \"#utility.yul\":3402:3411   */\n      dup3\n        /* \"#utility.yul\":3398:3417   */\n      add\n        /* \"#utility.yul\":3390:3417   */\n      swap1\n      pop\n        /* \"#utility.yul\":3427:3498   */\n      tag_179\n        /* \"#utility.yul\":3495:3496   */\n      0x00\n        /* \"#utility.yul\":3484:3493   */\n      dup4\n        /* \"#utility.yul\":3480:3497   */\n      add\n        /* \"#utility.yul\":3471:3477   */\n      dup10\n        /* \"#utility.yul\":3427:3498   */\n      tag_101\n      jump\t// in\n    tag_179:\n        /* \"#utility.yul\":3508:3580   */\n      tag_180\n        /* \"#utility.yul\":3576:3578   */\n      0x20\n        /* \"#utility.yul\":3565:3574   */\n      dup4\n        /* \"#utility.yul\":3561:3579   */\n      add\n        /* \"#utility.yul\":3552:3558   */\n      dup9\n        /* \"#utility.yul\":3508:3580   */\n      tag_112\n      jump\t// in\n    tag_180:\n        /* \"#utility.yul\":3590:3662   */\n      tag_181\n        /* \"#utility.yul\":3658:3660   */\n      0x40\n        /* \"#utility.yul\":3647:3656   */\n      dup4\n        /* \"#utility.yul\":3643:3661   */\n      add\n        /* \"#utility.yul\":3634:3640   */\n      dup8\n        /* \"#utility.yul\":3590:3662   */\n      tag_101\n      jump\t// in\n    tag_181:\n        /* \"#utility.yul\":3672:3744   */\n      tag_182\n        /* \"#utility.yul\":3740:3742   */\n      0x60\n        /* \"#utility.yul\":3729:3738   */\n      dup4\n        /* \"#utility.yul\":3725:3743   */\n      add\n        /* \"#utility.yul\":3716:3722   */\n      dup7\n        /* \"#utility.yul\":3672:3744   */\n      tag_101\n      jump\t// in\n    tag_182:\n        /* \"#utility.yul\":3754:3827   */\n      tag_183\n        /* \"#utility.yul\":3822:3825   */\n      0x80\n        /* \"#utility.yul\":3811:3820   */\n      dup4\n        /* \"#utility.yul\":3807:3826   */\n      add\n        /* \"#utility.yul\":3798:3804   */\n      dup6\n        /* \"#utility.yul\":3754:3827   */\n      tag_101\n      jump\t// in\n    tag_183:\n        /* \"#utility.yul\":3837:3904   */\n      tag_184\n        /* \"#utility.yul\":3899:3902   */\n      0xa0\n        /* \"#utility.yul\":3888:3897   */\n      dup4\n        /* \"#utility.yul\":3884:3903   */\n      add\n        /* \"#utility.yul\":3875:3881   */\n      dup5\n        /* \"#utility.yul\":3837:3904   */\n      tag_114\n      jump\t// in\n    tag_184:\n        /* \"#utility.yul\":3148:3911   */\n      swap8\n      swap7\n      pop\n      pop\n      pop\n      pop\n      pop\n      pop\n      pop\n      jump\t// out\n        /* \"#utility.yul\":3917:4039   */\n    tag_115:\n        /* \"#utility.yul\":3990:4014   */\n      tag_186\n        /* \"#utility.yul\":4008:4013   */\n      dup2\n        /* \"#utility.yul\":3990:4014   */\n      tag_111\n      jump\t// in\n    tag_186:\n        /* \"#utility.yul\":3983:3988   */\n      dup2\n        /* \"#utility.yul\":3980:4015   */\n      eq\n        /* \"#utility.yul\":3970:4033   */\n      tag_187\n      jumpi\n        /* \"#utility.yul\":4029:4030   */\n      0x00\n        /* \"#utility.yul\":4026:4027   */\n      0x00\n        /* \"#utility.yul\":4019:4031   */\n      revert\n        /* \"#utility.yul\":3970:4033   */\n    tag_187:\n        /* \"#utility.yul\":3917:4039   */\n      pop\n      jump\t// out\n        /* \"#utility.yul\":4045:4184   */\n    tag_116:\n        /* \"#utility.yul\":4091:4096   */\n      0x00\n        /* \"#utility.yul\":4129:4135   */\n      dup2\n        /* \"#utility.yul\":4116:4136   */\n      calldataload\n        /* \"#utility.yul\":4107:4136   */\n      swap1\n      pop\n        /* \"#utility.yul\":4145:4178   */\n      tag_189\n        /* \"#utility.yul\":4172:4177   */\n      dup2\n        /* \"#utility.yul\":4145:4178   */\n      tag_115\n      jump\t// in\n    tag_189:\n        /* \"#utility.yul\":4045:4184   */\n      swap3\n      swap2\n      pop\n      pop\n      jump\t// out\n        /* \"#utility.yul\":4190:4664   */\n    tag_40:\n        /* \"#utility.yul\":4258:4264   */\n      0x00\n        /* \"#utility.yul\":4266:4272   */\n      0x00\n        /* \"#utility.yul\":4315:4317   */\n      0x40\n        /* \"#utility.yul\":4303:4312   */\n      dup4\n        /* \"#utility.yul\":4294:4301   */\n      dup6\n        /* \"#utility.yul\":4290:4313   */\n      sub\n        /* \"#utility.yul\":4286:4318   */\n      slt\n        /* \"#utility.yul\":4283:4402   */\n      iszero\n      tag_191\n      jumpi\n        /* \"#utility.yul\":4321:4400   */\n      tag_192\n      tag_103\n      jump\t// in\n    tag_192:\n        /* \"#utility.yul\":4283:4402   */\n    tag_191:\n        /* \"#utility.yul\":4441:4442   */\n      0x00\n        /* \"#utility.yul\":4466:4519   */\n      tag_193\n        /* \"#utility.yul\":4511:4518   */\n      dup6\n        /* \"#utility.yul\":4502:4508   */\n      dup3\n        /* \"#utility.yul\":4491:4500   */\n      dup7\n        /* \"#utility.yul\":4487:4509   */\n      add\n        /* \"#utility.yul\":4466:4519   */\n      tag_116\n      jump\t// in\n    tag_193:\n        /* \"#utility.yul\":4456:4519   */\n      swap3\n      pop\n        /* \"#utility.yul\":4412:4529   */\n      pop\n        /* \"#utility.yul\":4568:4570   */\n      0x20\n        /* \"#utility.yul\":4594:4647   */\n      tag_194\n        /* \"#utility.yul\":4639:4646   */\n      dup6\n        /* \"#utility.yul\":4630:4636   */\n      dup3\n        /* \"#utility.yul\":4619:4628   */\n      dup7\n        /* \"#utility.yul\":4615:4637   */\n      add\n        /* \"#utility.yul\":4594:4647   */\n      tag_106\n      jump\t// in\n    tag_194:\n        /* \"#utility.yul\":4584:4647   */\n      swap2\n      pop\n        /* \"#utility.yul\":4539:4657   */\n      pop\n        /* \"#utility.yul\":4190:4664   */\n      swap3\n      pop\n      swap3\n      swap1\n      pop\n      jump\t// out\n        /* \"#utility.yul\":4670:4892   */\n    tag_47:\n        /* \"#utility.yul\":4763:4767   */\n      0x00\n        /* \"#utility.yul\":4801:4803   */\n      0x20\n        /* \"#utility.yul\":4790:4799   */\n      dup3\n        /* \"#utility.yul\":4786:4804   */\n      add\n        /* \"#utility.yul\":4778:4804   */\n      swap1\n      pop\n        /* \"#utility.yul\":4814:4885   */\n      tag_196\n        /* \"#utility.yul\":4882:4883   */\n      0x00\n        /* \"#utility.yul\":4871:4880   */\n      dup4\n        /* \"#utility.yul\":4867:4884   */\n      add\n        /* \"#utility.yul\":4858:4864   */\n      dup5\n        /* \"#utility.yul\":4814:4885   */\n      tag_112\n      jump\t// in\n    tag_196:\n        /* \"#utility.yul\":4670:4892   */\n      swap3\n      swap2\n      pop\n      pop\n      jump\t// out\n        /* \"#utility.yul\":4898:5067   */\n    tag_117:\n        /* \"#utility.yul\":4982:4993   */\n      0x00\n        /* \"#utility.yul\":5016:5022   */\n      dup3\n        /* \"#utility.yul\":5011:5014   */\n      dup3\n        /* \"#utility.yul\":5004:5023   */\n      mstore\n        /* \"#utility.yul\":5056:5060   */\n      0x20\n        /* \"#utility.yul\":5051:5054   */\n      dup3\n        /* \"#utility.yul\":5047:5061   */\n      add\n        /* \"#utility.yul\":5032:5061   */\n      swap1\n      pop\n        /* \"#utility.yul\":4898:5067   */\n      swap3\n      swap2\n      pop\n      pop\n      jump\t// out\n        /* \"#utility.yul\":5073:5233   */\n    tag_118:\n        /* \"#utility.yul\":5213:5225   */\n      0x4f6e6c792061646d696e00000000000000000000000000000000000000000000\n        /* \"#utility.yul\":5209:5210   */\n      0x00\n        /* \"#utility.yul\":5201:5207   */\n      dup3\n        /* \"#utility.yul\":5197:5211   */\n      add\n        /* \"#utility.yul\":5190:5226   */\n      mstore\n        /* \"#utility.yul\":5073:5233   */\n      pop\n      jump\t// out\n        /* \"#utility.yul\":5239:5605   */\n    tag_119:\n        /* \"#utility.yul\":5381:5384   */\n      0x00\n        /* \"#utility.yul\":5402:5469   */\n      tag_200\n        /* \"#utility.yul\":5466:5468   */\n      0x0a\n        /* \"#utility.yul\":5461:5464   */\n      dup4\n        /* \"#utility.yul\":5402:5469   */\n      tag_117\n      jump\t// in\n    tag_200:\n        /* \"#utility.yul\":5395:5469   */\n      swap2\n      pop\n        /* \"#utility.yul\":5478:5571   */\n      tag_201\n        /* \"#utility.yul\":5567:5570   */\n      dup3\n        /* \"#utility.yul\":5478:5571   */\n      tag_118\n      jump\t// in\n    tag_201:\n        /* \"#utility.yul\":5596:5598   */\n      0x20\n        /* \"#utility.yul\":5591:5594   */\n      dup3\n        /* \"#utility.yul\":5587:5599   */\n      add\n        /* \"#utility.yul\":5580:5599   */\n      swap1\n      pop\n        /* \"#utility.yul\":5239:5605   */\n      swap2\n      swap1\n      pop\n      jump\t// out\n        /* \"#utility.yul\":5611:6030   */\n    tag_51:\n        /* \"#utility.yul\":5777:5781   */\n      0x00\n        /* \"#utility.yul\":5815:5817   */\n      0x20\n        /* \"#utility.yul\":5804:5813   */\n      dup3\n        /* \"#utility.yul\":5800:5818   */\n      add\n        /* \"#utility.yul\":5792:5818   */\n      swap1\n      pop\n        /* \"#utility.yul\":5864:5873   */\n      dup2\n        /* \"#utility.yul\":5858:5862   */\n      dup2\n        /* \"#utility.yul\":5854:5874   */\n      sub\n        /* \"#utility.yul\":5850:5851   */\n      0x00\n        /* \"#utility.yul\":5839:5848   */\n      dup4\n        /* \"#utility.yul\":5835:5852   */\n      add\n        /* \"#utility.yul\":5828:5875   */\n      mstore\n        /* \"#utility.yul\":5892:6023   */\n      tag_203\n        /* \"#utility.yul\":6018:6022   */\n      dup2\n        /* \"#utility.yul\":5892:6023   */\n      tag_119\n      jump\t// in\n    tag_203:\n        /* \"#utility.yul\":5884:6023   */\n      swap1\n      pop\n        /* \"#utility.yul\":5611:6030   */\n      swap2\n      swap1\n      pop\n      jump\t// out\n        /* \"#utility.yul\":6036:6206   */\n    tag_120:\n        /* \"#utility.yul\":6176:6198   */\n      0x496e73756666696369656e742062616c616e6365000000000000000000000000\n        /* \"#utility.yul\":6172:6173   */\n      0x00\n        /* \"#utility.yul\":6164:6170   */\n      dup3\n        /* \"#utility.yul\":6160:6174   */\n      add\n        /* \"#utility.yul\":6153:6199   */\n      mstore\n        /* \"#utility.yul\":6036:6206   */\n      pop\n      jump\t// out\n        /* \"#utility.yul\":6212:6578   */\n    tag_121:\n        /* \"#utility.yul\":6354:6357   */\n      0x00\n        /* \"#utility.yul\":6375:6442   */\n      tag_206\n        /* \"#utility.yul\":6439:6441   */\n      0x14\n        /* \"#utility.yul\":6434:6437   */\n      dup4\n        /* \"#utility.yul\":6375:6442   */\n      tag_117\n      jump\t// in\n    tag_206:\n        /* \"#utility.yul\":6368:6442   */\n      swap2\n      pop\n        /* \"#utility.yul\":6451:6544   */\n      tag_207\n        /* \"#utility.yul\":6540:6543   */\n      dup3\n        /* \"#utility.yul\":6451:6544   */\n      tag_120\n      jump\t// in\n    tag_207:\n        /* \"#utility.yul\":6569:6571   */\n      0x20\n        /* \"#utility.yul\":6564:6567   */\n      dup3\n        /* \"#utility.yul\":6560:6572   */\n      add\n        /* \"#utility.yul\":6553:6572   */\n      swap1\n      pop\n        /* \"#utility.yul\":6212:6578   */\n      swap2\n      swap1\n      pop\n      jump\t// out\n        /* \"#utility.yul\":6584:7003   */\n    tag_55:\n        /* \"#utility.yul\":6750:6754   */\n      0x00\n        /* \"#utility.yul\":6788:6790   */\n      0x20\n        /* \"#utility.yul\":6777:6786   */\n      dup3\n        /* \"#utility.yul\":6773:6791   */\n      add\n        /* \"#utility.yul\":6765:6791   */\n      swap1\n      pop\n        /* \"#utility.yul\":6837:6846   */\n      dup2\n        /* \"#utility.yul\":6831:6835   */\n      dup2\n        /* \"#utility.yul\":6827:6847   */\n      sub\n        /* \"#utility.yul\":6823:6824   */\n      0x00\n        /* \"#utility.yul\":6812:6821   */\n      dup4\n        /* \"#utility.yul\":6808:6825   */\n      add\n        /* \"#utility.yul\":6801:6848   */\n      mstore\n        /* \"#utility.yul\":6865:6996   */\n      tag_209\n        /* \"#utility.yul\":6991:6995   */\n      dup2\n        /* \"#utility.yul\":6865:6996   */\n      tag_121\n      jump\t// in\n    tag_209:\n        /* \"#utility.yul\":6857:6996   */\n      swap1\n      pop\n        /* \"#utility.yul\":6584:7003   */\n      swap2\n      swap1\n      pop\n      jump\t// out\n        /* \"#utility.yul\":7009:7156   */\n    tag_122:\n        /* \"#utility.yul\":7110:7121   */\n      0x00\n        /* \"#utility.yul\":7147:7150   */\n      dup2\n        /* \"#utility.yul\":7132:7150   */\n      swap1\n      pop\n        /* \"#utility.yul\":7009:7156   */\n      swap3\n      swap2\n      pop\n      pop\n      jump\t// out\n        /* \"#utility.yul\":7162:7276   */\n    tag_123:\n      pop\n      jump\t// out\n        /* \"#utility.yul\":7282:7680   */\n    tag_124:\n        /* \"#utility.yul\":7441:7444   */\n      0x00\n        /* \"#utility.yul\":7462:7545   */\n      tag_213\n        /* \"#utility.yul\":7543:7544   */\n      0x00\n        /* \"#utility.yul\":7538:7541   */\n      dup4\n        /* \"#utility.yul\":7462:7545   */\n      tag_122\n      jump\t// in\n    tag_213:\n        /* \"#utility.yul\":7455:7545   */\n      swap2\n      pop\n        /* \"#utility.yul\":7554:7647   */\n      tag_214\n        /* \"#utility.yul\":7643:7646   */\n      dup3\n        /* \"#utility.yul\":7554:7647   */\n      tag_123\n      jump\t// in\n    tag_214:\n        /* \"#utility.yul\":7672:7673   */\n      0x00\n        /* \"#utility.yul\":7667:7670   */\n      dup3\n        /* \"#utility.yul\":7663:7674   */\n      add\n        /* \"#utility.yul\":7656:7674   */\n      swap1\n      pop\n        /* \"#utility.yul\":7282:7680   */\n      swap2\n      swap1\n      pop\n      jump\t// out\n        /* \"#utility.yul\":7686:8065   */\n    tag_57:\n        /* \"#utility.yul\":7870:7873   */\n      0x00\n        /* \"#utility.yul\":7892:8039   */\n      tag_216\n        /* \"#utility.yul\":8035:8038   */\n      dup3\n        /* \"#utility.yul\":7892:8039   */\n      tag_124\n      jump\t// in\n    tag_216:\n        /* \"#utility.yul\":7885:8039   */\n      swap2\n      pop\n        /* \"#utility.yul\":8056:8059   */\n      dup2\n        /* \"#utility.yul\":8049:8059   */\n      swap1\n      pop\n        /* \"#utility.yul\":7686:8065   */\n      swap2\n      swap1\n      pop\n      jump\t// out\n        /* \"#utility.yul\":8071:8236   */\n    tag_125:\n        /* \"#utility.yul\":8211:8228   */\n      0x5769746864726177206661696c65640000000000000000000000000000000000\n        /* \"#utility.yul\":8207:8208   */\n      0x00\n        /* \"#utility.yul\":8199:8205   */\n      dup3\n        /* \"#utility.yul\":8195:8209   */\n      add\n        /* \"#utility.yul\":8188:8229   */\n      mstore\n        /* \"#utility.yul\":8071:8236   */\n      pop\n      jump\t// out\n        /* \"#utility.yul\":8242:8608   */\n    tag_126:\n        /* \"#utility.yul\":8384:8387   */\n      0x00\n        /* \"#utility.yul\":8405:8472   */\n      tag_219\n        /* \"#utility.yul\":8469:8471   */\n      0x0f\n        /* \"#utility.yul\":8464:8467   */\n      dup4\n        /* \"#utility.yul\":8405:8472   */\n      tag_117\n      jump\t// in\n    tag_219:\n        /* \"#utility.yul\":8398:8472   */\n      swap2\n      pop\n        /* \"#utility.yul\":8481:8574   */\n      tag_220\n        /* \"#utility.yul\":8570:8573   */\n      dup3\n        /* \"#utility.yul\":8481:8574   */\n      tag_125\n      jump\t// in\n    tag_220:\n        /* \"#utility.yul\":8599:8601   */\n      0x20\n        /* \"#utility.yul\":8594:8597   */\n      dup3\n        /* \"#utility.yul\":8590:8602   */\n      add\n        /* \"#utility.yul\":8583:8602   */\n      swap1\n      pop\n        /* \"#utility.yul\":8242:8608   */\n      swap2\n      swap1\n      pop\n      jump\t// out\n        /* \"#utility.yul\":8614:9033   */\n    tag_63:\n        /* \"#utility.yul\":8780:8784   */\n      0x00\n        /* \"#utility.yul\":8818:8820   */\n      0x20\n        /* \"#utility.yul\":8807:8816   */\n      dup3\n        /* \"#utility.yul\":8803:8821   */\n      add\n        /* \"#utility.yul\":8795:8821   */\n      swap1\n      pop\n        /* \"#utility.yul\":8867:8876   */\n      dup2\n        /* \"#utility.yul\":8861:8865   */\n      dup2\n        /* \"#utility.yul\":8857:8877   */\n      sub\n        /* \"#utility.yul\":8853:8854   */\n      0x00\n        /* \"#utility.yul\":8842:8851   */\n      dup4\n        /* \"#utility.yul\":8838:8855   */\n      add\n        /* \"#utility.yul\":8831:8878   */\n      mstore\n        /* \"#utility.yul\":8895:9026   */\n      tag_222\n        /* \"#utility.yul\":9021:9025   */\n      dup2\n        /* \"#utility.yul\":8895:9026   */\n      tag_126\n      jump\t// in\n    tag_222:\n        /* \"#utility.yul\":8887:9026   */\n      swap1\n      pop\n        /* \"#utility.yul\":8614:9033   */\n      swap2\n      swap1\n      pop\n      jump\t// out\n        /* \"#utility.yul\":9039:9214   */\n    tag_127:\n        /* \"#utility.yul\":9179:9206   */\n      0x496e73756666696369656e7420706f6f6c2062616c616e636500000000000000\n        /* \"#utility.yul\":9175:9176   */\n      0x00\n        /* \"#utility.yul\":9167:9173   */\n      dup3\n        /* \"#utility.yul\":9163:9177   */\n      add\n        /* \"#utility.yul\":9156:9207   */\n      mstore\n        /* \"#utility.yul\":9039:9214   */\n      pop\n      jump\t// out\n        /* \"#utility.yul\":9220:9586   */\n    tag_128:\n        /* \"#utility.yul\":9362:9365   */\n      0x00\n        /* \"#utility.yul\":9383:9450   */\n      tag_225\n        /* \"#utility.yul\":9447:9449   */\n      0x19\n        /* \"#utility.yul\":9442:9445   */\n      dup4\n        /* \"#utility.yul\":9383:9450   */\n      tag_117\n      jump\t// in\n    tag_225:\n        /* \"#utility.yul\":9376:9450   */\n      swap2\n      pop\n        /* \"#utility.yul\":9459:9552   */\n      tag_226\n        /* \"#utility.yul\":9548:9551   */\n      dup3\n        /* \"#utility.yul\":9459:9552   */\n      tag_127\n      jump\t// in\n    tag_226:\n        /* \"#utility.yul\":9577:9579   */\n      0x20\n        /* \"#utility.yul\":9572:9575   */\n      dup3\n        /* \"#utility.yul\":9568:9580   */\n      add\n        /* \"#utility.yul\":9561:9580   */\n      swap1\n      pop\n        /* \"#utility.yul\":9220:9586   */\n      swap2\n      swap1\n      pop\n      jump\t// out\n        /* \"#utility.yul\":9592:10011   */\n    tag_70:\n        /* \"#utility.yul\":9758:9762   */\n      0x00\n        /* \"#utility.yul\":9796:9798   */\n      0x20\n        /* \"#utility.yul\":9785:9794   */\n      dup3\n        /* \"#utility.yul\":9781:9799   */\n      add\n        /* \"#utility.yul\":9773:9799   */\n      swap1\n      pop\n        /* \"#utility.yul\":9845:9854   */\n      dup2\n        /* \"#utility.yul\":9839:9843   */\n      dup2\n        /* \"#utility.yul\":9835:9855   */\n      sub\n        /* \"#utility.yul\":9831:9832   */\n      0x00\n        /* \"#utility.yul\":9820:9829   */\n      dup4\n        /* \"#utility.yul\":9816:9833   */\n      add\n        /* \"#utility.yul\":9809:9856   */\n      mstore\n        /* \"#utility.yul\":9873:10004   */\n      tag_228\n        /* \"#utility.yul\":9999:10003   */\n      dup2\n        /* \"#utility.yul\":9873:10004   */\n      tag_128\n      jump\t// in\n    tag_228:\n        /* \"#utility.yul\":9865:10004   */\n      swap1\n      pop\n        /* \"#utility.yul\":9592:10011   */\n      swap2\n      swap1\n      pop\n      jump\t// out\n        /* \"#utility.yul\":10017:10197   */\n    tag_129:\n        /* \"#utility.yul\":10065:10142   */\n      0x4e487b7100000000000000000000000000000000000000000000000000000000\n        /* \"#utility.yul\":10062:10063   */\n      0x00\n        /* \"#utility.yul\":10055:10143   */\n      mstore\n        /* \"#utility.yul\":10162:10166   */\n      0x11\n        /* \"#utility.yul\":10159:10160   */\n      0x04\n        /* \"#utility.yul\":10152:10167   */\n      mstore\n        /* \"#utility.yul\":10186:10190   */\n      0x24\n        /* \"#utility.yul\":10183:10184   */\n      0x00\n        /* \"#utility.yul\":10176:10191   */\n      revert\n        /* \"#utility.yul\":10203:10394   */\n    tag_72:\n        /* \"#utility.yul\":10243:10246   */\n      0x00\n        /* \"#utility.yul\":10262:10282   */\n      tag_231\n        /* \"#utility.yul\":10280:10281   */\n      dup3\n        /* \"#utility.yul\":10262:10282   */\n      tag_100\n      jump\t// in\n    tag_231:\n        /* \"#utility.yul\":10257:10282   */\n      swap2\n      pop\n        /* \"#utility.yul\":10296:10316   */\n      tag_232\n        /* \"#utility.yul\":10314:10315   */\n      dup4\n        /* \"#utility.yul\":10296:10316   */\n      tag_100\n      jump\t// in\n    tag_232:\n        /* \"#utility.yul\":10291:10316   */\n      swap3\n      pop\n        /* \"#utility.yul\":10339:10340   */\n      dup3\n        /* \"#utility.yul\":10336:10337   */\n      dup3\n        /* \"#utility.yul\":10332:10341   */\n      add\n        /* \"#utility.yul\":10325:10341   */\n      swap1\n      pop\n        /* \"#utility.yul\":10360:10363   */\n      dup1\n        /* \"#utility.yul\":10357:10358   */\n      dup3\n        /* \"#utility.yul\":10354:10364   */\n      gt\n        /* \"#utility.yul\":10351:10387   */\n      iszero\n      tag_233\n      jumpi\n        /* \"#utility.yul\":10367:10385   */\n      tag_234\n      tag_129\n      jump\t// in\n    tag_234:\n        /* \"#utility.yul\":10351:10387   */\n    tag_233:\n        /* \"#utility.yul\":10203:10394   */\n      swap3\n      swap2\n      pop\n      pop\n      jump\t// out\n        /* \"#utility.yul\":10400:10810   */\n    tag_74:\n        /* \"#utility.yul\":10440:10447   */\n      0x00\n        /* \"#utility.yul\":10463:10483   */\n      tag_236\n        /* \"#utility.yul\":10481:10482   */\n      dup3\n        /* \"#utility.yul\":10463:10483   */\n      tag_100\n      jump\t// in\n    tag_236:\n        /* \"#utility.yul\":10458:10483   */\n      swap2\n      pop\n        /* \"#utility.yul\":10497:10517   */\n      tag_237\n        /* \"#utility.yul\":10515:10516   */\n      dup4\n        /* \"#utility.yul\":10497:10517   */\n      tag_100\n      jump\t// in\n    tag_237:\n        /* \"#utility.yul\":10492:10517   */\n      swap3\n      pop\n        /* \"#utility.yul\":10552:10553   */\n      dup3\n        /* \"#utility.yul\":10549:10550   */\n      dup3\n        /* \"#utility.yul\":10545:10554   */\n      mul\n        /* \"#utility.yul\":10574:10604   */\n      tag_238\n        /* \"#utility.yul\":10592:10603   */\n      dup2\n        /* \"#utility.yul\":10574:10604   */\n      tag_100\n      jump\t// in\n    tag_238:\n        /* \"#utility.yul\":10563:10604   */\n      swap2\n      pop\n        /* \"#utility.yul\":10753:10754   */\n      dup3\n        /* \"#utility.yul\":10744:10751   */\n      dup3\n        /* \"#utility.yul\":10740:10755   */\n      div\n        /* \"#utility.yul\":10737:10738   */\n      dup5\n        /* \"#utility.yul\":10734:10756   */\n      eq\n        /* \"#utility.yul\":10714:10715   */\n      dup4\n        /* \"#utility.yul\":10707:10716   */\n      iszero\n        /* \"#utility.yul\":10687:10770   */\n      or\n        /* \"#utility.yul\":10664:10803   */\n      tag_239\n      jumpi\n        /* \"#utility.yul\":10783:10801   */\n      tag_240\n      tag_129\n      jump\t// in\n    tag_240:\n        /* \"#utility.yul\":10664:10803   */\n    tag_239:\n        /* \"#utility.yul\":10448:10810   */\n      pop\n        /* \"#utility.yul\":10400:10810   */\n      swap3\n      swap2\n      pop\n      pop\n      jump\t// out\n        /* \"#utility.yul\":10816:10981   */\n    tag_130:\n        /* \"#utility.yul\":10956:10973   */\n      0x5472616e73666572206661696c65640000000000000000000000000000000000\n        /* \"#utility.yul\":10952:10953   */\n      0x00\n        /* \"#utility.yul\":10944:10950   */\n      dup3\n        /* \"#utility.yul\":10940:10954   */\n      add\n        /* \"#utility.yul\":10933:10974   */\n      mstore\n        /* \"#utility.yul\":10816:10981   */\n      pop\n      jump\t// out\n        /* \"#utility.yul\":10987:11353   */\n    tag_131:\n        /* \"#utility.yul\":11129:11132   */\n      0x00\n        /* \"#utility.yul\":11150:11217   */\n      tag_243\n        /* \"#utility.yul\":11214:11216   */\n      0x0f\n        /* \"#utility.yul\":11209:11212   */\n      dup4\n        /* \"#utility.yul\":11150:11217   */\n      tag_117\n      jump\t// in\n    tag_243:\n        /* \"#utility.yul\":11143:11217   */\n      swap2\n      pop\n        /* \"#utility.yul\":11226:11319   */\n      tag_244\n        /* \"#utility.yul\":11315:11318   */\n      dup3\n        /* \"#utility.yul\":11226:11319   */\n      tag_130\n      jump\t// in\n    tag_244:\n        /* \"#utility.yul\":11344:11346   */\n      0x20\n        /* \"#utility.yul\":11339:11342   */\n      dup3\n        /* \"#utility.yul\":11335:11347   */\n      add\n        /* \"#utility.yul\":11328:11347   */\n      swap1\n      pop\n        /* \"#utility.yul\":10987:11353   */\n      swap2\n      swap1\n      pop\n      jump\t// out\n        /* \"#utility.yul\":11359:11778   */\n    tag_83:\n        /* \"#utility.yul\":11525:11529   */\n      0x00\n        /* \"#utility.yul\":11563:11565   */\n      0x20\n        /* \"#utility.yul\":11552:11561   */\n      dup3\n        /* \"#utility.yul\":11548:11566   */\n      add\n        /* \"#utility.yul\":11540:11566   */\n      swap1\n      pop\n        /* \"#utility.yul\":11612:11621   */\n      dup2\n        /* \"#utility.yul\":11606:11610   */\n      dup2\n        /* \"#utility.yul\":11602:11622   */\n      sub\n        /* \"#utility.yul\":11598:11599   */\n      0x00\n        /* \"#utility.yul\":11587:11596   */\n      dup4\n        /* \"#utility.yul\":11583:11600   */\n      add\n        /* \"#utility.yul\":11576:11623   */\n      mstore\n        /* \"#utility.yul\":11640:11771   */\n      tag_246\n        /* \"#utility.yul\":11766:11770   */\n      dup2\n        /* \"#utility.yul\":11640:11771   */\n      tag_131\n      jump\t// in\n    tag_246:\n        /* \"#utility.yul\":11632:11771   */\n      swap1\n      pop\n        /* \"#utility.yul\":11359:11778   */\n      swap2\n      swap1\n      pop\n      jump\t// out\n        /* \"#utility.yul\":11784:12226   */\n    tag_85:\n        /* \"#utility.yul\":11933:11937   */\n      0x00\n        /* \"#utility.yul\":11971:11973   */\n      0x60\n        /* \"#utility.yul\":11960:11969   */\n      dup3\n        /* \"#utility.yul\":11956:11974   */\n      add\n        /* \"#utility.yul\":11948:11974   */\n      swap1\n      pop\n        /* \"#utility.yul\":11984:12055   */\n      tag_248\n        /* \"#utility.yul\":12052:12053   */\n      0x00\n        /* \"#utility.yul\":12041:12050   */\n      dup4\n        /* \"#utility.yul\":12037:12054   */\n      add\n        /* \"#utility.yul\":12028:12034   */\n      dup7\n        /* \"#utility.yul\":11984:12055   */\n      tag_101\n      jump\t// in\n    tag_248:\n        /* \"#utility.yul\":12065:12137   */\n      tag_249\n        /* \"#utility.yul\":12133:12135   */\n      0x20\n        /* \"#utility.yul\":12122:12131   */\n      dup4\n        /* \"#utility.yul\":12118:12136   */\n      add\n        /* \"#utility.yul\":12109:12115   */\n      dup6\n        /* \"#utility.yul\":12065:12137   */\n      tag_101\n      jump\t// in\n    tag_249:\n        /* \"#utility.yul\":12147:12219   */\n      tag_250\n        /* \"#utility.yul\":12215:12217   */\n      0x40\n        /* \"#utility.yul\":12204:12213   */\n      dup4\n        /* \"#utility.yul\":12200:12218   */\n      add\n        /* \"#utility.yul\":12191:12197   */\n      dup5\n        /* \"#utility.yul\":12147:12219   */\n      tag_101\n      jump\t// in\n    tag_250:\n        /* \"#utility.yul\":11784:12226   */\n      swap5\n      swap4\n      pop\n      pop\n      pop\n      pop\n      jump\t// out\n        /* \"#utility.yul\":12232:12396   */\n    tag_132:\n        /* \"#utility.yul\":12372:12388   */\n      0x4c6f616e206e6f74206578697374000000000000000000000000000000000000\n        /* \"#utility.yul\":12368:12369   */\n      0x00\n        /* \"#utility.yul\":12360:12366   */\n      dup3\n        /* \"#utility.yul\":12356:12370   */\n      add\n        /* \"#utility.yul\":12349:12389   */\n      mstore\n        /* \"#utility.yul\":12232:12396   */\n      pop\n      jump\t// out\n        /* \"#utility.yul\":12402:12768   */\n    tag_133:\n        /* \"#utility.yul\":12544:12547   */\n      0x00\n        /* \"#utility.yul\":12565:12632   */\n      tag_253\n        /* \"#utility.yul\":12629:12631   */\n      0x0e\n        /* \"#utility.yul\":12624:12627   */\n      dup4\n        /* \"#utility.yul\":12565:12632   */\n      tag_117\n      jump\t// in\n    tag_253:\n        /* \"#utility.yul\":12558:12632   */\n      swap2\n      pop\n        /* \"#utility.yul\":12641:12734   */\n      tag_254\n        /* \"#utility.yul\":12730:12733   */\n      dup3\n        /* \"#utility.yul\":12641:12734   */\n      tag_132\n      jump\t// in\n    tag_254:\n        /* \"#utility.yul\":12759:12761   */\n      0x20\n        /* \"#utility.yul\":12754:12757   */\n      dup3\n        /* \"#utility.yul\":12750:12762   */\n      add\n        /* \"#utility.yul\":12743:12762   */\n      swap1\n      pop\n        /* \"#utility.yul\":12402:12768   */\n      swap2\n      swap1\n      pop\n      jump\t// out\n        /* \"#utility.yul\":12774:13193   */\n    tag_89:\n        /* \"#utility.yul\":12940:12944   */\n      0x00\n        /* \"#utility.yul\":12978:12980   */\n      0x20\n        /* \"#utility.yul\":12967:12976   */\n      dup3\n        /* \"#utility.yul\":12963:12981   */\n      add\n        /* \"#utility.yul\":12955:12981   */\n      swap1\n      pop\n        /* \"#utility.yul\":13027:13036   */\n      dup2\n        /* \"#utility.yul\":13021:13025   */\n      dup2\n        /* \"#utility.yul\":13017:13037   */\n      sub\n        /* \"#utility.yul\":13013:13014   */\n      0x00\n        /* \"#utility.yul\":13002:13011   */\n      dup4\n        /* \"#utility.yul\":12998:13015   */\n      add\n        /* \"#utility.yul\":12991:13038   */\n      mstore\n        /* \"#utility.yul\":13055:13186   */\n      tag_256\n        /* \"#utility.yul\":13181:13185   */\n      dup2\n        /* \"#utility.yul\":13055:13186   */\n      tag_133\n      jump\t// in\n    tag_256:\n        /* \"#utility.yul\":13047:13186   */\n      swap1\n      pop\n        /* \"#utility.yul\":12774:13193   */\n      swap2\n      swap1\n      pop\n      jump\t// out\n        /* \"#utility.yul\":13199:13363   */\n    tag_134:\n        /* \"#utility.yul\":13339:13355   */\n      0x416c726561647920726570616964000000000000000000000000000000000000\n        /* \"#utility.yul\":13335:13336   */\n      0x00\n        /* \"#utility.yul\":13327:13333   */\n      dup3\n        /* \"#utility.yul\":13323:13337   */\n      add\n        /* \"#utility.yul\":13316:13356   */\n      mstore\n        /* \"#utility.yul\":13199:13363   */\n      pop\n      jump\t// out\n        /* \"#utility.yul\":13369:13735   */\n    tag_135:\n        /* \"#utility.yul\":13511:13514   */\n      0x00\n        /* \"#utility.yul\":13532:13599   */\n      tag_259\n        /* \"#utility.yul\":13596:13598   */\n      0x0e\n        /* \"#utility.yul\":13591:13594   */\n      dup4\n        /* \"#utility.yul\":13532:13599   */\n      tag_117\n      jump\t// in\n    tag_259:\n        /* \"#utility.yul\":13525:13599   */\n      swap2\n      pop\n        /* \"#utility.yul\":13608:13701   */\n      tag_260\n        /* \"#utility.yul\":13697:13700   */\n      dup3\n        /* \"#utility.yul\":13608:13701   */\n      tag_134\n      jump\t// in\n    tag_260:\n        /* \"#utility.yul\":13726:13728   */\n      0x20\n        /* \"#utility.yul\":13721:13724   */\n      dup3\n        /* \"#utility.yul\":13717:13729   */\n      add\n        /* \"#utility.yul\":13710:13729   */\n      swap1\n      pop\n        /* \"#utility.yul\":13369:13735   */\n      swap2\n      swap1\n      pop\n      jump\t// out\n        /* \"#utility.yul\":13741:14160   */\n    tag_92:\n        /* \"#utility.yul\":13907:13911   */\n      0x00\n        /* \"#utility.yul\":13945:13947   */\n      0x20\n        /* \"#utility.yul\":13934:13943   */\n      dup3\n        /* \"#utility.yul\":13930:13948   */\n      add\n        /* \"#utility.yul\":13922:13948   */\n      swap1\n      pop\n        /* \"#utility.yul\":13994:14003   */\n      dup2\n        /* \"#utility.yul\":13988:13992   */\n      dup2\n        /* \"#utility.yul\":13984:14004   */\n      sub\n        /* \"#utility.yul\":13980:13981   */\n      0x00\n        /* \"#utility.yul\":13969:13978   */\n      dup4\n        /* \"#utility.yul\":13965:13982   */\n      add\n        /* \"#utility.yul\":13958:14005   */\n      mstore\n        /* \"#utility.yul\":14022:14153   */\n      tag_262\n        /* \"#utility.yul\":14148:14152   */\n      dup2\n        /* \"#utility.yul\":14022:14153   */\n      tag_135\n      jump\t// in\n    tag_262:\n        /* \"#utility.yul\":14014:14153   */\n      swap1\n      pop\n        /* \"#utility.yul\":13741:14160   */\n      swap2\n      swap1\n      pop\n      jump\t// out\n        /* \"#utility.yul\":14166:14338   */\n    tag_136:\n        /* \"#utility.yul\":14306:14330   */\n      0x496e73756666696369656e742072657061796d656e7400000000000000000000\n        /* \"#utility.yul\":14302:14303   */\n      0x00\n        /* \"#utility.yul\":14294:14300   */\n      dup3\n        /* \"#utility.yul\":14290:14304   */\n      add\n        /* \"#utility.yul\":14283:14331   */\n      mstore\n        /* \"#utility.yul\":14166:14338   */\n      pop\n      jump\t// out\n        /* \"#utility.yul\":14344:14710   */\n    tag_137:\n        /* \"#utility.yul\":14486:14489   */\n      0x00\n        /* \"#utility.yul\":14507:14574   */\n      tag_265\n        /* \"#utility.yul\":14571:14573   */\n      0x16\n        /* \"#utility.yul\":14566:14569   */\n      dup4\n        /* \"#utility.yul\":14507:14574   */\n      tag_117\n      jump\t// in\n    tag_265:\n        /* \"#utility.yul\":14500:14574   */\n      swap2\n      pop\n        /* \"#utility.yul\":14583:14676   */\n      tag_266\n        /* \"#utility.yul\":14672:14675   */\n      dup3\n        /* \"#utility.yul\":14583:14676   */\n      tag_136\n      jump\t// in\n    tag_266:\n        /* \"#utility.yul\":14701:14703   */\n      0x20\n        /* \"#utility.yul\":14696:14699   */\n      dup3\n        /* \"#utility.yul\":14692:14704   */\n      add\n        /* \"#utility.yul\":14685:14704   */\n      swap1\n      pop\n        /* \"#utility.yul\":14344:14710   */\n      swap2\n      swap1\n      pop\n      jump\t// out\n        /* \"#utility.yul\":14716:15135   */\n    tag_96:\n        /* \"#utility.yul\":14882:14886   */\n      0x00\n        /* \"#utility.yul\":14920:14922   */\n      0x20\n        /* \"#utility.yul\":14909:14918   */\n      dup3\n        /* \"#utility.yul\":14905:14923   */\n      add\n        /* \"#utility.yul\":14897:14923   */\n      swap1\n      pop\n        /* \"#utility.yul\":14969:14978   */\n      dup2\n        /* \"#utility.yul\":14963:14967   */\n      dup2\n        /* \"#utility.yul\":14959:14979   */\n      sub\n        /* \"#utility.yul\":14955:14956   */\n      0x00\n        /* \"#utility.yul\":14944:14953   */\n      dup4\n        /* \"#utility.yul\":14940:14957   */\n      add\n        /* \"#utility.yul\":14933:14980   */\n      mstore\n        /* \"#utility.yul\":14997:15128   */\n      tag_268\n        /* \"#utility.yul\":15123:15127   */\n      dup2\n        /* \"#utility.yul\":14997:15128   */\n      tag_137\n      jump\t// in\n    tag_268:\n        /* \"#utility.yul\":14989:15128   */\n      swap1\n      pop\n        /* \"#utility.yul\":14716:15135   */\n      swap2\n      swap1\n      pop\n      jump\t// out\n\n    auxdata: 0xa26469706673582212204c639b75f87b8e64ec9d3796035111727a58a4da88f17627bf35a48c8168ec0c64736f6c634300081e0033\n}\n",
				"bytecode": {
					"linkReferences": {},
					"object": "6080604052348015600e575f5ffd5b50335f5f6101000a81548173ffffffffffffffffffffffffffffffffffffffff021916908373ffffffffffffffffffffffffffffffffffffffff1602179055505f600181905550610fd4806100625f395ff3fe608060405260043610610073575f3560e01c8063ab7b1c891161004d578063ab7b1c89146100f8578063e1ec3c6814610114578063e3ed190214610155578063f851a440146101915761007a565b806334d9289e1461007e5780637c5b4a37146100a85780639e8101c6146100d05761007a565b3661007a57005b5f5ffd5b348015610089575f5ffd5b506100926101bb565b60405161009f91906108ed565b60405180910390f35b3480156100b3575f5ffd5b506100ce60048036038101906100c99190610934565b6101c1565b005b3480156100db575f5ffd5b506100f660048036038101906100f191906109b9565b61035e565b005b610112600480360381019061010d9190610934565b6106b4565b005b34801561011f575f5ffd5b5061013a60048036038101906101359190610934565b610823565b60405161014c96959493929190610a57565b60405180910390f35b348015610160575f5ffd5b5061017b60048036038101906101769190610ae0565b610886565b60405161018891906108ed565b60405180910390f35b34801561019c575f5ffd5b506101a56108b1565b6040516101b29190610b1e565b60405180910390f35b60015481565b5f5f9054906101000a900473ffffffffffffffffffffffffffffffffffffffff1673ffffffffffffffffffffffffffffffffffffffff163373ffffffffffffffffffffffffffffffffffffffff161461024f576040517f08c379a000000000000000000000000000000000000000000000000000000000815260040161024690610b91565b60405180910390fd5b80471015610292576040517f08c379a000000000000000000000000000000000000000000000000000000000815260040161028990610bf9565b60405180910390fd5b5f5f5f9054906101000a900473ffffffffffffffffffffffffffffffffffffffff1673ffffffffffffffffffffffffffffffffffffffff16826040516102d790610c44565b5f6040518083038185875af1925050503d805f8114610311576040519150601f19603f3d011682016040523d82523d5f602084013e610316565b606091505b505090508061035a576040517f08c379a000000000000000000000000000000000000000000000000000000000815260040161035190610ca2565b60405180910390fd5b5050565b5f5f9054906101000a900473ffffffffffffffffffffffffffffffffffffffff1673ffffffffffffffffffffffffffffffffffffffff163373ffffffffffffffffffffffffffffffffffffffff16146103ec576040517f08c379a00000000000000000000000000000000000000000000000000000000081526004016103e390610b91565b60405180910390fd5b8247101561042f576040517f08c379a000000000000000000000000000000000000000000000000000000000815260040161042690610d0a565b60405180910390fd5b6001805f8282546104409190610d55565b925050819055505f62015180826104579190610d88565b426104629190610d55565b90506040518060c0016040528060015481526020018673ffffffffffffffffffffffffffffffffffffffff1681526020018581526020018481526020018281526020015f151581525060025f60015481526020019081526020015f205f820151815f01556020820151816001015f6101000a81548173ffffffffffffffffffffffffffffffffffffffff021916908373ffffffffffffffffffffffffffffffffffffffff16021790555060408201518160020155606082015181600301556080820151816004015560a0820151816005015f6101000a81548160ff02191690831515021790555090505060035f8673ffffffffffffffffffffffffffffffffffffffff1673ffffffffffffffffffffffffffffffffffffffff1681526020019081526020015f20600154908060018154018082558091505060019003905f5260205f20015f90919091909150555f8573ffffffffffffffffffffffffffffffffffffffff16856040516105d490610c44565b5f6040518083038185875af1925050503d805f811461060e576040519150601f19603f3d011682016040523d82523d5f602084013e610613565b606091505b5050905080610657576040517f08c379a000000000000000000000000000000000000000000000000000000000815260040161064e90610e13565b60405180910390fd5b8573ffffffffffffffffffffffffffffffffffffffff166001547fb2cca1719ad611d325136b9c9a4357f412d33694d93c60d4c1b6e922d524cf598787866040516106a493929190610e31565b60405180910390a3505050505050565b5f60025f8381526020019081526020015f2090505f815f01540361070d576040517f08c379a000000000000000000000000000000000000000000000000000000000815260040161070490610eb0565b60405180910390fd5b806005015f9054906101000a900460ff161561075e576040517f08c379a000000000000000000000000000000000000000000000000000000000815260040161075590610f18565b60405180910390fd5b806003015481600201546107729190610d55565b3410156107b4576040517f08c379a00000000000000000000000000000000000000000000000000000000081526004016107ab90610f80565b60405180910390fd5b6001816005015f6101000a81548160ff0219169083151502179055503373ffffffffffffffffffffffffffffffffffffffff16827f512d3e65b3e58c2187bb1872aa435dba5bd09c1c03823ba56ab70aac411e4a213460405161081791906108ed565b60405180910390a35050565b6002602052805f5260405f205f91509050805f015490806001015f9054906101000a900473ffffffffffffffffffffffffffffffffffffffff1690806002015490806003015490806004015490806005015f9054906101000a900460ff16905086565b6003602052815f5260405f20818154811061089f575f80fd5b905f5260205f20015f91509150505481565b5f5f9054906101000a900473ffffffffffffffffffffffffffffffffffffffff1681565b5f819050919050565b6108e7816108d5565b82525050565b5f6020820190506109005f8301846108de565b92915050565b5f5ffd5b610913816108d5565b811461091d575f5ffd5b50565b5f8135905061092e8161090a565b92915050565b5f6020828403121561094957610948610906565b5b5f61095684828501610920565b91505092915050565b5f73ffffffffffffffffffffffffffffffffffffffff82169050919050565b5f6109888261095f565b9050919050565b6109988161097e565b81146109a2575f5ffd5b50565b5f813590506109b38161098f565b92915050565b5f5f5f5f608085870312156109d1576109d0610906565b5b5f6109de878288016109a5565b94505060206109ef87828801610920565b9350506040610a0087828801610920565b9250506060610a1187828801610920565b91505092959194509250565b5f610a278261095f565b9050919050565b610a3781610a1d565b82525050565b5f8115159050919050565b610a5181610a3d565b82525050565b5f60c082019050610a6a5f8301896108de565b610a776020830188610a2e565b610a8460408301876108de565b610a9160608301866108de565b610a9e60808301856108de565b610aab60a0830184610a48565b979650505050505050565b610abf81610a1d565b8114610ac9575f5ffd5b50565b5f81359050610ada81610ab6565b92915050565b5f5f60408385031215610af657610af5610906565b5b5f610b0385828601610acc565b9250506020610b1485828601610920565b9150509250929050565b5f602082019050610b315f830184610a2e565b92915050565b5f82825260208201905092915050565b7f4f6e6c792061646d696e000000000000000000000000000000000000000000005f82015250565b5f610b7b600a83610b37565b9150610b8682610b47565b602082019050919050565b5f6020820190508181035f830152610ba881610b6f565b9050919050565b7f496e73756666696369656e742062616c616e63650000000000000000000000005f82015250565b5f610be3601483610b37565b9150610bee82610baf565b602082019050919050565b5f6020820190508181035f830152610c1081610bd7565b9050919050565b5f81905092915050565b50565b5f610c2f5f83610c17565b9150610c3a82610c21565b5f82019050919050565b5f610c4e82610c24565b9150819050919050565b7f5769746864726177206661696c656400000000000000000000000000000000005f82015250565b5f610c8c600f83610b37565b9150610c9782610c58565b602082019050919050565b5f6020820190508181035f830152610cb981610c80565b9050919050565b7f496e73756666696369656e7420706f6f6c2062616c616e6365000000000000005f82015250565b5f610cf4601983610b37565b9150610cff82610cc0565b602082019050919050565b5f6020820190508181035f830152610d2181610ce8565b9050919050565b7f4e487b71000000000000000000000000000000000000000000000000000000005f52601160045260245ffd5b5f610d5f826108d5565b9150610d6a836108d5565b9250828201905080821115610d8257610d81610d28565b5b92915050565b5f610d92826108d5565b9150610d9d836108d5565b9250828202610dab816108d5565b91508282048414831517610dc257610dc1610d28565b5b5092915050565b7f5472616e73666572206661696c656400000000000000000000000000000000005f82015250565b5f610dfd600f83610b37565b9150610e0882610dc9565b602082019050919050565b5f6020820190508181035f830152610e2a81610df1565b9050919050565b5f606082019050610e445f8301866108de565b610e5160208301856108de565b610e5e60408301846108de565b949350505050565b7f4c6f616e206e6f742065786973740000000000000000000000000000000000005f82015250565b5f610e9a600e83610b37565b9150610ea582610e66565b602082019050919050565b5f6020820190508181035f830152610ec781610e8e565b9050919050565b7f416c7265616479207265706169640000000000000000000000000000000000005f82015250565b5f610f02600e83610b37565b9150610f0d82610ece565b602082019050919050565b5f6020820190508181035f830152610f2f81610ef6565b9050919050565b7f496e73756666696369656e742072657061796d656e74000000000000000000005f82015250565b5f610f6a601683610b37565b9150610f7582610f36565b602082019050919050565b5f6020820190508181035f830152610f9781610f5e565b905091905056fea26469706673582212204c639b75f87b8e64ec9d3796035111727a58a4da88f17627bf35a48c8168ec0c64736f6c634300081e0033",
					"opcodes": "PUSH1 0x80 PUSH1 0x40 MSTORE CALLVALUE DUP1 ISZERO PUSH1 0xE JUMPI PUSH0 PUSH0 REVERT JUMPDEST POP CALLER PUSH0 PUSH0 PUSH2 0x100 EXP DUP2 SLOAD DUP2 PUSH20 0xFFFFFFFFFFFFFFFFFFFFFFFFFFFFFFFFFFFFFFFF MUL NOT AND SWAP1 DUP4 PUSH20 0xFFFFFFFFFFFFFFFFFFFFFFFFFFFFFFFFFFFFFFFF AND MUL OR SWAP1 SSTORE POP PUSH0 PUSH1 0x1 DUP2 SWAP1 SSTORE POP PUSH2 0xFD4 DUP1 PUSH2 0x62 PUSH0 CODECOPY PUSH0 RETURN INVALID PUSH1 0x80 PUSH1 0x40 MSTORE PUSH1 0x4 CALLDATASIZE LT PUSH2 0x73 JUMPI PUSH0 CALLDATALOAD PUSH1 0xE0 SHR DUP1 PUSH4 0xAB7B1C89 GT PUSH2 0x4D JUMPI DUP1 PUSH4 0xAB7B1C89 EQ PUSH2 0xF8 JUMPI DUP1 PUSH4 0xE1EC3C68 EQ PUSH2 0x114 JUMPI DUP1 PUSH4 0xE3ED1902 EQ PUSH2 0x155 JUMPI DUP1 PUSH4 0xF851A440 EQ PUSH2 0x191 JUMPI PUSH2 0x7A JUMP JUMPDEST DUP1 PUSH4 0x34D9289E EQ PUSH2 0x7E JUMPI DUP1 PUSH4 0x7C5B4A37 EQ PUSH2 0xA8 JUMPI DUP1 PUSH4 0x9E8101C6 EQ PUSH2 0xD0 JUMPI PUSH2 0x7A JUMP JUMPDEST CALLDATASIZE PUSH2 0x7A JUMPI STOP JUMPDEST PUSH0 PUSH0 REVERT JUMPDEST CALLVALUE DUP1 ISZERO PUSH2 0x89 JUMPI PUSH0 PUSH0 REVERT JUMPDEST POP PUSH2 0x92 PUSH2 0x1BB JUMP JUMPDEST PUSH1 0x40 MLOAD PUSH2 0x9F SWAP2 SWAP1 PUSH2 0x8ED JUMP JUMPDEST PUSH1 0x40 MLOAD DUP1 SWAP2 SUB SWAP1 RETURN JUMPDEST CALLVALUE DUP1 ISZERO PUSH2 0xB3 JUMPI PUSH0 PUSH0 REVERT JUMPDEST POP PUSH2 0xCE PUSH1 0x4 DUP1 CALLDATASIZE SUB DUP2 ADD SWAP1 PUSH2 0xC9 SWAP2 SWAP1 PUSH2 0x934 JUMP JUMPDEST PUSH2 0x1C1 JUMP JUMPDEST STOP JUMPDEST CALLVALUE DUP1 ISZERO PUSH2 0xDB JUMPI PUSH0 PUSH0 REVERT JUMPDEST POP PUSH2 0xF6 PUSH1 0x4 DUP1 CALLDATASIZE SUB DUP2 ADD SWAP1 PUSH2 0xF1 SWAP2 SWAP1 PUSH2 0x9B9 JUMP JUMPDEST PUSH2 0x35E JUMP JUMPDEST STOP JUMPDEST PUSH2 0x112 PUSH1 0x4 DUP1 CALLDATASIZE SUB DUP2 ADD SWAP1 PUSH2 0x10D SWAP2 SWAP1 PUSH2 0x934 JUMP JUMPDEST PUSH2 0x6B4 JUMP JUMPDEST STOP JUMPDEST CALLVALUE DUP1 ISZERO PUSH2 0x11F JUMPI PUSH0 PUSH0 REVERT JUMPDEST POP PUSH2 0x13A PUSH1 0x4 DUP1 CALLDATASIZE SUB DUP2 ADD SWAP1 PUSH2 0x135 SWAP2 SWAP1 PUSH2 0x934 JUMP JUMPDEST PUSH2 0x823 JUMP JUMPDEST PUSH1 0x40 MLOAD PUSH2 0x14C SWAP7 SWAP6 SWAP5 SWAP4 SWAP3 SWAP2 SWAP1 PUSH2 0xA57 JUMP JUMPDEST PUSH1 0x40 MLOAD DUP1 SWAP2 SUB SWAP1 RETURN JUMPDEST CALLVALUE DUP1 ISZERO PUSH2 0x160 JUMPI PUSH0 PUSH0 REVERT JUMPDEST POP PUSH2 0x17B PUSH1 0x4 DUP1 CALLDATASIZE SUB DUP2 ADD SWAP1 PUSH2 0x176 SWAP2 SWAP1 PUSH2 0xAE0 JUMP JUMPDEST PUSH2 0x886 JUMP JUMPDEST PUSH1 0x40 MLOAD PUSH2 0x188 SWAP2 SWAP1 PUSH2 0x8ED JUMP JUMPDEST PUSH1 0x40 MLOAD DUP1 SWAP2 SUB SWAP1 RETURN JUMPDEST CALLVALUE DUP1 ISZERO PUSH2 0x19C JUMPI PUSH0 PUSH0 REVERT JUMPDEST POP PUSH2 0x1A5 PUSH2 0x8B1 JUMP JUMPDEST PUSH1 0x40 MLOAD PUSH2 0x1B2 SWAP2 SWAP1 PUSH2 0xB1E JUMP JUMPDEST PUSH1 0x40 MLOAD DUP1 SWAP2 SUB SWAP1 RETURN JUMPDEST PUSH1 0x1 SLOAD DUP2 JUMP JUMPDEST PUSH0 PUSH0 SWAP1 SLOAD SWAP1 PUSH2 0x100 EXP SWAP1 DIV PUSH20 0xFFFFFFFFFFFFFFFFFFFFFFFFFFFFFFFFFFFFFFFF AND PUSH20 0xFFFFFFFFFFFFFFFFFFFFFFFFFFFFFFFFFFFFFFFF AND CALLER PUSH20 0xFFFFFFFFFFFFFFFFFFFFFFFFFFFFFFFFFFFFFFFF AND EQ PUSH2 0x24F JUMPI PUSH1 0x40 MLOAD PUSH32 0x8C379A000000000000000000000000000000000000000000000000000000000 DUP2 MSTORE PUSH1 0x4 ADD PUSH2 0x246 SWAP1 PUSH2 0xB91 JUMP JUMPDEST PUSH1 0x40 MLOAD DUP1 SWAP2 SUB SWAP1 REVERT JUMPDEST DUP1 SELFBALANCE LT ISZERO PUSH2 0x292 JUMPI PUSH1 0x40 MLOAD PUSH32 0x8C379A000000000000000000000000000000000000000000000000000000000 DUP2 MSTORE PUSH1 0x4 ADD PUSH2 0x289 SWAP1 PUSH2 0xBF9 JUMP JUMPDEST PUSH1 0x40 MLOAD DUP1 SWAP2 SUB SWAP1 REVERT JUMPDEST PUSH0 PUSH0 PUSH0 SWAP1 SLOAD SWAP1 PUSH2 0x100 EXP SWAP1 DIV PUSH20 0xFFFFFFFFFFFFFFFFFFFFFFFFFFFFFFFFFFFFFFFF AND PUSH20 0xFFFFFFFFFFFFFFFFFFFFFFFFFFFFFFFFFFFFFFFF AND DUP3 PUSH1 0x40 MLOAD PUSH2 0x2D7 SWAP1 PUSH2 0xC44 JUMP JUMPDEST PUSH0 PUSH1 0x40 MLOAD DUP1 DUP4 SUB DUP2 DUP6 DUP8 GAS CALL SWAP3 POP POP POP RETURNDATASIZE DUP1 PUSH0 DUP2 EQ PUSH2 0x311 JUMPI PUSH1 0x40 MLOAD SWAP2 POP PUSH1 0x1F NOT PUSH1 0x3F RETURNDATASIZE ADD AND DUP3 ADD PUSH1 0x40 MSTORE RETURNDATASIZE DUP3 MSTORE RETURNDATASIZE PUSH0 PUSH1 0x20 DUP5 ADD RETURNDATACOPY PUSH2 0x316 JUMP JUMPDEST PUSH1 0x60 SWAP2 POP JUMPDEST POP POP SWAP1 POP DUP1 PUSH2 0x35A JUMPI PUSH1 0x40 MLOAD PUSH32 0x8C379A000000000000000000000000000000000000000000000000000000000 DUP2 MSTORE PUSH1 0x4 ADD PUSH2 0x351 SWAP1 PUSH2 0xCA2 JUMP JUMPDEST PUSH1 0x40 MLOAD DUP1 SWAP2 SUB SWAP1 REVERT JUMPDEST POP POP JUMP JUMPDEST PUSH0 PUSH0 SWAP1 SLOAD SWAP1 PUSH2 0x100 EXP SWAP1 DIV PUSH20 0xFFFFFFFFFFFFFFFFFFFFFFFFFFFFFFFFFFFFFFFF AND PUSH20 0xFFFFFFFFFFFFFFFFFFFFFFFFFFFFFFFFFFFFFFFF AND CALLER PUSH20 0xFFFFFFFFFFFFFFFFFFFFFFFFFFFFFFFFFFFFFFFF AND EQ PUSH2 0x3EC JUMPI PUSH1 0x40 MLOAD PUSH32 0x8C379A000000000000000000000000000000000000000000000000000000000 DUP2 MSTORE PUSH1 0x4 ADD PUSH2 0x3E3 SWAP1 PUSH2 0xB91 JUMP JUMPDEST PUSH1 0x40 MLOAD DUP1 SWAP2 SUB SWAP1 REVERT JUMPDEST DUP3 SELFBALANCE LT ISZERO PUSH2 0x42F JUMPI PUSH1 0x40 MLOAD PUSH32 0x8C379A000000000000000000000000000000000000000000000000000000000 DUP2 MSTORE PUSH1 0x4 ADD PUSH2 0x426 SWAP1 PUSH2 0xD0A JUMP JUMPDEST PUSH1 0x40 MLOAD DUP1 SWAP2 SUB SWAP1 REVERT JUMPDEST PUSH1 0x1 DUP1 PUSH0 DUP3 DUP3 SLOAD PUSH2 0x440 SWAP2 SWAP1 PUSH2 0xD55 JUMP JUMPDEST SWAP3 POP POP DUP2 SWAP1 SSTORE POP PUSH0 PUSH3 0x15180 DUP3 PUSH2 0x457 SWAP2 SWAP1 PUSH2 0xD88 JUMP JUMPDEST TIMESTAMP PUSH2 0x462 SWAP2 SWAP1 PUSH2 0xD55 JUMP JUMPDEST SWAP1 POP PUSH1 0x40 MLOAD DUP1 PUSH1 0xC0 ADD PUSH1 0x40 MSTORE DUP1 PUSH1 0x1 SLOAD DUP2 MSTORE PUSH1 0x20 ADD DUP7 PUSH20 0xFFFFFFFFFFFFFFFFFFFFFFFFFFFFFFFFFFFFFFFF AND DUP2 MSTORE PUSH1 0x20 ADD DUP6 DUP2 MSTORE PUSH1 0x20 ADD DUP5 DUP2 MSTORE PUSH1 0x20 ADD DUP3 DUP2 MSTORE PUSH1 0x20 ADD PUSH0 ISZERO ISZERO DUP2 MSTORE POP PUSH1 0x2 PUSH0 PUSH1 0x1 SLOAD DUP2 MSTORE PUSH1 0x20 ADD SWAP1 DUP2 MSTORE PUSH1 0x20 ADD PUSH0 KECCAK256 PUSH0 DUP3 ADD MLOAD DUP2 PUSH0 ADD SSTORE PUSH1 0x20 DUP3 ADD MLOAD DUP2 PUSH1 0x1 ADD PUSH0 PUSH2 0x100 EXP DUP2 SLOAD DUP2 PUSH20 0xFFFFFFFFFFFFFFFFFFFFFFFFFFFFFFFFFFFFFFFF MUL NOT AND SWAP1 DUP4 PUSH20 0xFFFFFFFFFFFFFFFFFFFFFFFFFFFFFFFFFFFFFFFF AND MUL OR SWAP1 SSTORE POP PUSH1 0x40 DUP3 ADD MLOAD DUP2 PUSH1 0x2 ADD SSTORE PUSH1 0x60 DUP3 ADD MLOAD DUP2 PUSH1 0x3 ADD SSTORE PUSH1 0x80 DUP3 ADD MLOAD DUP2 PUSH1 0x4 ADD SSTORE PUSH1 0xA0 DUP3 ADD MLOAD DUP2 PUSH1 0x5 ADD PUSH0 PUSH2 0x100 EXP DUP2 SLOAD DUP2 PUSH1 0xFF MUL NOT AND SWAP1 DUP4 ISZERO ISZERO MUL OR SWAP1 SSTORE POP SWAP1 POP POP PUSH1 0x3 PUSH0 DUP7 PUSH20 0xFFFFFFFFFFFFFFFFFFFFFFFFFFFFFFFFFFFFFFFF AND PUSH20 0xFFFFFFFFFFFFFFFFFFFFFFFFFFFFFFFFFFFFFFFF AND DUP2 MSTORE PUSH1 0x20 ADD SWAP1 DUP2 MSTORE PUSH1 0x20 ADD PUSH0 KECCAK256 PUSH1 0x1 SLOAD SWAP1 DUP1 PUSH1 0x1 DUP2 SLOAD ADD DUP1 DUP3 SSTORE DUP1 SWAP2 POP POP PUSH1 0x1 SWAP1 SUB SWAP1 PUSH0 MSTORE PUSH1 0x20 PUSH0 KECCAK256 ADD PUSH0 SWAP1 SWAP2 SWAP1 SWAP2 SWAP1 SWAP2 POP SSTORE PUSH0 DUP6 PUSH20 0xFFFFFFFFFFFFFFFFFFFFFFFFFFFFFFFFFFFFFFFF AND DUP6 PUSH1 0x40 MLOAD PUSH2 0x5D4 SWAP1 PUSH2 0xC44 JUMP JUMPDEST PUSH0 PUSH1 0x40 MLOAD DUP1 DUP4 SUB DUP2 DUP6 DUP8 GAS CALL SWAP3 POP POP POP RETURNDATASIZE DUP1 PUSH0 DUP2 EQ PUSH2 0x60E JUMPI PUSH1 0x40 MLOAD SWAP2 POP PUSH1 0x1F NOT PUSH1 0x3F RETURNDATASIZE ADD AND DUP3 ADD PUSH1 0x40 MSTORE RETURNDATASIZE DUP3 MSTORE RETURNDATASIZE PUSH0 PUSH1 0x20 DUP5 ADD RETURNDATACOPY PUSH2 0x613 JUMP JUMPDEST PUSH1 0x60 SWAP2 POP JUMPDEST POP POP SWAP1 POP DUP1 PUSH2 0x657 JUMPI PUSH1 0x40 MLOAD PUSH32 0x8C379A000000000000000000000000000000000000000000000000000000000 DUP2 MSTORE PUSH1 0x4 ADD PUSH2 0x64E SWAP1 PUSH2 0xE13 JUMP JUMPDEST PUSH1 0x40 MLOAD DUP1 SWAP2 SUB SWAP1 REVERT JUMPDEST DUP6 PUSH20 0xFFFFFFFFFFFFFFFFFFFFFFFFFFFFFFFFFFFFFFFF AND PUSH1 0x1 SLOAD PUSH32 0xB2CCA1719AD611D325136B9C9A4357F412D33694D93C60D4C1B6E922D524CF59 DUP8 DUP8 DUP7 PUSH1 0x40 MLOAD PUSH2 0x6A4 SWAP4 SWAP3 SWAP2 SWAP1 PUSH2 0xE31 JUMP JUMPDEST PUSH1 0x40 MLOAD DUP1 SWAP2 SUB SWAP1 LOG3 POP POP POP POP POP POP JUMP JUMPDEST PUSH0 PUSH1 0x2 PUSH0 DUP4 DUP2 MSTORE PUSH1 0x20 ADD SWAP1 DUP2 MSTORE PUSH1 0x20 ADD PUSH0 KECCAK256 SWAP1 POP PUSH0 DUP2 PUSH0 ADD SLOAD SUB PUSH2 0x70D JUMPI PUSH1 0x40 MLOAD PUSH32 0x8C379A000000000000000000000000000000000000000000000000000000000 DUP2 MSTORE PUSH1 0x4 ADD PUSH2 0x704 SWAP1 PUSH2 0xEB0 JUMP JUMPDEST PUSH1 0x40 MLOAD DUP1 SWAP2 SUB SWAP1 REVERT JUMPDEST DUP1 PUSH1 0x5 ADD PUSH0 SWAP1 SLOAD SWAP1 PUSH2 0x100 EXP SWAP1 DIV PUSH1 0xFF AND ISZERO PUSH2 0x75E JUMPI PUSH1 0x40 MLOAD PUSH32 0x8C379A000000000000000000000000000000000000000000000000000000000 DUP2 MSTORE PUSH1 0x4 ADD PUSH2 0x755 SWAP1 PUSH2 0xF18 JUMP JUMPDEST PUSH1 0x40 MLOAD DUP1 SWAP2 SUB SWAP1 REVERT JUMPDEST DUP1 PUSH1 0x3 ADD SLOAD DUP2 PUSH1 0x2 ADD SLOAD PUSH2 0x772 SWAP2 SWAP1 PUSH2 0xD55 JUMP JUMPDEST CALLVALUE LT ISZERO PUSH2 0x7B4 JUMPI PUSH1 0x40 MLOAD PUSH32 0x8C379A000000000000000000000000000000000000000000000000000000000 DUP2 MSTORE PUSH1 0x4 ADD PUSH2 0x7AB SWAP1 PUSH2 0xF80 JUMP JUMPDEST PUSH1 0x40 MLOAD DUP1 SWAP2 SUB SWAP1 REVERT JUMPDEST PUSH1 0x1 DUP2 PUSH1 0x5 ADD PUSH0 PUSH2 0x100 EXP DUP2 SLOAD DUP2 PUSH1 0xFF MUL NOT AND SWAP1 DUP4 ISZERO ISZERO MUL OR SWAP1 SSTORE POP CALLER PUSH20 0xFFFFFFFFFFFFFFFFFFFFFFFFFFFFFFFFFFFFFFFF AND DUP3 PUSH32 0x512D3E65B3E58C2187BB1872AA435DBA5BD09C1C03823BA56AB70AAC411E4A21 CALLVALUE PUSH1 0x40 MLOAD PUSH2 0x817 SWAP2 SWAP1 PUSH2 0x8ED JUMP JUMPDEST PUSH1 0x40 MLOAD DUP1 SWAP2 SUB SWAP1 LOG3 POP POP JUMP JUMPDEST PUSH1 0x2 PUSH1 0x20 MSTORE DUP1 PUSH0 MSTORE PUSH1 0x40 PUSH0 KECCAK256 PUSH0 SWAP2 POP SWAP1 POP DUP1 PUSH0 ADD SLOAD SWAP1 DUP1 PUSH1 0x1 ADD PUSH0 SWAP1 SLOAD SWAP1 PUSH2 0x100 EXP SWAP1 DIV PUSH20 0xFFFFFFFFFFFFFFFFFFFFFFFFFFFFFFFFFFFFFFFF AND SWAP1 DUP1 PUSH1 0x2 ADD SLOAD SWAP1 DUP1 PUSH1 0x3 ADD SLOAD SWAP1 DUP1 PUSH1 0x4 ADD SLOAD SWAP1 DUP1 PUSH1 0x5 ADD PUSH0 SWAP1 SLOAD SWAP1 PUSH2 0x100 EXP SWAP1 DIV PUSH1 0xFF AND SWAP1 POP DUP7 JUMP JUMPDEST PUSH1 0x3 PUSH1 0x20 MSTORE DUP2 PUSH0 MSTORE PUSH1 0x40 PUSH0 KECCAK256 DUP2 DUP2 SLOAD DUP2 LT PUSH2 0x89F JUMPI PUSH0 DUP1 REVERT JUMPDEST SWAP1 PUSH0 MSTORE PUSH1 0x20 PUSH0 KECCAK256 ADD PUSH0 SWAP2 POP SWAP2 POP POP SLOAD DUP2 JUMP JUMPDEST PUSH0 PUSH0 SWAP1 SLOAD SWAP1 PUSH2 0x100 EXP SWAP1 DIV PUSH20 0xFFFFFFFFFFFFFFFFFFFFFFFFFFFFFFFFFFFFFFFF AND DUP2 JUMP JUMPDEST PUSH0 DUP2 SWAP1 POP SWAP2 SWAP1 POP JUMP JUMPDEST PUSH2 0x8E7 DUP2 PUSH2 0x8D5 JUMP JUMPDEST DUP3 MSTORE POP POP JUMP JUMPDEST PUSH0 PUSH1 0x20 DUP3 ADD SWAP1 POP PUSH2 0x900 PUSH0 DUP4 ADD DUP5 PUSH2 0x8DE JUMP JUMPDEST SWAP3 SWAP2 POP POP JUMP JUMPDEST PUSH0 PUSH0 REVERT JUMPDEST PUSH2 0x913 DUP2 PUSH2 0x8D5 JUMP JUMPDEST DUP2 EQ PUSH2 0x91D JUMPI PUSH0 PUSH0 REVERT JUMPDEST POP JUMP JUMPDEST PUSH0 DUP2 CALLDATALOAD SWAP1 POP PUSH2 0x92E DUP2 PUSH2 0x90A JUMP JUMPDEST SWAP3 SWAP2 POP POP JUMP JUMPDEST PUSH0 PUSH1 0x20 DUP3 DUP5 SUB SLT ISZERO PUSH2 0x949 JUMPI PUSH2 0x948 PUSH2 0x906 JUMP JUMPDEST JUMPDEST PUSH0 PUSH2 0x956 DUP5 DUP3 DUP6 ADD PUSH2 0x920 JUMP JUMPDEST SWAP2 POP POP SWAP3 SWAP2 POP POP JUMP JUMPDEST PUSH0 PUSH20 0xFFFFFFFFFFFFFFFFFFFFFFFFFFFFFFFFFFFFFFFF DUP3 AND SWAP1 POP SWAP2 SWAP1 POP JUMP JUMPDEST PUSH0 PUSH2 0x988 DUP3 PUSH2 0x95F JUMP JUMPDEST SWAP1 POP SWAP2 SWAP1 POP JUMP JUMPDEST PUSH2 0x998 DUP2 PUSH2 0x97E JUMP JUMPDEST DUP2 EQ PUSH2 0x9A2 JUMPI PUSH0 PUSH0 REVERT JUMPDEST POP JUMP JUMPDEST PUSH0 DUP2 CALLDATALOAD SWAP1 POP PUSH2 0x9B3 DUP2 PUSH2 0x98F JUMP JUMPDEST SWAP3 SWAP2 POP POP JUMP JUMPDEST PUSH0 PUSH0 PUSH0 PUSH0 PUSH1 0x80 DUP6 DUP8 SUB SLT ISZERO PUSH2 0x9D1 JUMPI PUSH2 0x9D0 PUSH2 0x906 JUMP JUMPDEST JUMPDEST PUSH0 PUSH2 0x9DE DUP8 DUP3 DUP9 ADD PUSH2 0x9A5 JUMP JUMPDEST SWAP5 POP POP PUSH1 0x20 PUSH2 0x9EF DUP8 DUP3 DUP9 ADD PUSH2 0x920 JUMP JUMPDEST SWAP4 POP POP PUSH1 0x40 PUSH2 0xA00 DUP8 DUP3 DUP9 ADD PUSH2 0x920 JUMP JUMPDEST SWAP3 POP POP PUSH1 0x60 PUSH2 0xA11 DUP8 DUP3 DUP9 ADD PUSH2 0x920 JUMP JUMPDEST SWAP2 POP POP SWAP3 SWAP6 SWAP2 SWAP5 POP SWAP3 POP JUMP JUMPDEST PUSH0 PUSH2 0xA27 DUP3 PUSH2 0x95F JUMP JUMPDEST SWAP1 POP SWAP2 SWAP1 POP JUMP JUMPDEST PUSH2 0xA37 DUP2 PUSH2 0xA1D JUMP JUMPDEST DUP3 MSTORE POP POP JUMP JUMPDEST PUSH0 DUP2 ISZERO ISZERO SWAP1 POP SWAP2 SWAP1 POP JUMP JUMPDEST PUSH2 0xA51 DUP2 PUSH2 0xA3D JUMP JUMPDEST DUP3 MSTORE POP POP JUMP JUMPDEST PUSH0 PUSH1 0xC0 DUP3 ADD SWAP1 POP PUSH2 0xA6A PUSH0 DUP4 ADD DUP10 PUSH2 0x8DE JUMP JUMPDEST PUSH2 0xA77 PUSH1 0x20 DUP4 ADD DUP9 PUSH2 0xA2E JUMP JUMPDEST PUSH2 0xA84 PUSH1 0x40 DUP4 ADD DUP8 PUSH2 0x8DE JUMP JUMPDEST PUSH2 0xA91 PUSH1 0x60 DUP4 ADD DUP7 PUSH2 0x8DE JUMP JUMPDEST PUSH2 0xA9E PUSH1 0x80 DUP4 ADD DUP6 PUSH2 0x8DE JUMP JUMPDEST PUSH2 0xAAB PUSH1 0xA0 DUP4 ADD DUP5 PUSH2 0xA48 JUMP JUMPDEST SWAP8 SWAP7 POP POP POP POP POP POP POP JUMP JUMPDEST PUSH2 0xABF DUP2 PUSH2 0xA1D JUMP JUMPDEST DUP2 EQ PUSH2 0xAC9 JUMPI PUSH0 PUSH0 REVERT JUMPDEST POP JUMP JUMPDEST PUSH0 DUP2 CALLDATALOAD SWAP1 POP PUSH2 0xADA DUP2 PUSH2 0xAB6 JUMP JUMPDEST SWAP3 SWAP2 POP POP JUMP JUMPDEST PUSH0 PUSH0 PUSH1 0x40 DUP4 DUP6 SUB SLT ISZERO PUSH2 0xAF6 JUMPI PUSH2 0xAF5 PUSH2 0x906 JUMP JUMPDEST JUMPDEST PUSH0 PUSH2 0xB03 DUP6 DUP3 DUP7 ADD PUSH2 0xACC JUMP JUMPDEST SWAP3 POP POP PUSH1 0x20 PUSH2 0xB14 DUP6 DUP3 DUP7 ADD PUSH2 0x920 JUMP JUMPDEST SWAP2 POP POP SWAP3 POP SWAP3 SWAP1 POP JUMP JUMPDEST PUSH0 PUSH1 0x20 DUP3 ADD SWAP1 POP PUSH2 0xB31 PUSH0 DUP4 ADD DUP5 PUSH2 0xA2E JUMP JUMPDEST SWAP3 SWAP2 POP POP JUMP JUMPDEST PUSH0 DUP3 DUP3 MSTORE PUSH1 0x20 DUP3 ADD SWAP1 POP SWAP3 SWAP2 POP POP JUMP JUMPDEST PUSH32 0x4F6E6C792061646D696E00000000000000000000000000000000000000000000 PUSH0 DUP3 ADD MSTORE POP JUMP JUMPDEST PUSH0 PUSH2 0xB7B PUSH1 0xA DUP4 PUSH2 0xB37 JUMP JUMPDEST SWAP2 POP PUSH2 0xB86 DUP3 PUSH2 0xB47 JUMP JUMPDEST PUSH1 0x20 DUP3 ADD SWAP1 POP SWAP2 SWAP1 POP JUMP JUMPDEST PUSH0 PUSH1 0x20 DUP3 ADD SWAP1 POP DUP2 DUP2 SUB PUSH0 DUP4 ADD MSTORE PUSH2 0xBA8 DUP2 PUSH2 0xB6F JUMP JUMPDEST SWAP1 POP SWAP2 SWAP1 POP JUMP JUMPDEST PUSH32 0x496E73756666696369656E742062616C616E6365000000000000000000000000 PUSH0 DUP3 ADD MSTORE POP JUMP JUMPDEST PUSH0 PUSH2 0xBE3 PUSH1 0x14 DUP4 PUSH2 0xB37 JUMP JUMPDEST SWAP2 POP PUSH2 0xBEE DUP3 PUSH2 0xBAF JUMP JUMPDEST PUSH1 0x20 DUP3 ADD SWAP1 POP SWAP2 SWAP1 POP JUMP JUMPDEST PUSH0 PUSH1 0x20 DUP3 ADD SWAP1 POP DUP2 DUP2 SUB PUSH0 DUP4 ADD MSTORE PUSH2 0xC10 DUP2 PUSH2 0xBD7 JUMP JUMPDEST SWAP1 POP SWAP2 SWAP1 POP JUMP JUMPDEST PUSH0 DUP2 SWAP1 POP SWAP3 SWAP2 POP POP JUMP JUMPDEST POP JUMP JUMPDEST PUSH0 PUSH2 0xC2F PUSH0 DUP4 PUSH2 0xC17 JUMP JUMPDEST SWAP2 POP PUSH2 0xC3A DUP3 PUSH2 0xC21 JUMP JUMPDEST PUSH0 DUP3 ADD SWAP1 POP SWAP2 SWAP1 POP JUMP JUMPDEST PUSH0 PUSH2 0xC4E DUP3 PUSH2 0xC24 JUMP JUMPDEST SWAP2 POP DUP2 SWAP1 POP SWAP2 SWAP1 POP JUMP JUMPDEST PUSH32 0x5769746864726177206661696C65640000000000000000000000000000000000 PUSH0 DUP3 ADD MSTORE POP JUMP JUMPDEST PUSH0 PUSH2 0xC8C PUSH1 0xF DUP4 PUSH2 0xB37 JUMP JUMPDEST SWAP2 POP PUSH2 0xC97 DUP3 PUSH2 0xC58 JUMP JUMPDEST PUSH1 0x20 DUP3 ADD SWAP1 POP SWAP2 SWAP1 POP JUMP JUMPDEST PUSH0 PUSH1 0x20 DUP3 ADD SWAP1 POP DUP2 DUP2 SUB PUSH0 DUP4 ADD MSTORE PUSH2 0xCB9 DUP2 PUSH2 0xC80 JUMP JUMPDEST SWAP1 POP SWAP2 SWAP1 POP JUMP JUMPDEST PUSH32 0x496E73756666696369656E7420706F6F6C2062616C616E636500000000000000 PUSH0 DUP3 ADD MSTORE POP JUMP JUMPDEST PUSH0 PUSH2 0xCF4 PUSH1 0x19 DUP4 PUSH2 0xB37 JUMP JUMPDEST SWAP2 POP PUSH2 0xCFF DUP3 PUSH2 0xCC0 JUMP JUMPDEST PUSH1 0x20 DUP3 ADD SWAP1 POP SWAP2 SWAP1 POP JUMP JUMPDEST PUSH0 PUSH1 0x20 DUP3 ADD SWAP1 POP DUP2 DUP2 SUB PUSH0 DUP4 ADD MSTORE PUSH2 0xD21 DUP2 PUSH2 0xCE8 JUMP JUMPDEST SWAP1 POP SWAP2 SWAP1 POP JUMP JUMPDEST PUSH32 0x4E487B7100000000000000000000000000000000000000000000000000000000 PUSH0 MSTORE PUSH1 0x11 PUSH1 0x4 MSTORE PUSH1 0x24 PUSH0 REVERT JUMPDEST PUSH0 PUSH2 0xD5F DUP3 PUSH2 0x8D5 JUMP JUMPDEST SWAP2 POP PUSH2 0xD6A DUP4 PUSH2 0x8D5 JUMP JUMPDEST SWAP3 POP DUP3 DUP3 ADD SWAP1 POP DUP1 DUP3 GT ISZERO PUSH2 0xD82 JUMPI PUSH2 0xD81 PUSH2 0xD28 JUMP JUMPDEST JUMPDEST SWAP3 SWAP2 POP POP JUMP JUMPDEST PUSH0 PUSH2 0xD92 DUP3 PUSH2 0x8D5 JUMP JUMPDEST SWAP2 POP PUSH2 0xD9D DUP4 PUSH2 0x8D5 JUMP JUMPDEST SWAP3 POP DUP3 DUP3 MUL PUSH2 0xDAB DUP2 PUSH2 0x8D5 JUMP JUMPDEST SWAP2 POP DUP3 DUP3 DIV DUP5 EQ DUP4 ISZERO OR PUSH2 0xDC2 JUMPI PUSH2 0xDC1 PUSH2 0xD28 JUMP JUMPDEST JUMPDEST POP SWAP3 SWAP2 POP POP JUMP JUMPDEST PUSH32 0x5472616E73666572206661696C65640000000000000000000000000000000000 PUSH0 DUP3 ADD MSTORE POP JUMP JUMPDEST PUSH0 PUSH2 0xDFD PUSH1 0xF DUP4 PUSH2 0xB37 JUMP JUMPDEST SWAP2 POP PUSH2 0xE08 DUP3 PUSH2 0xDC9 JUMP JUMPDEST PUSH1 0x20 DUP3 ADD SWAP1 POP SWAP2 SWAP1 POP JUMP JUMPDEST PUSH0 PUSH1 0x20 DUP3 ADD SWAP1 POP DUP2 DUP2 SUB PUSH0 DUP4 ADD MSTORE PUSH2 0xE2A DUP2 PUSH2 0xDF1 JUMP JUMPDEST SWAP1 POP SWAP2 SWAP1 POP JUMP JUMPDEST PUSH0 PUSH1 0x60 DUP3 ADD SWAP1 POP PUSH2 0xE44 PUSH0 DUP4 ADD DUP7 PUSH2 0x8DE JUMP JUMPDEST PUSH2 0xE51 PUSH1 0x20 DUP4 ADD DUP6 PUSH2 0x8DE JUMP JUMPDEST PUSH2 0xE5E PUSH1 0x40 DUP4 ADD DUP5 PUSH2 0x8DE JUMP JUMPDEST SWAP5 SWAP4 POP POP POP POP JUMP JUMPDEST PUSH32 0x4C6F616E206E6F74206578697374000000000000000000000000000000000000 PUSH0 DUP3 ADD MSTORE POP JUMP JUMPDEST PUSH0 PUSH2 0xE9A PUSH1 0xE DUP4 PUSH2 0xB37 JUMP JUMPDEST SWAP2 POP PUSH2 0xEA5 DUP3 PUSH2 0xE66 JUMP JUMPDEST PUSH1 0x20 DUP3 ADD SWAP1 POP SWAP2 SWAP1 POP JUMP JUMPDEST PUSH0 PUSH1 0x20 DUP3 ADD SWAP1 POP DUP2 DUP2 SUB PUSH0 DUP4 ADD MSTORE PUSH2 0xEC7 DUP2 PUSH2 0xE8E JUMP JUMPDEST SWAP1 POP SWAP2 SWAP1 POP JUMP JUMPDEST PUSH32 0x416C726561647920726570616964000000000000000000000000000000000000 PUSH0 DUP3 ADD MSTORE POP JUMP JUMPDEST PUSH0 PUSH2 0xF02 PUSH1 0xE DUP4 PUSH2 0xB37 JUMP JUMPDEST SWAP2 POP PUSH2 0xF0D DUP3 PUSH2 0xECE JUMP JUMPDEST PUSH1 0x20 DUP3 ADD SWAP1 POP SWAP2 SWAP1 POP JUMP JUMPDEST PUSH0 PUSH1 0x20 DUP3 ADD SWAP1 POP DUP2 DUP2 SUB PUSH0 DUP4 ADD MSTORE PUSH2 0xF2F DUP2 PUSH2 0xEF6 JUMP JUMPDEST SWAP1 POP SWAP2 SWAP1 POP JUMP JUMPDEST PUSH32 0x496E73756666696369656E742072657061796D656E7400000000000000000000 PUSH0 DUP3 ADD MSTORE POP JUMP JUMPDEST PUSH0 PUSH2 0xF6A PUSH1 0x16 DUP4 PUSH2 0xB37 JUMP JUMPDEST SWAP2 POP PUSH2 0xF75 DUP3 PUSH2 0xF36 JUMP JUMPDEST PUSH1 0x20 DUP3 ADD SWAP1 POP SWAP2 SWAP1 POP JUMP JUMPDEST PUSH0 PUSH1 0x20 DUP3 ADD SWAP1 POP DUP2 DUP2 SUB PUSH0 DUP4 ADD MSTORE PUSH2 0xF97 DUP2 PUSH2 0xF5E JUMP JUMPDEST SWAP1 POP SWAP2 SWAP1 POP JUMP INVALID LOG2 PUSH5 0x6970667358 0x22 SLT KECCAK256 0x4C PUSH4 0x9B75F87B DUP15 PUSH5 0xEC9D379603 MLOAD GT PUSH19 0x7A58A4DA88F17627BF35A48C8168EC0C64736F PUSH13 0x634300081E0033000000000000 "
				},
				"gasEstimates": {
					"creation": {
						"codeDepositCost": "810400",
						"executionCost": "30119",
						"totalCost": "840519"
					},
					"external": {
						"admin()": "2573",
						"adminWithdraw(uint256)": "infinite",
						"borrowerLoans(address,uint256)": "infinite",
						"createLoan(address,uint256,uint256,uint256)": "infinite",
						"loanCounter()": "2426",
						"loans(uint256)": "infinite",
						"repayLoan(uint256)": "infinite"
					}
				},
				"methodIdentifiers": {
					"admin()": "f851a440",
					"adminWithdraw(uint256)": "7c5b4a37",
					"borrowerLoans(address,uint256)": "e3ed1902",
					"createLoan(address,uint256,uint256,uint256)": "9e8101c6",
					"loanCounter()": "34d9289e",
					"loans(uint256)": "e1ec3c68",
					"repayLoan(uint256)": "ab7b1c89"
				}
			},
			"storageLayout": {
				"storage": [
					{
						"astId": 4,
						"contract": "DeFi-EduOps/contracts/MicroLons.sol:MicroLoan",
						"label": "admin",
						"offset": 0,
						"slot": "0",
						"type": "t_address"
					},
					{
						"astId": 6,
						"contract": "DeFi-EduOps/contracts/MicroLons.sol:MicroLoan",
						"label": "loanCounter",
						"offset": 0,
						"slot": "1",
						"type": "t_uint256"
					},
					{
						"astId": 24,
						"contract": "DeFi-EduOps/contracts/MicroLons.sol:MicroLoan",
						"label": "loans",
						"offset": 0,
						"slot": "2",
						"type": "t_mapping(t_uint256,t_struct(Loan)19_storage)"
					},
					{
						"astId": 29,
						"contract": "DeFi-EduOps/contracts/MicroLons.sol:MicroLoan",
						"label": "borrowerLoans",
						"offset": 0,
						"slot": "3",
						"type": "t_mapping(t_address,t_array(t_uint256)dyn_storage)"
					}
				],
				"types": {
					"t_address": {
						"encoding": "inplace",
						"label": "address",
						"numberOfBytes": "20"
					},
					"t_array(t_uint256)dyn_storage": {
						"base": "t_uint256",
						"encoding": "dynamic_array",
						"label": "uint256[]",
						"numberOfBytes": "32"
					},
					"t_bool": {
						"encoding": "inplace",
						"label": "bool",
						"numberOfBytes": "1"
					},
					"t_mapping(t_address,t_array(t_uint256)dyn_storage)": {
						"encoding": "mapping",
						"key": "t_address",
						"label": "mapping(address => uint256[])",
						"numberOfBytes": "32",
						"value": "t_array(t_uint256)dyn_storage"
					},
					"t_mapping(t_uint256,t_struct(Loan)19_storage)": {
						"encoding": "mapping",
						"key": "t_uint256",
						"label": "mapping(uint256 => struct MicroLoan.Loan)",
						"numberOfBytes": "32",
						"value": "t_struct(Loan)19_storage"
					},
					"t_struct(Loan)19_storage": {
						"encoding": "inplace",
						"label": "struct MicroLoan.Loan",
						"members": [
							{
								"astId": 8,
								"contract": "DeFi-EduOps/contracts/MicroLons.sol:MicroLoan",
								"label": "id",
								"offset": 0,
								"slot": "0",
								"type": "t_uint256"
							},
							{
								"astId": 10,
								"contract": "DeFi-EduOps/contracts/MicroLons.sol:MicroLoan",
								"label": "borrower",
								"offset": 0,
								"slot": "1",
								"type": "t_address"
							},
							{
								"astId": 12,
								"contract": "DeFi-EduOps/contracts/MicroLons.sol:MicroLoan",
								"label": "principal",
								"offset": 0,
								"slot": "2",
								"type": "t_uint256"
							},
							{
								"astId": 14,
								"contract": "DeFi-EduOps/contracts/MicroLons.sol:MicroLoan",
								"label": "interest",
								"offset": 0,
								"slot": "3",
								"type": "t_uint256"
							},
							{
								"astId": 16,
								"contract": "DeFi-EduOps/contracts/MicroLons.sol:MicroLoan",
								"label": "dueDate",
								"offset": 0,
								"slot": "4",
								"type": "t_uint256"
							},
							{
								"astId": 18,
								"contract": "DeFi-EduOps/contracts/MicroLons.sol:MicroLoan",
								"label": "repaid",
								"offset": 0,
								"slot": "5",
								"type": "t_bool"
							}
						],
						"numberOfBytes": "192"
					},
					"t_uint256": {
						"encoding": "inplace",
						"label": "uint256",
						"numberOfBytes": "32"
					}
				}
			},
			"userdoc": {
				"kind": "user",
				"methods": {
					"adminWithdraw(uint256)": {
						"notice": "Admin can withdraw contract funds (for demo only)"
					},
					"createLoan(address,uint256,uint256,uint256)": {
						"notice": "Create a loan for borrower. For POC admin creates loan and transfers funds."
					},
					"repayLoan(uint256)": {
						"notice": "Repay loan: borrower sends principal + interest"
					}
				},
				"version": 1
			}
		}
	}
}