{
	"DeFi-EduOps/contracts/Scholarship.sol": {
		"MicroLoan": {
			"abi": [
				{
					"inputs": [],
					"stateMutability": "nonpayable",
					"type": "constructor"
				},
				{
					"anonymous": false,
					"inputs": [
						{
							"indexed": true,
							"internalType": "address",
							"name": "to",
							"type": "address"
						},
						{
							"indexed": false,
							"internalType": "uint256",
							"name": "amount",
							"type": "uint256"
						}
					],
					"name": "AdminWithdraw",
					"type": "event"
				},
				{
					"anonymous": false,
					"inputs": [
						{
							"indexed": true,
							"internalType": "address",
							"name": "from",
							"type": "address"
						},
						{
							"indexed": false,
							"internalType": "uint256",
							"name": "amount",
							"type": "uint256"
						}
					],
					"name": "FundsDeposited",
					"type": "event"
				},
				{
					"anonymous": false,
					"inputs": [
						{
							"indexed": true,
							"internalType": "uint256",
							"name": "id",
							"type": "uint256"
						},
						{
							"indexed": true,
							"internalType": "address",
							"name": "borrower",
							"type": "address"
						},
						{
							"indexed": false,
							"internalType": "uint256",
							"name": "principal",
							"type": "uint256"
						},
						{
							"indexed": false,
							"internalType": "uint256",
							"name": "interest",
							"type": "uint256"
						},
						{
							"indexed": false,
							"internalType": "uint256",
							"name": "dueDate",
							"type": "uint256"
						}
					],
					"name": "LoanCreated",
					"type": "event"
				},
				{
					"anonymous": false,
					"inputs": [
						{
							"indexed": true,
							"internalType": "uint256",
							"name": "id",
							"type": "uint256"
						},
						{
							"indexed": true,
							"internalType": "address",
							"name": "borrower",
							"type": "address"
						},
						{
							"indexed": false,
							"internalType": "uint256",
							"name": "amount",
							"type": "uint256"
						}
					],
					"name": "LoanRepaid",
					"type": "event"
				},
				{
					"inputs": [],
					"name": "admin",
					"outputs": [
						{
							"internalType": "address",
							"name": "",
							"type": "address"
						}
					],
					"stateMutability": "view",
					"type": "function"
				},
				{
					"inputs": [
						{
							"internalType": "uint256",
							"name": "_amount",
							"type": "uint256"
						}
					],
					"name": "adminWithdraw",
					"outputs": [],
					"stateMutability": "nonpayable",
					"type": "function"
				},
				{
					"inputs": [
						{
							"internalType": "address",
							"name": "",
							"type": "address"
						},
						{
							"internalType": "uint256",
							"name": "",
							"type": "uint256"
						}
					],
					"name": "borrowerLoans",
					"outputs": [
						{
							"internalType": "uint256",
							"name": "",
							"type": "uint256"
						}
					],
					"stateMutability": "view",
					"type": "function"
				},
				{
					"inputs": [
						{
							"internalType": "address payable",
							"name": "_borrower",
							"type": "address"
						},
						{
							"internalType": "uint256",
							"name": "_principal",
							"type": "uint256"
						},
						{
							"internalType": "uint256",
							"name": "_interest",
							"type": "uint256"
						},
						{
							"internalType": "uint256",
							"name": "_durationDays",
							"type": "uint256"
						}
					],
					"name": "createLoan",
					"outputs": [],
					"stateMutability": "nonpayable",
					"type": "function"
				},
				{
					"inputs": [
						{
							"internalType": "address",
							"name": "_borrower",
							"type": "address"
						}
					],
					"name": "getBorrowerLoans",
					"outputs": [
						{
							"internalType": "uint256[]",
							"name": "",
							"type": "uint256[]"
						}
					],
					"stateMutability": "view",
					"type": "function"
				},
				{
					"inputs": [],
					"name": "loanCounter",
					"outputs": [
						{
							"internalType": "uint256",
							"name": "",
							"type": "uint256"
						}
					],
					"stateMutability": "view",
					"type": "function"
				},
				{
					"inputs": [
						{
							"internalType": "uint256",
							"name": "",
							"type": "uint256"
						}
					],
					"name": "loans",
					"outputs": [
						{
							"internalType": "uint256",
							"name": "id",
							"type": "uint256"
						},
						{
							"internalType": "address",
							"name": "borrower",
							"type": "address"
						},
						{
							"internalType": "uint256",
							"name": "principal",
							"type": "uint256"
						},
						{
							"internalType": "uint256",
							"name": "interest",
							"type": "uint256"
						},
						{
							"internalType": "uint256",
							"name": "dueDate",
							"type": "uint256"
						},
						{
							"internalType": "bool",
							"name": "repaid",
							"type": "bool"
						}
					],
					"stateMutability": "view",
					"type": "function"
				},
				{
					"inputs": [
						{
							"internalType": "uint256",
							"name": "_loanId",
							"type": "uint256"
						}
					],
					"name": "repayLoan",
					"outputs": [],
					"stateMutability": "payable",
					"type": "function"
				},
				{
					"stateMutability": "payable",
					"type": "receive"
				}
			],
			"devdoc": {
				"kind": "dev",
				"methods": {},
				"version": 1
			},
			"evm": {
				"assembly": "    /* \"DeFi-EduOps/contracts/Scholarship.sol\":257:2875  contract MicroLoan {... */\n  mstore(0x40, 0x80)\n    /* \"DeFi-EduOps/contracts/Scholarship.sol\":1027:1101  constructor() {... */\n  callvalue\n  dup1\n  iszero\n  tag_1\n  jumpi\n  revert(0x00, 0x00)\ntag_1:\n  pop\n    /* \"DeFi-EduOps/contracts/Scholarship.sol\":1059:1069  msg.sender */\n  caller\n    /* \"DeFi-EduOps/contracts/Scholarship.sol\":1051:1056  admin */\n  0x00\n  0x00\n    /* \"DeFi-EduOps/contracts/Scholarship.sol\":1051:1069  admin = msg.sender */\n  0x0100\n  exp\n  dup2\n  sload\n  dup2\n  0xffffffffffffffffffffffffffffffffffffffff\n  mul\n  not\n  and\n  swap1\n  dup4\n  0xffffffffffffffffffffffffffffffffffffffff\n  and\n  mul\n  or\n  swap1\n  sstore\n  pop\n    /* \"DeFi-EduOps/contracts/Scholarship.sol\":1093:1094  0 */\n  0x00\n    /* \"DeFi-EduOps/contracts/Scholarship.sol\":1079:1090  loanCounter */\n  0x01\n    /* \"DeFi-EduOps/contracts/Scholarship.sol\":1079:1094  loanCounter = 0 */\n  dup2\n  swap1\n  sstore\n  pop\n    /* \"DeFi-EduOps/contracts/Scholarship.sol\":257:2875  contract MicroLoan {... */\n  dataSize(sub_0)\n  dup1\n  dataOffset(sub_0)\n  0x00\n  codecopy\n  0x00\n  return\nstop\n\nsub_0: assembly {\n        /* \"DeFi-EduOps/contracts/Scholarship.sol\":257:2875  contract MicroLoan {... */\n      mstore(0x40, 0x80)\n      jumpi(tag_1, lt(calldatasize, 0x04))\n      shr(0xe0, calldataload(0x00))\n      dup1\n      0xe1ec3c68\n      gt\n      tag_11\n      jumpi\n      dup1\n      0xe1ec3c68\n      eq\n      tag_7\n      jumpi\n      dup1\n      0xe3ed1902\n      eq\n      tag_8\n      jumpi\n      dup1\n      0xeee8b7ff\n      eq\n      tag_9\n      jumpi\n      dup1\n      0xf851a440\n      eq\n      tag_10\n      jumpi\n      jump(tag_2)\n    tag_11:\n      dup1\n      0x34d9289e\n      eq\n      tag_3\n      jumpi\n      dup1\n      0x7c5b4a37\n      eq\n      tag_4\n      jumpi\n      dup1\n      0x9e8101c6\n      eq\n      tag_5\n      jumpi\n      dup1\n      0xab7b1c89\n      eq\n      tag_6\n      jumpi\n      jump(tag_2)\n    tag_1:\n      jumpi(tag_2, calldatasize)\n        /* \"DeFi-EduOps/contracts/Scholarship.sol\":1164:1174  msg.sender */\n      caller\n        /* \"DeFi-EduOps/contracts/Scholarship.sol\":1149:1186  FundsDeposited(msg.sender, msg.value) */\n      0xffffffffffffffffffffffffffffffffffffffff\n      and\n      0x543ba50a5eec5e6178218e364b1d0f396157b3c8fa278522c2cb7fd99407d474\n        /* \"DeFi-EduOps/contracts/Scholarship.sol\":1176:1185  msg.value */\n      callvalue\n        /* \"DeFi-EduOps/contracts/Scholarship.sol\":1149:1186  FundsDeposited(msg.sender, msg.value) */\n      mload(0x40)\n      tag_14\n      swap2\n      swap1\n      tag_15\n      jump\t// in\n    tag_14:\n      mload(0x40)\n      dup1\n      swap2\n      sub\n      swap1\n      log2\n        /* \"DeFi-EduOps/contracts/Scholarship.sol\":257:2875  contract MicroLoan {... */\n      stop\n    tag_2:\n      revert(0x00, 0x00)\n        /* \"DeFi-EduOps/contracts/Scholarship.sol\":308:331  uint public loanCounter */\n    tag_3:\n      callvalue\n      dup1\n      iszero\n      tag_16\n      jumpi\n      revert(0x00, 0x00)\n    tag_16:\n      pop\n      tag_17\n      tag_18\n      jump\t// in\n    tag_17:\n      mload(0x40)\n      tag_19\n      swap2\n      swap1\n      tag_15\n      jump\t// in\n    tag_19:\n      mload(0x40)\n      dup1\n      swap2\n      sub\n      swap1\n      return\n        /* \"DeFi-EduOps/contracts/Scholarship.sol\":2429:2712  function adminWithdraw(uint _amount) public onlyAdmin {... */\n    tag_4:\n      callvalue\n      dup1\n      iszero\n      tag_20\n      jumpi\n      revert(0x00, 0x00)\n    tag_20:\n      pop\n      tag_21\n      0x04\n      dup1\n      calldatasize\n      sub\n      dup2\n      add\n      swap1\n      tag_22\n      swap2\n      swap1\n      tag_23\n      jump\t// in\n    tag_22:\n      tag_24\n      jump\t// in\n    tag_21:\n      stop\n        /* \"DeFi-EduOps/contracts/Scholarship.sol\":1263:1884  function createLoan(address payable _borrower, uint _principal, uint _interest, uint _durationDays) public onlyAdmin {... */\n    tag_5:\n      callvalue\n      dup1\n      iszero\n      tag_25\n      jumpi\n      revert(0x00, 0x00)\n    tag_25:\n      pop\n      tag_26\n      0x04\n      dup1\n      calldatasize\n      sub\n      dup2\n      add\n      swap1\n      tag_27\n      swap2\n      swap1\n      tag_28\n      jump\t// in\n    tag_27:\n      tag_29\n      jump\t// in\n    tag_26:\n      stop\n        /* \"DeFi-EduOps/contracts/Scholarship.sol\":1941:2389  function repayLoan(uint _loanId) public payable {... */\n    tag_6:\n      tag_30\n      0x04\n      dup1\n      calldatasize\n      sub\n      dup2\n      add\n      swap1\n      tag_31\n      swap2\n      swap1\n      tag_23\n      jump\t// in\n    tag_31:\n      tag_32\n      jump\t// in\n    tag_30:\n      stop\n        /* \"DeFi-EduOps/contracts/Scholarship.sol\":527:561  mapping(uint => Loan) public loans */\n    tag_7:\n      callvalue\n      dup1\n      iszero\n      tag_33\n      jumpi\n      revert(0x00, 0x00)\n    tag_33:\n      pop\n      tag_34\n      0x04\n      dup1\n      calldatasize\n      sub\n      dup2\n      add\n      swap1\n      tag_35\n      swap2\n      swap1\n      tag_23\n      jump\t// in\n    tag_35:\n      tag_36\n      jump\t// in\n    tag_34:\n      mload(0x40)\n      tag_37\n      swap7\n      swap6\n      swap5\n      swap4\n      swap3\n      swap2\n      swap1\n      tag_38\n      jump\t// in\n    tag_37:\n      mload(0x40)\n      dup1\n      swap2\n      sub\n      swap1\n      return\n        /* \"DeFi-EduOps/contracts/Scholarship.sol\":567:614  mapping(address => uint[]) public borrowerLoans */\n    tag_8:\n      callvalue\n      dup1\n      iszero\n      tag_39\n      jumpi\n      revert(0x00, 0x00)\n    tag_39:\n      pop\n      tag_40\n      0x04\n      dup1\n      calldatasize\n      sub\n      dup2\n      add\n      swap1\n      tag_41\n      swap2\n      swap1\n      tag_42\n      jump\t// in\n    tag_41:\n      tag_43\n      jump\t// in\n    tag_40:\n      mload(0x40)\n      tag_44\n      swap2\n      swap1\n      tag_15\n      jump\t// in\n    tag_44:\n      mload(0x40)\n      dup1\n      swap2\n      sub\n      swap1\n      return\n        /* \"DeFi-EduOps/contracts/Scholarship.sol\":2744:2873  function getBorrowerLoans(address _borrower) public view returns (uint[] memory) {... */\n    tag_9:\n      callvalue\n      dup1\n      iszero\n      tag_45\n      jumpi\n      revert(0x00, 0x00)\n    tag_45:\n      pop\n      tag_46\n      0x04\n      dup1\n      calldatasize\n      sub\n      dup2\n      add\n      swap1\n      tag_47\n      swap2\n      swap1\n      tag_48\n      jump\t// in\n    tag_47:\n      tag_49\n      jump\t// in\n    tag_46:\n      mload(0x40)\n      tag_50\n      swap2\n      swap1\n      tag_51\n      jump\t// in\n    tag_50:\n      mload(0x40)\n      dup1\n      swap2\n      sub\n      swap1\n      return\n        /* \"DeFi-EduOps/contracts/Scholarship.sol\":282:302  address public admin */\n    tag_10:\n      callvalue\n      dup1\n      iszero\n      tag_52\n      jumpi\n      revert(0x00, 0x00)\n    tag_52:\n      pop\n      tag_53\n      tag_54\n      jump\t// in\n    tag_53:\n      mload(0x40)\n      tag_55\n      swap2\n      swap1\n      tag_56\n      jump\t// in\n    tag_55:\n      mload(0x40)\n      dup1\n      swap2\n      sub\n      swap1\n      return\n        /* \"DeFi-EduOps/contracts/Scholarship.sol\":308:331  uint public loanCounter */\n    tag_18:\n      sload(0x01)\n      dup2\n      jump\t// out\n        /* \"DeFi-EduOps/contracts/Scholarship.sol\":2429:2712  function adminWithdraw(uint _amount) public onlyAdmin {... */\n    tag_24:\n        /* \"DeFi-EduOps/contracts/Scholarship.sol\":983:988  admin */\n      0x00\n      0x00\n      swap1\n      sload\n      swap1\n      0x0100\n      exp\n      swap1\n      div\n      0xffffffffffffffffffffffffffffffffffffffff\n      and\n        /* \"DeFi-EduOps/contracts/Scholarship.sol\":969:988  msg.sender == admin */\n      0xffffffffffffffffffffffffffffffffffffffff\n      and\n        /* \"DeFi-EduOps/contracts/Scholarship.sol\":969:979  msg.sender */\n      caller\n        /* \"DeFi-EduOps/contracts/Scholarship.sol\":969:988  msg.sender == admin */\n      0xffffffffffffffffffffffffffffffffffffffff\n      and\n      eq\n        /* \"DeFi-EduOps/contracts/Scholarship.sol\":961:1003  require(msg.sender == admin, \"Only admin\") */\n      tag_58\n      jumpi\n      mload(0x40)\n      0x08c379a000000000000000000000000000000000000000000000000000000000\n      dup2\n      mstore\n      0x04\n      add\n      tag_59\n      swap1\n      tag_60\n      jump\t// in\n    tag_59:\n      mload(0x40)\n      dup1\n      swap2\n      sub\n      swap1\n      revert\n    tag_58:\n        /* \"DeFi-EduOps/contracts/Scholarship.sol\":2526:2533  _amount */\n      dup1\n        /* \"DeFi-EduOps/contracts/Scholarship.sol\":2501:2522  address(this).balance */\n      selfbalance\n        /* \"DeFi-EduOps/contracts/Scholarship.sol\":2501:2533  address(this).balance >= _amount */\n      lt\n      iszero\n        /* \"DeFi-EduOps/contracts/Scholarship.sol\":2493:2558  require(address(this).balance >= _amount, \"Insufficient balance\") */\n      tag_62\n      jumpi\n      mload(0x40)\n      0x08c379a000000000000000000000000000000000000000000000000000000000\n      dup2\n      mstore\n      0x04\n      add\n      tag_63\n      swap1\n      tag_64\n      jump\t// in\n    tag_63:\n      mload(0x40)\n      dup1\n      swap2\n      sub\n      swap1\n      revert\n    tag_62:\n        /* \"DeFi-EduOps/contracts/Scholarship.sol\":2569:2576  bool ok */\n      0x00\n        /* \"DeFi-EduOps/contracts/Scholarship.sol\":2590:2595  admin */\n      0x00\n      0x00\n      swap1\n      sload\n      swap1\n      0x0100\n      exp\n      swap1\n      div\n      0xffffffffffffffffffffffffffffffffffffffff\n      and\n        /* \"DeFi-EduOps/contracts/Scholarship.sol\":2582:2601  payable(admin).call */\n      0xffffffffffffffffffffffffffffffffffffffff\n      and\n        /* \"DeFi-EduOps/contracts/Scholarship.sol\":2609:2616  _amount */\n      dup3\n        /* \"DeFi-EduOps/contracts/Scholarship.sol\":2582:2621  payable(admin).call{value: _amount}(\"\") */\n      mload(0x40)\n      tag_65\n      swap1\n      tag_66\n      jump\t// in\n    tag_65:\n      0x00\n      mload(0x40)\n      dup1\n      dup4\n      sub\n      dup2\n      dup6\n      dup8\n      gas\n      call\n      swap3\n      pop\n      pop\n      pop\n      returndatasize\n      dup1\n      0x00\n      dup2\n      eq\n      tag_69\n      jumpi\n      mload(0x40)\n      swap2\n      pop\n      and(add(returndatasize, 0x3f), not(0x1f))\n      dup3\n      add\n      0x40\n      mstore\n      returndatasize\n      dup3\n      mstore\n      returndatasize\n      0x00\n      0x20\n      dup5\n      add\n      returndatacopy\n      jump(tag_68)\n    tag_69:\n      0x60\n      swap2\n      pop\n    tag_68:\n      pop\n        /* \"DeFi-EduOps/contracts/Scholarship.sol\":2568:2621  (bool ok, ) = payable(admin).call{value: _amount}(\"\") */\n      pop\n      swap1\n      pop\n        /* \"DeFi-EduOps/contracts/Scholarship.sol\":2639:2641  ok */\n      dup1\n        /* \"DeFi-EduOps/contracts/Scholarship.sol\":2631:2661  require(ok, \"Withdraw failed\") */\n      tag_70\n      jumpi\n      mload(0x40)\n      0x08c379a000000000000000000000000000000000000000000000000000000000\n      dup2\n      mstore\n      0x04\n      add\n      tag_71\n      swap1\n      tag_72\n      jump\t// in\n    tag_71:\n      mload(0x40)\n      dup1\n      swap2\n      sub\n      swap1\n      revert\n    tag_70:\n        /* \"DeFi-EduOps/contracts/Scholarship.sol\":2690:2695  admin */\n      0x00\n      0x00\n      swap1\n      sload\n      swap1\n      0x0100\n      exp\n      swap1\n      div\n      0xffffffffffffffffffffffffffffffffffffffff\n      and\n        /* \"DeFi-EduOps/contracts/Scholarship.sol\":2676:2705  AdminWithdraw(admin, _amount) */\n      0xffffffffffffffffffffffffffffffffffffffff\n      and\n      0xba443e8671971c36cdeb74f87321041daff421230cbc5e36cb835269ed1d8b7e\n        /* \"DeFi-EduOps/contracts/Scholarship.sol\":2697:2704  _amount */\n      dup4\n        /* \"DeFi-EduOps/contracts/Scholarship.sol\":2676:2705  AdminWithdraw(admin, _amount) */\n      mload(0x40)\n      tag_73\n      swap2\n      swap1\n      tag_15\n      jump\t// in\n    tag_73:\n      mload(0x40)\n      dup1\n      swap2\n      sub\n      swap1\n      log2\n        /* \"DeFi-EduOps/contracts/Scholarship.sol\":2483:2712  {... */\n      pop\n        /* \"DeFi-EduOps/contracts/Scholarship.sol\":2429:2712  function adminWithdraw(uint _amount) public onlyAdmin {... */\n      pop\n      jump\t// out\n        /* \"DeFi-EduOps/contracts/Scholarship.sol\":1263:1884  function createLoan(address payable _borrower, uint _principal, uint _interest, uint _durationDays) public onlyAdmin {... */\n    tag_29:\n        /* \"DeFi-EduOps/contracts/Scholarship.sol\":983:988  admin */\n      0x00\n      0x00\n      swap1\n      sload\n      swap1\n      0x0100\n      exp\n      swap1\n      div\n      0xffffffffffffffffffffffffffffffffffffffff\n      and\n        /* \"DeFi-EduOps/contracts/Scholarship.sol\":969:988  msg.sender == admin */\n      0xffffffffffffffffffffffffffffffffffffffff\n      and\n        /* \"DeFi-EduOps/contracts/Scholarship.sol\":969:979  msg.sender */\n      caller\n        /* \"DeFi-EduOps/contracts/Scholarship.sol\":969:988  msg.sender == admin */\n      0xffffffffffffffffffffffffffffffffffffffff\n      and\n      eq\n        /* \"DeFi-EduOps/contracts/Scholarship.sol\":961:1003  require(msg.sender == admin, \"Only admin\") */\n      tag_75\n      jumpi\n      mload(0x40)\n      0x08c379a000000000000000000000000000000000000000000000000000000000\n      dup2\n      mstore\n      0x04\n      add\n      tag_76\n      swap1\n      tag_60\n      jump\t// in\n    tag_76:\n      mload(0x40)\n      dup1\n      swap2\n      sub\n      swap1\n      revert\n    tag_75:\n        /* \"DeFi-EduOps/contracts/Scholarship.sol\":1423:1433  _principal */\n      dup3\n        /* \"DeFi-EduOps/contracts/Scholarship.sol\":1398:1419  address(this).balance */\n      selfbalance\n        /* \"DeFi-EduOps/contracts/Scholarship.sol\":1398:1433  address(this).balance >= _principal */\n      lt\n      iszero\n        /* \"DeFi-EduOps/contracts/Scholarship.sol\":1390:1463  require(address(this).balance >= _principal, \"Insufficient pool balance\") */\n      tag_78\n      jumpi\n      mload(0x40)\n      0x08c379a000000000000000000000000000000000000000000000000000000000\n      dup2\n      mstore\n      0x04\n      add\n      tag_79\n      swap1\n      tag_80\n      jump\t// in\n    tag_79:\n      mload(0x40)\n      dup1\n      swap2\n      sub\n      swap1\n      revert\n    tag_78:\n        /* \"DeFi-EduOps/contracts/Scholarship.sol\":1488:1489  1 */\n      0x01\n        /* \"DeFi-EduOps/contracts/Scholarship.sol\":1473:1484  loanCounter */\n      dup1\n      0x00\n        /* \"DeFi-EduOps/contracts/Scholarship.sol\":1473:1489  loanCounter += 1 */\n      dup3\n      dup3\n      sload\n      tag_81\n      swap2\n      swap1\n      tag_82\n      jump\t// in\n    tag_81:\n      swap3\n      pop\n      pop\n      dup2\n      swap1\n      sstore\n      pop\n        /* \"DeFi-EduOps/contracts/Scholarship.sol\":1499:1507  uint due */\n      0x00\n        /* \"DeFi-EduOps/contracts/Scholarship.sol\":1545:1551  1 days */\n      0x015180\n        /* \"DeFi-EduOps/contracts/Scholarship.sol\":1529:1542  _durationDays */\n      dup3\n        /* \"DeFi-EduOps/contracts/Scholarship.sol\":1529:1551  _durationDays * 1 days */\n      tag_83\n      swap2\n      swap1\n      tag_84\n      jump\t// in\n    tag_83:\n        /* \"DeFi-EduOps/contracts/Scholarship.sol\":1510:1525  block.timestamp */\n      timestamp\n        /* \"DeFi-EduOps/contracts/Scholarship.sol\":1510:1552  block.timestamp + (_durationDays * 1 days) */\n      tag_85\n      swap2\n      swap1\n      tag_82\n      jump\t// in\n    tag_85:\n        /* \"DeFi-EduOps/contracts/Scholarship.sol\":1499:1552  uint due = block.timestamp + (_durationDays * 1 days) */\n      swap1\n      pop\n        /* \"DeFi-EduOps/contracts/Scholarship.sol\":1583:1646  Loan(loanCounter, _borrower, _principal, _interest, due, false) */\n      mload(0x40)\n      dup1\n      0xc0\n      add\n      0x40\n      mstore\n      dup1\n        /* \"DeFi-EduOps/contracts/Scholarship.sol\":1588:1599  loanCounter */\n      sload(0x01)\n        /* \"DeFi-EduOps/contracts/Scholarship.sol\":1583:1646  Loan(loanCounter, _borrower, _principal, _interest, due, false) */\n      dup2\n      mstore\n      0x20\n      add\n        /* \"DeFi-EduOps/contracts/Scholarship.sol\":1601:1610  _borrower */\n      dup7\n        /* \"DeFi-EduOps/contracts/Scholarship.sol\":1583:1646  Loan(loanCounter, _borrower, _principal, _interest, due, false) */\n      0xffffffffffffffffffffffffffffffffffffffff\n      and\n      dup2\n      mstore\n      0x20\n      add\n        /* \"DeFi-EduOps/contracts/Scholarship.sol\":1612:1622  _principal */\n      dup6\n        /* \"DeFi-EduOps/contracts/Scholarship.sol\":1583:1646  Loan(loanCounter, _borrower, _principal, _interest, due, false) */\n      dup2\n      mstore\n      0x20\n      add\n        /* \"DeFi-EduOps/contracts/Scholarship.sol\":1624:1633  _interest */\n      dup5\n        /* \"DeFi-EduOps/contracts/Scholarship.sol\":1583:1646  Loan(loanCounter, _borrower, _principal, _interest, due, false) */\n      dup2\n      mstore\n      0x20\n      add\n        /* \"DeFi-EduOps/contracts/Scholarship.sol\":1635:1638  due */\n      dup3\n        /* \"DeFi-EduOps/contracts/Scholarship.sol\":1583:1646  Loan(loanCounter, _borrower, _principal, _interest, due, false) */\n      dup2\n      mstore\n      0x20\n      add\n        /* \"DeFi-EduOps/contracts/Scholarship.sol\":1640:1645  false */\n      0x00\n        /* \"DeFi-EduOps/contracts/Scholarship.sol\":1583:1646  Loan(loanCounter, _borrower, _principal, _interest, due, false) */\n      iszero\n      iszero\n      dup2\n      mstore\n      pop\n        /* \"DeFi-EduOps/contracts/Scholarship.sol\":1562:1567  loans */\n      0x02\n        /* \"DeFi-EduOps/contracts/Scholarship.sol\":1562:1580  loans[loanCounter] */\n      0x00\n        /* \"DeFi-EduOps/contracts/Scholarship.sol\":1568:1579  loanCounter */\n      sload(0x01)\n        /* \"DeFi-EduOps/contracts/Scholarship.sol\":1562:1580  loans[loanCounter] */\n      dup2\n      mstore\n      0x20\n      add\n      swap1\n      dup2\n      mstore\n      0x20\n      add\n      0x00\n      keccak256\n        /* \"DeFi-EduOps/contracts/Scholarship.sol\":1562:1646  loans[loanCounter] = Loan(loanCounter, _borrower, _principal, _interest, due, false) */\n      0x00\n      dup3\n      add\n      mload\n      dup2\n      0x00\n      add\n      sstore\n      0x20\n      dup3\n      add\n      mload\n      dup2\n      0x01\n      add\n      exp(0x0100, 0x00)\n      dup2\n      sload\n      dup2\n      0xffffffffffffffffffffffffffffffffffffffff\n      mul\n      not\n      and\n      swap1\n      dup4\n      0xffffffffffffffffffffffffffffffffffffffff\n      and\n      mul\n      or\n      swap1\n      sstore\n      pop\n      0x40\n      dup3\n      add\n      mload\n      dup2\n      0x02\n      add\n      sstore\n      0x60\n      dup3\n      add\n      mload\n      dup2\n      0x03\n      add\n      sstore\n      0x80\n      dup3\n      add\n      mload\n      dup2\n      0x04\n      add\n      sstore\n      0xa0\n      dup3\n      add\n      mload\n      dup2\n      0x05\n      add\n      exp(0x0100, 0x00)\n      dup2\n      sload\n      dup2\n      0xff\n      mul\n      not\n      and\n      swap1\n      dup4\n      iszero\n      iszero\n      mul\n      or\n      swap1\n      sstore\n      pop\n      swap1\n      pop\n      pop\n        /* \"DeFi-EduOps/contracts/Scholarship.sol\":1656:1669  borrowerLoans */\n      0x03\n        /* \"DeFi-EduOps/contracts/Scholarship.sol\":1656:1680  borrowerLoans[_borrower] */\n      0x00\n        /* \"DeFi-EduOps/contracts/Scholarship.sol\":1670:1679  _borrower */\n      dup7\n        /* \"DeFi-EduOps/contracts/Scholarship.sol\":1656:1680  borrowerLoans[_borrower] */\n      0xffffffffffffffffffffffffffffffffffffffff\n      and\n      0xffffffffffffffffffffffffffffffffffffffff\n      and\n      dup2\n      mstore\n      0x20\n      add\n      swap1\n      dup2\n      mstore\n      0x20\n      add\n      0x00\n      keccak256\n        /* \"DeFi-EduOps/contracts/Scholarship.sol\":1686:1697  loanCounter */\n      sload(0x01)\n        /* \"DeFi-EduOps/contracts/Scholarship.sol\":1656:1698  borrowerLoans[_borrower].push(loanCounter) */\n      swap1\n      dup1\n      0x01\n      dup2\n      sload\n      add\n      dup1\n      dup3\n      sstore\n      dup1\n      swap2\n      pop\n      pop\n      0x01\n      swap1\n      sub\n      swap1\n      0x00\n      mstore\n      keccak256(0x00, 0x20)\n      add\n      0x00\n      swap1\n      swap2\n      swap1\n      swap2\n      swap1\n      swap2\n      pop\n      sstore\n        /* \"DeFi-EduOps/contracts/Scholarship.sol\":1709:1716  bool ok */\n      0x00\n        /* \"DeFi-EduOps/contracts/Scholarship.sol\":1722:1731  _borrower */\n      dup6\n        /* \"DeFi-EduOps/contracts/Scholarship.sol\":1722:1736  _borrower.call */\n      0xffffffffffffffffffffffffffffffffffffffff\n      and\n        /* \"DeFi-EduOps/contracts/Scholarship.sol\":1744:1754  _principal */\n      dup6\n        /* \"DeFi-EduOps/contracts/Scholarship.sol\":1722:1759  _borrower.call{value: _principal}(\"\") */\n      mload(0x40)\n      tag_87\n      swap1\n      tag_66\n      jump\t// in\n    tag_87:\n      0x00\n      mload(0x40)\n      dup1\n      dup4\n      sub\n      dup2\n      dup6\n      dup8\n      gas\n      call\n      swap3\n      pop\n      pop\n      pop\n      returndatasize\n      dup1\n      0x00\n      dup2\n      eq\n      tag_90\n      jumpi\n      mload(0x40)\n      swap2\n      pop\n      and(add(returndatasize, 0x3f), not(0x1f))\n      dup3\n      add\n      0x40\n      mstore\n      returndatasize\n      dup3\n      mstore\n      returndatasize\n      0x00\n      0x20\n      dup5\n      add\n      returndatacopy\n      jump(tag_89)\n    tag_90:\n      0x60\n      swap2\n      pop\n    tag_89:\n      pop\n        /* \"DeFi-EduOps/contracts/Scholarship.sol\":1708:1759  (bool ok, ) = _borrower.call{value: _principal}(\"\") */\n      pop\n      swap1\n      pop\n        /* \"DeFi-EduOps/contracts/Scholarship.sol\":1777:1779  ok */\n      dup1\n        /* \"DeFi-EduOps/contracts/Scholarship.sol\":1769:1799  require(ok, \"Transfer failed\") */\n      tag_91\n      jumpi\n      mload(0x40)\n      0x08c379a000000000000000000000000000000000000000000000000000000000\n      dup2\n      mstore\n      0x04\n      add\n      tag_92\n      swap1\n      tag_93\n      jump\t// in\n    tag_92:\n      mload(0x40)\n      dup1\n      swap2\n      sub\n      swap1\n      revert\n    tag_91:\n        /* \"DeFi-EduOps/contracts/Scholarship.sol\":1839:1848  _borrower */\n      dup6\n        /* \"DeFi-EduOps/contracts/Scholarship.sol\":1814:1877  LoanCreated(loanCounter, _borrower, _principal, _interest, due) */\n      0xffffffffffffffffffffffffffffffffffffffff\n      and\n        /* \"DeFi-EduOps/contracts/Scholarship.sol\":1826:1837  loanCounter */\n      sload(0x01)\n        /* \"DeFi-EduOps/contracts/Scholarship.sol\":1814:1877  LoanCreated(loanCounter, _borrower, _principal, _interest, due) */\n      0xb2cca1719ad611d325136b9c9a4357f412d33694d93c60d4c1b6e922d524cf59\n        /* \"DeFi-EduOps/contracts/Scholarship.sol\":1850:1860  _principal */\n      dup8\n        /* \"DeFi-EduOps/contracts/Scholarship.sol\":1862:1871  _interest */\n      dup8\n        /* \"DeFi-EduOps/contracts/Scholarship.sol\":1873:1876  due */\n      dup7\n        /* \"DeFi-EduOps/contracts/Scholarship.sol\":1814:1877  LoanCreated(loanCounter, _borrower, _principal, _interest, due) */\n      mload(0x40)\n      tag_94\n      swap4\n      swap3\n      swap2\n      swap1\n      tag_95\n      jump\t// in\n    tag_94:\n      mload(0x40)\n      dup1\n      swap2\n      sub\n      swap1\n      log3\n        /* \"DeFi-EduOps/contracts/Scholarship.sol\":1380:1884  {... */\n      pop\n      pop\n        /* \"DeFi-EduOps/contracts/Scholarship.sol\":1263:1884  function createLoan(address payable _borrower, uint _principal, uint _interest, uint _durationDays) public onlyAdmin {... */\n      pop\n      pop\n      pop\n      pop\n      jump\t// out\n        /* \"DeFi-EduOps/contracts/Scholarship.sol\":1941:2389  function repayLoan(uint _loanId) public payable {... */\n    tag_32:\n        /* \"DeFi-EduOps/contracts/Scholarship.sol\":1999:2013  Loan storage l */\n      0x00\n        /* \"DeFi-EduOps/contracts/Scholarship.sol\":2016:2021  loans */\n      0x02\n        /* \"DeFi-EduOps/contracts/Scholarship.sol\":2016:2030  loans[_loanId] */\n      0x00\n        /* \"DeFi-EduOps/contracts/Scholarship.sol\":2022:2029  _loanId */\n      dup4\n        /* \"DeFi-EduOps/contracts/Scholarship.sol\":2016:2030  loans[_loanId] */\n      dup2\n      mstore\n      0x20\n      add\n      swap1\n      dup2\n      mstore\n      0x20\n      add\n      0x00\n      keccak256\n        /* \"DeFi-EduOps/contracts/Scholarship.sol\":1999:2030  Loan storage l = loans[_loanId] */\n      swap1\n      pop\n        /* \"DeFi-EduOps/contracts/Scholarship.sol\":2056:2057  0 */\n      0x00\n        /* \"DeFi-EduOps/contracts/Scholarship.sol\":2048:2049  l */\n      dup2\n        /* \"DeFi-EduOps/contracts/Scholarship.sol\":2048:2052  l.id */\n      0x00\n      add\n      sload\n        /* \"DeFi-EduOps/contracts/Scholarship.sol\":2048:2057  l.id != 0 */\n      sub\n        /* \"DeFi-EduOps/contracts/Scholarship.sol\":2040:2076  require(l.id != 0, \"Loan not exist\") */\n      tag_97\n      jumpi\n      mload(0x40)\n      0x08c379a000000000000000000000000000000000000000000000000000000000\n      dup2\n      mstore\n      0x04\n      add\n      tag_98\n      swap1\n      tag_99\n      jump\t// in\n    tag_98:\n      mload(0x40)\n      dup1\n      swap2\n      sub\n      swap1\n      revert\n    tag_97:\n        /* \"DeFi-EduOps/contracts/Scholarship.sol\":2095:2096  l */\n      dup1\n        /* \"DeFi-EduOps/contracts/Scholarship.sol\":2095:2103  l.repaid */\n      0x05\n      add\n      0x00\n      swap1\n      sload\n      swap1\n      0x0100\n      exp\n      swap1\n      div\n      0xff\n      and\n        /* \"DeFi-EduOps/contracts/Scholarship.sol\":2094:2103  !l.repaid */\n      iszero\n        /* \"DeFi-EduOps/contracts/Scholarship.sol\":2086:2122  require(!l.repaid, \"Already repaid\") */\n      tag_100\n      jumpi\n      mload(0x40)\n      0x08c379a000000000000000000000000000000000000000000000000000000000\n      dup2\n      mstore\n      0x04\n      add\n      tag_101\n      swap1\n      tag_102\n      jump\t// in\n    tag_101:\n      mload(0x40)\n      dup1\n      swap2\n      sub\n      swap1\n      revert\n    tag_100:\n        /* \"DeFi-EduOps/contracts/Scholarship.sol\":2132:2146  uint dueAmount */\n      0x00\n        /* \"DeFi-EduOps/contracts/Scholarship.sol\":2163:2164  l */\n      dup2\n        /* \"DeFi-EduOps/contracts/Scholarship.sol\":2163:2173  l.interest */\n      0x03\n      add\n      sload\n        /* \"DeFi-EduOps/contracts/Scholarship.sol\":2149:2150  l */\n      dup3\n        /* \"DeFi-EduOps/contracts/Scholarship.sol\":2149:2160  l.principal */\n      0x02\n      add\n      sload\n        /* \"DeFi-EduOps/contracts/Scholarship.sol\":2149:2173  l.principal + l.interest */\n      tag_103\n      swap2\n      swap1\n      tag_82\n      jump\t// in\n    tag_103:\n        /* \"DeFi-EduOps/contracts/Scholarship.sol\":2132:2173  uint dueAmount = l.principal + l.interest */\n      swap1\n      pop\n        /* \"DeFi-EduOps/contracts/Scholarship.sol\":2204:2213  dueAmount */\n      dup1\n        /* \"DeFi-EduOps/contracts/Scholarship.sol\":2191:2200  msg.value */\n      callvalue\n        /* \"DeFi-EduOps/contracts/Scholarship.sol\":2191:2213  msg.value >= dueAmount */\n      lt\n      iszero\n        /* \"DeFi-EduOps/contracts/Scholarship.sol\":2183:2240  require(msg.value >= dueAmount, \"Insufficient repayment\") */\n      tag_104\n      jumpi\n      mload(0x40)\n      0x08c379a000000000000000000000000000000000000000000000000000000000\n      dup2\n      mstore\n      0x04\n      add\n      tag_105\n      swap1\n      tag_106\n      jump\t// in\n    tag_105:\n      mload(0x40)\n      dup1\n      swap2\n      sub\n      swap1\n      revert\n    tag_104:\n        /* \"DeFi-EduOps/contracts/Scholarship.sol\":2261:2265  true */\n      0x01\n        /* \"DeFi-EduOps/contracts/Scholarship.sol\":2250:2251  l */\n      dup3\n        /* \"DeFi-EduOps/contracts/Scholarship.sol\":2250:2258  l.repaid */\n      0x05\n      add\n      0x00\n        /* \"DeFi-EduOps/contracts/Scholarship.sol\":2250:2265  l.repaid = true */\n      0x0100\n      exp\n      dup2\n      sload\n      dup2\n      0xff\n      mul\n      not\n      and\n      swap1\n      dup4\n      iszero\n      iszero\n      mul\n      or\n      swap1\n      sstore\n      pop\n        /* \"DeFi-EduOps/contracts/Scholarship.sol\":2300:2310  msg.sender */\n      caller\n        /* \"DeFi-EduOps/contracts/Scholarship.sol\":2280:2322  LoanRepaid(_loanId, msg.sender, msg.value) */\n      0xffffffffffffffffffffffffffffffffffffffff\n      and\n        /* \"DeFi-EduOps/contracts/Scholarship.sol\":2291:2298  _loanId */\n      dup4\n        /* \"DeFi-EduOps/contracts/Scholarship.sol\":2280:2322  LoanRepaid(_loanId, msg.sender, msg.value) */\n      0x512d3e65b3e58c2187bb1872aa435dba5bd09c1c03823ba56ab70aac411e4a21\n        /* \"DeFi-EduOps/contracts/Scholarship.sol\":2312:2321  msg.value */\n      callvalue\n        /* \"DeFi-EduOps/contracts/Scholarship.sol\":2280:2322  LoanRepaid(_loanId, msg.sender, msg.value) */\n      mload(0x40)\n      tag_107\n      swap2\n      swap1\n      tag_15\n      jump\t// in\n    tag_107:\n      mload(0x40)\n      dup1\n      swap2\n      sub\n      swap1\n      log3\n        /* \"DeFi-EduOps/contracts/Scholarship.sol\":1989:2389  {... */\n      pop\n      pop\n        /* \"DeFi-EduOps/contracts/Scholarship.sol\":1941:2389  function repayLoan(uint _loanId) public payable {... */\n      pop\n      jump\t// out\n        /* \"DeFi-EduOps/contracts/Scholarship.sol\":527:561  mapping(uint => Loan) public loans */\n    tag_36:\n      mstore(0x20, 0x02)\n      dup1\n      0x00\n      mstore\n      keccak256(0x00, 0x40)\n      0x00\n      swap2\n      pop\n      swap1\n      pop\n      dup1\n      0x00\n      add\n      sload\n      swap1\n      dup1\n      0x01\n      add\n      0x00\n      swap1\n      sload\n      swap1\n      0x0100\n      exp\n      swap1\n      div\n      0xffffffffffffffffffffffffffffffffffffffff\n      and\n      swap1\n      dup1\n      0x02\n      add\n      sload\n      swap1\n      dup1\n      0x03\n      add\n      sload\n      swap1\n      dup1\n      0x04\n      add\n      sload\n      swap1\n      dup1\n      0x05\n      add\n      0x00\n      swap1\n      sload\n      swap1\n      0x0100\n      exp\n      swap1\n      div\n      0xff\n      and\n      swap1\n      pop\n      dup7\n      jump\t// out\n        /* \"DeFi-EduOps/contracts/Scholarship.sol\":567:614  mapping(address => uint[]) public borrowerLoans */\n    tag_43:\n      mstore(0x20, 0x03)\n      dup2\n      0x00\n      mstore\n      keccak256(0x00, 0x40)\n      dup2\n      dup2\n      sload\n      dup2\n      lt\n      tag_108\n      jumpi\n      0x00\n      dup1\n      revert\n    tag_108:\n      swap1\n      0x00\n      mstore\n      keccak256(0x00, 0x20)\n      add\n      0x00\n      swap2\n      pop\n      swap2\n      pop\n      pop\n      sload\n      dup2\n      jump\t// out\n        /* \"DeFi-EduOps/contracts/Scholarship.sol\":2744:2873  function getBorrowerLoans(address _borrower) public view returns (uint[] memory) {... */\n    tag_49:\n        /* \"DeFi-EduOps/contracts/Scholarship.sol\":2810:2823  uint[] memory */\n      0x60\n        /* \"DeFi-EduOps/contracts/Scholarship.sol\":2842:2855  borrowerLoans */\n      0x03\n        /* \"DeFi-EduOps/contracts/Scholarship.sol\":2842:2866  borrowerLoans[_borrower] */\n      0x00\n        /* \"DeFi-EduOps/contracts/Scholarship.sol\":2856:2865  _borrower */\n      dup4\n        /* \"DeFi-EduOps/contracts/Scholarship.sol\":2842:2866  borrowerLoans[_borrower] */\n      0xffffffffffffffffffffffffffffffffffffffff\n      and\n      0xffffffffffffffffffffffffffffffffffffffff\n      and\n      dup2\n      mstore\n      0x20\n      add\n      swap1\n      dup2\n      mstore\n      0x20\n      add\n      0x00\n      keccak256\n        /* \"DeFi-EduOps/contracts/Scholarship.sol\":2835:2866  return borrowerLoans[_borrower] */\n      dup1\n      sload\n      dup1\n      0x20\n      mul\n      0x20\n      add\n      mload(0x40)\n      swap1\n      dup2\n      add\n      0x40\n      mstore\n      dup1\n      swap3\n      swap2\n      swap1\n      dup2\n      dup2\n      mstore\n      0x20\n      add\n      dup3\n      dup1\n      sload\n      dup1\n      iszero\n      tag_111\n      jumpi\n      0x20\n      mul\n      dup3\n      add\n      swap2\n      swap1\n      0x00\n      mstore\n      keccak256(0x00, 0x20)\n      swap1\n    tag_112:\n      dup2\n      sload\n      dup2\n      mstore\n      0x20\n      add\n      swap1\n      0x01\n      add\n      swap1\n      dup1\n      dup4\n      gt\n      tag_112\n      jumpi\n    tag_111:\n      pop\n      pop\n      pop\n      pop\n      pop\n      swap1\n      pop\n        /* \"DeFi-EduOps/contracts/Scholarship.sol\":2744:2873  function getBorrowerLoans(address _borrower) public view returns (uint[] memory) {... */\n      swap2\n      swap1\n      pop\n      jump\t// out\n        /* \"DeFi-EduOps/contracts/Scholarship.sol\":282:302  address public admin */\n    tag_54:\n      0x00\n      0x00\n      swap1\n      sload\n      swap1\n      0x0100\n      exp\n      swap1\n      div\n      0xffffffffffffffffffffffffffffffffffffffff\n      and\n      dup2\n      jump\t// out\n        /* \"#utility.yul\":7:84   */\n    tag_113:\n        /* \"#utility.yul\":44:51   */\n      0x00\n        /* \"#utility.yul\":73:78   */\n      dup2\n        /* \"#utility.yul\":62:78   */\n      swap1\n      pop\n        /* \"#utility.yul\":7:84   */\n      swap2\n      swap1\n      pop\n      jump\t// out\n        /* \"#utility.yul\":90:208   */\n    tag_114:\n        /* \"#utility.yul\":177:201   */\n      tag_161\n        /* \"#utility.yul\":195:200   */\n      dup2\n        /* \"#utility.yul\":177:201   */\n      tag_113\n      jump\t// in\n    tag_161:\n        /* \"#utility.yul\":172:175   */\n      dup3\n        /* \"#utility.yul\":165:202   */\n      mstore\n        /* \"#utility.yul\":90:208   */\n      pop\n      pop\n      jump\t// out\n        /* \"#utility.yul\":214:436   */\n    tag_15:\n        /* \"#utility.yul\":307:311   */\n      0x00\n        /* \"#utility.yul\":345:347   */\n      0x20\n        /* \"#utility.yul\":334:343   */\n      dup3\n        /* \"#utility.yul\":330:348   */\n      add\n        /* \"#utility.yul\":322:348   */\n      swap1\n      pop\n        /* \"#utility.yul\":358:429   */\n      tag_163\n        /* \"#utility.yul\":426:427   */\n      0x00\n        /* \"#utility.yul\":415:424   */\n      dup4\n        /* \"#utility.yul\":411:428   */\n      add\n        /* \"#utility.yul\":402:408   */\n      dup5\n        /* \"#utility.yul\":358:429   */\n      tag_114\n      jump\t// in\n    tag_163:\n        /* \"#utility.yul\":214:436   */\n      swap3\n      swap2\n      pop\n      pop\n      jump\t// out\n        /* \"#utility.yul\":523:640   */\n    tag_116:\n        /* \"#utility.yul\":632:633   */\n      0x00\n        /* \"#utility.yul\":629:630   */\n      0x00\n        /* \"#utility.yul\":622:634   */\n      revert\n        /* \"#utility.yul\":769:891   */\n    tag_118:\n        /* \"#utility.yul\":842:866   */\n      tag_168\n        /* \"#utility.yul\":860:865   */\n      dup2\n        /* \"#utility.yul\":842:866   */\n      tag_113\n      jump\t// in\n    tag_168:\n        /* \"#utility.yul\":835:840   */\n      dup2\n        /* \"#utility.yul\":832:867   */\n      eq\n        /* \"#utility.yul\":822:885   */\n      tag_169\n      jumpi\n        /* \"#utility.yul\":881:882   */\n      0x00\n        /* \"#utility.yul\":878:879   */\n      0x00\n        /* \"#utility.yul\":871:883   */\n      revert\n        /* \"#utility.yul\":822:885   */\n    tag_169:\n        /* \"#utility.yul\":769:891   */\n      pop\n      jump\t// out\n        /* \"#utility.yul\":897:1036   */\n    tag_119:\n        /* \"#utility.yul\":943:948   */\n      0x00\n        /* \"#utility.yul\":981:987   */\n      dup2\n        /* \"#utility.yul\":968:988   */\n      calldataload\n        /* \"#utility.yul\":959:988   */\n      swap1\n      pop\n        /* \"#utility.yul\":997:1030   */\n      tag_171\n        /* \"#utility.yul\":1024:1029   */\n      dup2\n        /* \"#utility.yul\":997:1030   */\n      tag_118\n      jump\t// in\n    tag_171:\n        /* \"#utility.yul\":897:1036   */\n      swap3\n      swap2\n      pop\n      pop\n      jump\t// out\n        /* \"#utility.yul\":1042:1371   */\n    tag_23:\n        /* \"#utility.yul\":1101:1107   */\n      0x00\n        /* \"#utility.yul\":1150:1152   */\n      0x20\n        /* \"#utility.yul\":1138:1147   */\n      dup3\n        /* \"#utility.yul\":1129:1136   */\n      dup5\n        /* \"#utility.yul\":1125:1148   */\n      sub\n        /* \"#utility.yul\":1121:1153   */\n      slt\n        /* \"#utility.yul\":1118:1237   */\n      iszero\n      tag_173\n      jumpi\n        /* \"#utility.yul\":1156:1235   */\n      tag_174\n      tag_116\n      jump\t// in\n    tag_174:\n        /* \"#utility.yul\":1118:1237   */\n    tag_173:\n        /* \"#utility.yul\":1276:1277   */\n      0x00\n        /* \"#utility.yul\":1301:1354   */\n      tag_175\n        /* \"#utility.yul\":1346:1353   */\n      dup5\n        /* \"#utility.yul\":1337:1343   */\n      dup3\n        /* \"#utility.yul\":1326:1335   */\n      dup6\n        /* \"#utility.yul\":1322:1344   */\n      add\n        /* \"#utility.yul\":1301:1354   */\n      tag_119\n      jump\t// in\n    tag_175:\n        /* \"#utility.yul\":1291:1354   */\n      swap2\n      pop\n        /* \"#utility.yul\":1247:1364   */\n      pop\n        /* \"#utility.yul\":1042:1371   */\n      swap3\n      swap2\n      pop\n      pop\n      jump\t// out\n        /* \"#utility.yul\":1377:1503   */\n    tag_120:\n        /* \"#utility.yul\":1414:1421   */\n      0x00\n        /* \"#utility.yul\":1454:1496   */\n      0xffffffffffffffffffffffffffffffffffffffff\n        /* \"#utility.yul\":1447:1452   */\n      dup3\n        /* \"#utility.yul\":1443:1497   */\n      and\n        /* \"#utility.yul\":1432:1497   */\n      swap1\n      pop\n        /* \"#utility.yul\":1377:1503   */\n      swap2\n      swap1\n      pop\n      jump\t// out\n        /* \"#utility.yul\":1509:1613   */\n    tag_121:\n        /* \"#utility.yul\":1554:1561   */\n      0x00\n        /* \"#utility.yul\":1583:1607   */\n      tag_178\n        /* \"#utility.yul\":1601:1606   */\n      dup3\n        /* \"#utility.yul\":1583:1607   */\n      tag_120\n      jump\t// in\n    tag_178:\n        /* \"#utility.yul\":1572:1607   */\n      swap1\n      pop\n        /* \"#utility.yul\":1509:1613   */\n      swap2\n      swap1\n      pop\n      jump\t// out\n        /* \"#utility.yul\":1619:1757   */\n    tag_122:\n        /* \"#utility.yul\":1700:1732   */\n      tag_180\n        /* \"#utility.yul\":1726:1731   */\n      dup2\n        /* \"#utility.yul\":1700:1732   */\n      tag_121\n      jump\t// in\n    tag_180:\n        /* \"#utility.yul\":1693:1698   */\n      dup2\n        /* \"#utility.yul\":1690:1733   */\n      eq\n        /* \"#utility.yul\":1680:1751   */\n      tag_181\n      jumpi\n        /* \"#utility.yul\":1747:1748   */\n      0x00\n        /* \"#utility.yul\":1744:1745   */\n      0x00\n        /* \"#utility.yul\":1737:1749   */\n      revert\n        /* \"#utility.yul\":1680:1751   */\n    tag_181:\n        /* \"#utility.yul\":1619:1757   */\n      pop\n      jump\t// out\n        /* \"#utility.yul\":1763:1918   */\n    tag_123:\n        /* \"#utility.yul\":1817:1822   */\n      0x00\n        /* \"#utility.yul\":1855:1861   */\n      dup2\n        /* \"#utility.yul\":1842:1862   */\n      calldataload\n        /* \"#utility.yul\":1833:1862   */\n      swap1\n      pop\n        /* \"#utility.yul\":1871:1912   */\n      tag_183\n        /* \"#utility.yul\":1906:1911   */\n      dup2\n        /* \"#utility.yul\":1871:1912   */\n      tag_122\n      jump\t// in\n    tag_183:\n        /* \"#utility.yul\":1763:1918   */\n      swap3\n      swap2\n      pop\n      pop\n      jump\t// out\n        /* \"#utility.yul\":1924:2705   */\n    tag_28:\n        /* \"#utility.yul\":2018:2024   */\n      0x00\n        /* \"#utility.yul\":2026:2032   */\n      0x00\n        /* \"#utility.yul\":2034:2040   */\n      0x00\n        /* \"#utility.yul\":2042:2048   */\n      0x00\n        /* \"#utility.yul\":2091:2094   */\n      0x80\n        /* \"#utility.yul\":2079:2088   */\n      dup6\n        /* \"#utility.yul\":2070:2077   */\n      dup8\n        /* \"#utility.yul\":2066:2089   */\n      sub\n        /* \"#utility.yul\":2062:2095   */\n      slt\n        /* \"#utility.yul\":2059:2179   */\n      iszero\n      tag_185\n      jumpi\n        /* \"#utility.yul\":2098:2177   */\n      tag_186\n      tag_116\n      jump\t// in\n    tag_186:\n        /* \"#utility.yul\":2059:2179   */\n    tag_185:\n        /* \"#utility.yul\":2218:2219   */\n      0x00\n        /* \"#utility.yul\":2243:2304   */\n      tag_187\n        /* \"#utility.yul\":2296:2303   */\n      dup8\n        /* \"#utility.yul\":2287:2293   */\n      dup3\n        /* \"#utility.yul\":2276:2285   */\n      dup9\n        /* \"#utility.yul\":2272:2294   */\n      add\n        /* \"#utility.yul\":2243:2304   */\n      tag_123\n      jump\t// in\n    tag_187:\n        /* \"#utility.yul\":2233:2304   */\n      swap5\n      pop\n        /* \"#utility.yul\":2189:2314   */\n      pop\n        /* \"#utility.yul\":2353:2355   */\n      0x20\n        /* \"#utility.yul\":2379:2432   */\n      tag_188\n        /* \"#utility.yul\":2424:2431   */\n      dup8\n        /* \"#utility.yul\":2415:2421   */\n      dup3\n        /* \"#utility.yul\":2404:2413   */\n      dup9\n        /* \"#utility.yul\":2400:2422   */\n      add\n        /* \"#utility.yul\":2379:2432   */\n      tag_119\n      jump\t// in\n    tag_188:\n        /* \"#utility.yul\":2369:2432   */\n      swap4\n      pop\n        /* \"#utility.yul\":2324:2442   */\n      pop\n        /* \"#utility.yul\":2481:2483   */\n      0x40\n        /* \"#utility.yul\":2507:2560   */\n      tag_189\n        /* \"#utility.yul\":2552:2559   */\n      dup8\n        /* \"#utility.yul\":2543:2549   */\n      dup3\n        /* \"#utility.yul\":2532:2541   */\n      dup9\n        /* \"#utility.yul\":2528:2550   */\n      add\n        /* \"#utility.yul\":2507:2560   */\n      tag_119\n      jump\t// in\n    tag_189:\n        /* \"#utility.yul\":2497:2560   */\n      swap3\n      pop\n        /* \"#utility.yul\":2452:2570   */\n      pop\n        /* \"#utility.yul\":2609:2611   */\n      0x60\n        /* \"#utility.yul\":2635:2688   */\n      tag_190\n        /* \"#utility.yul\":2680:2687   */\n      dup8\n        /* \"#utility.yul\":2671:2677   */\n      dup3\n        /* \"#utility.yul\":2660:2669   */\n      dup9\n        /* \"#utility.yul\":2656:2678   */\n      add\n        /* \"#utility.yul\":2635:2688   */\n      tag_119\n      jump\t// in\n    tag_190:\n        /* \"#utility.yul\":2625:2688   */\n      swap2\n      pop\n        /* \"#utility.yul\":2580:2698   */\n      pop\n        /* \"#utility.yul\":1924:2705   */\n      swap3\n      swap6\n      swap2\n      swap5\n      pop\n      swap3\n      pop\n      jump\t// out\n        /* \"#utility.yul\":2711:2807   */\n    tag_124:\n        /* \"#utility.yul\":2748:2755   */\n      0x00\n        /* \"#utility.yul\":2777:2801   */\n      tag_192\n        /* \"#utility.yul\":2795:2800   */\n      dup3\n        /* \"#utility.yul\":2777:2801   */\n      tag_120\n      jump\t// in\n    tag_192:\n        /* \"#utility.yul\":2766:2801   */\n      swap1\n      pop\n        /* \"#utility.yul\":2711:2807   */\n      swap2\n      swap1\n      pop\n      jump\t// out\n        /* \"#utility.yul\":2813:2931   */\n    tag_125:\n        /* \"#utility.yul\":2900:2924   */\n      tag_194\n        /* \"#utility.yul\":2918:2923   */\n      dup2\n        /* \"#utility.yul\":2900:2924   */\n      tag_124\n      jump\t// in\n    tag_194:\n        /* \"#utility.yul\":2895:2898   */\n      dup3\n        /* \"#utility.yul\":2888:2925   */\n      mstore\n        /* \"#utility.yul\":2813:2931   */\n      pop\n      pop\n      jump\t// out\n        /* \"#utility.yul\":2937:3027   */\n    tag_126:\n        /* \"#utility.yul\":2971:2978   */\n      0x00\n        /* \"#utility.yul\":3014:3019   */\n      dup2\n        /* \"#utility.yul\":3007:3020   */\n      iszero\n        /* \"#utility.yul\":3000:3021   */\n      iszero\n        /* \"#utility.yul\":2989:3021   */\n      swap1\n      pop\n        /* \"#utility.yul\":2937:3027   */\n      swap2\n      swap1\n      pop\n      jump\t// out\n        /* \"#utility.yul\":3033:3142   */\n    tag_127:\n        /* \"#utility.yul\":3114:3135   */\n      tag_197\n        /* \"#utility.yul\":3129:3134   */\n      dup2\n        /* \"#utility.yul\":3114:3135   */\n      tag_126\n      jump\t// in\n    tag_197:\n        /* \"#utility.yul\":3109:3112   */\n      dup3\n        /* \"#utility.yul\":3102:3136   */\n      mstore\n        /* \"#utility.yul\":3033:3142   */\n      pop\n      pop\n      jump\t// out\n        /* \"#utility.yul\":3148:3911   */\n    tag_38:\n        /* \"#utility.yul\":3375:3379   */\n      0x00\n        /* \"#utility.yul\":3413:3416   */\n      0xc0\n        /* \"#utility.yul\":3402:3411   */\n      dup3\n        /* \"#utility.yul\":3398:3417   */\n      add\n        /* \"#utility.yul\":3390:3417   */\n      swap1\n      pop\n        /* \"#utility.yul\":3427:3498   */\n      tag_199\n        /* \"#utility.yul\":3495:3496   */\n      0x00\n        /* \"#utility.yul\":3484:3493   */\n      dup4\n        /* \"#utility.yul\":3480:3497   */\n      add\n        /* \"#utility.yul\":3471:3477   */\n      dup10\n        /* \"#utility.yul\":3427:3498   */\n      tag_114\n      jump\t// in\n    tag_199:\n        /* \"#utility.yul\":3508:3580   */\n      tag_200\n        /* \"#utility.yul\":3576:3578   */\n      0x20\n        /* \"#utility.yul\":3565:3574   */\n      dup4\n        /* \"#utility.yul\":3561:3579   */\n      add\n        /* \"#utility.yul\":3552:3558   */\n      dup9\n        /* \"#utility.yul\":3508:3580   */\n      tag_125\n      jump\t// in\n    tag_200:\n        /* \"#utility.yul\":3590:3662   */\n      tag_201\n        /* \"#utility.yul\":3658:3660   */\n      0x40\n        /* \"#utility.yul\":3647:3656   */\n      dup4\n        /* \"#utility.yul\":3643:3661   */\n      add\n        /* \"#utility.yul\":3634:3640   */\n      dup8\n        /* \"#utility.yul\":3590:3662   */\n      tag_114\n      jump\t// in\n    tag_201:\n        /* \"#utility.yul\":3672:3744   */\n      tag_202\n        /* \"#utility.yul\":3740:3742   */\n      0x60\n        /* \"#utility.yul\":3729:3738   */\n      dup4\n        /* \"#utility.yul\":3725:3743   */\n      add\n        /* \"#utility.yul\":3716:3722   */\n      dup7\n        /* \"#utility.yul\":3672:3744   */\n      tag_114\n      jump\t// in\n    tag_202:\n        /* \"#utility.yul\":3754:3827   */\n      tag_203\n        /* \"#utility.yul\":3822:3825   */\n      0x80\n        /* \"#utility.yul\":3811:3820   */\n      dup4\n        /* \"#utility.yul\":3807:3826   */\n      add\n        /* \"#utility.yul\":3798:3804   */\n      dup6\n        /* \"#utility.yul\":3754:3827   */\n      tag_114\n      jump\t// in\n    tag_203:\n        /* \"#utility.yul\":3837:3904   */\n      tag_204\n        /* \"#utility.yul\":3899:3902   */\n      0xa0\n        /* \"#utility.yul\":3888:3897   */\n      dup4\n        /* \"#utility.yul\":3884:3903   */\n      add\n        /* \"#utility.yul\":3875:3881   */\n      dup5\n        /* \"#utility.yul\":3837:3904   */\n      tag_127\n      jump\t// in\n    tag_204:\n        /* \"#utility.yul\":3148:3911   */\n      swap8\n      swap7\n      pop\n      pop\n      pop\n      pop\n      pop\n      pop\n      pop\n      jump\t// out\n        /* \"#utility.yul\":3917:4039   */\n    tag_128:\n        /* \"#utility.yul\":3990:4014   */\n      tag_206\n        /* \"#utility.yul\":4008:4013   */\n      dup2\n        /* \"#utility.yul\":3990:4014   */\n      tag_124\n      jump\t// in\n    tag_206:\n        /* \"#utility.yul\":3983:3988   */\n      dup2\n        /* \"#utility.yul\":3980:4015   */\n      eq\n        /* \"#utility.yul\":3970:4033   */\n      tag_207\n      jumpi\n        /* \"#utility.yul\":4029:4030   */\n      0x00\n        /* \"#utility.yul\":4026:4027   */\n      0x00\n        /* \"#utility.yul\":4019:4031   */\n      revert\n        /* \"#utility.yul\":3970:4033   */\n    tag_207:\n        /* \"#utility.yul\":3917:4039   */\n      pop\n      jump\t// out\n        /* \"#utility.yul\":4045:4184   */\n    tag_129:\n        /* \"#utility.yul\":4091:4096   */\n      0x00\n        /* \"#utility.yul\":4129:4135   */\n      dup2\n        /* \"#utility.yul\":4116:4136   */\n      calldataload\n        /* \"#utility.yul\":4107:4136   */\n      swap1\n      pop\n        /* \"#utility.yul\":4145:4178   */\n      tag_209\n        /* \"#utility.yul\":4172:4177   */\n      dup2\n        /* \"#utility.yul\":4145:4178   */\n      tag_128\n      jump\t// in\n    tag_209:\n        /* \"#utility.yul\":4045:4184   */\n      swap3\n      swap2\n      pop\n      pop\n      jump\t// out\n        /* \"#utility.yul\":4190:4664   */\n    tag_42:\n        /* \"#utility.yul\":4258:4264   */\n      0x00\n        /* \"#utility.yul\":4266:4272   */\n      0x00\n        /* \"#utility.yul\":4315:4317   */\n      0x40\n        /* \"#utility.yul\":4303:4312   */\n      dup4\n        /* \"#utility.yul\":4294:4301   */\n      dup6\n        /* \"#utility.yul\":4290:4313   */\n      sub\n        /* \"#utility.yul\":4286:4318   */\n      slt\n        /* \"#utility.yul\":4283:4402   */\n      iszero\n      tag_211\n      jumpi\n        /* \"#utility.yul\":4321:4400   */\n      tag_212\n      tag_116\n      jump\t// in\n    tag_212:\n        /* \"#utility.yul\":4283:4402   */\n    tag_211:\n        /* \"#utility.yul\":4441:4442   */\n      0x00\n        /* \"#utility.yul\":4466:4519   */\n      tag_213\n        /* \"#utility.yul\":4511:4518   */\n      dup6\n        /* \"#utility.yul\":4502:4508   */\n      dup3\n        /* \"#utility.yul\":4491:4500   */\n      dup7\n        /* \"#utility.yul\":4487:4509   */\n      add\n        /* \"#utility.yul\":4466:4519   */\n      tag_129\n      jump\t// in\n    tag_213:\n        /* \"#utility.yul\":4456:4519   */\n      swap3\n      pop\n        /* \"#utility.yul\":4412:4529   */\n      pop\n        /* \"#utility.yul\":4568:4570   */\n      0x20\n        /* \"#utility.yul\":4594:4647   */\n      tag_214\n        /* \"#utility.yul\":4639:4646   */\n      dup6\n        /* \"#utility.yul\":4630:4636   */\n      dup3\n        /* \"#utility.yul\":4619:4628   */\n      dup7\n        /* \"#utility.yul\":4615:4637   */\n      add\n        /* \"#utility.yul\":4594:4647   */\n      tag_119\n      jump\t// in\n    tag_214:\n        /* \"#utility.yul\":4584:4647   */\n      swap2\n      pop\n        /* \"#utility.yul\":4539:4657   */\n      pop\n        /* \"#utility.yul\":4190:4664   */\n      swap3\n      pop\n      swap3\n      swap1\n      pop\n      jump\t// out\n        /* \"#utility.yul\":4670:4999   */\n    tag_48:\n        /* \"#utility.yul\":4729:4735   */\n      0x00\n        /* \"#utility.yul\":4778:4780   */\n      0x20\n        /* \"#utility.yul\":4766:4775   */\n      dup3\n        /* \"#utility.yul\":4757:4764   */\n      dup5\n        /* \"#utility.yul\":4753:4776   */\n      sub\n        /* \"#utility.yul\":4749:4781   */\n      slt\n        /* \"#utility.yul\":4746:4865   */\n      iszero\n      tag_216\n      jumpi\n        /* \"#utility.yul\":4784:4863   */\n      tag_217\n      tag_116\n      jump\t// in\n    tag_217:\n        /* \"#utility.yul\":4746:4865   */\n    tag_216:\n        /* \"#utility.yul\":4904:4905   */\n      0x00\n        /* \"#utility.yul\":4929:4982   */\n      tag_218\n        /* \"#utility.yul\":4974:4981   */\n      dup5\n        /* \"#utility.yul\":4965:4971   */\n      dup3\n        /* \"#utility.yul\":4954:4963   */\n      dup6\n        /* \"#utility.yul\":4950:4972   */\n      add\n        /* \"#utility.yul\":4929:4982   */\n      tag_129\n      jump\t// in\n    tag_218:\n        /* \"#utility.yul\":4919:4982   */\n      swap2\n      pop\n        /* \"#utility.yul\":4875:4992   */\n      pop\n        /* \"#utility.yul\":4670:4999   */\n      swap3\n      swap2\n      pop\n      pop\n      jump\t// out\n        /* \"#utility.yul\":5005:5119   */\n    tag_130:\n        /* \"#utility.yul\":5072:5078   */\n      0x00\n        /* \"#utility.yul\":5106:5111   */\n      dup2\n        /* \"#utility.yul\":5100:5112   */\n      mload\n        /* \"#utility.yul\":5090:5112   */\n      swap1\n      pop\n        /* \"#utility.yul\":5005:5119   */\n      swap2\n      swap1\n      pop\n      jump\t// out\n        /* \"#utility.yul\":5125:5309   */\n    tag_131:\n        /* \"#utility.yul\":5224:5235   */\n      0x00\n        /* \"#utility.yul\":5258:5264   */\n      dup3\n        /* \"#utility.yul\":5253:5256   */\n      dup3\n        /* \"#utility.yul\":5246:5265   */\n      mstore\n        /* \"#utility.yul\":5298:5302   */\n      0x20\n        /* \"#utility.yul\":5293:5296   */\n      dup3\n        /* \"#utility.yul\":5289:5303   */\n      add\n        /* \"#utility.yul\":5274:5303   */\n      swap1\n      pop\n        /* \"#utility.yul\":5125:5309   */\n      swap3\n      swap2\n      pop\n      pop\n      jump\t// out\n        /* \"#utility.yul\":5315:5447   */\n    tag_132:\n        /* \"#utility.yul\":5382:5386   */\n      0x00\n        /* \"#utility.yul\":5405:5408   */\n      dup2\n        /* \"#utility.yul\":5397:5408   */\n      swap1\n      pop\n        /* \"#utility.yul\":5435:5439   */\n      0x20\n        /* \"#utility.yul\":5430:5433   */\n      dup3\n        /* \"#utility.yul\":5426:5440   */\n      add\n        /* \"#utility.yul\":5418:5440   */\n      swap1\n      pop\n        /* \"#utility.yul\":5315:5447   */\n      swap2\n      swap1\n      pop\n      jump\t// out\n        /* \"#utility.yul\":5453:5561   */\n    tag_133:\n        /* \"#utility.yul\":5530:5554   */\n      tag_223\n        /* \"#utility.yul\":5548:5553   */\n      dup2\n        /* \"#utility.yul\":5530:5554   */\n      tag_113\n      jump\t// in\n    tag_223:\n        /* \"#utility.yul\":5525:5528   */\n      dup3\n        /* \"#utility.yul\":5518:5555   */\n      mstore\n        /* \"#utility.yul\":5453:5561   */\n      pop\n      pop\n      jump\t// out\n        /* \"#utility.yul\":5567:5746   */\n    tag_134:\n        /* \"#utility.yul\":5636:5646   */\n      0x00\n        /* \"#utility.yul\":5657:5703   */\n      tag_225\n        /* \"#utility.yul\":5699:5702   */\n      dup4\n        /* \"#utility.yul\":5691:5697   */\n      dup4\n        /* \"#utility.yul\":5657:5703   */\n      tag_133\n      jump\t// in\n    tag_225:\n        /* \"#utility.yul\":5735:5739   */\n      0x20\n        /* \"#utility.yul\":5730:5733   */\n      dup4\n        /* \"#utility.yul\":5726:5740   */\n      add\n        /* \"#utility.yul\":5712:5740   */\n      swap1\n      pop\n        /* \"#utility.yul\":5567:5746   */\n      swap3\n      swap2\n      pop\n      pop\n      jump\t// out\n        /* \"#utility.yul\":5752:5865   */\n    tag_135:\n        /* \"#utility.yul\":5822:5826   */\n      0x00\n        /* \"#utility.yul\":5854:5858   */\n      0x20\n        /* \"#utility.yul\":5849:5852   */\n      dup3\n        /* \"#utility.yul\":5845:5859   */\n      add\n        /* \"#utility.yul\":5837:5859   */\n      swap1\n      pop\n        /* \"#utility.yul\":5752:5865   */\n      swap2\n      swap1\n      pop\n      jump\t// out\n        /* \"#utility.yul\":5901:6633   */\n    tag_136:\n        /* \"#utility.yul\":6020:6023   */\n      0x00\n        /* \"#utility.yul\":6049:6103   */\n      tag_228\n        /* \"#utility.yul\":6097:6102   */\n      dup3\n        /* \"#utility.yul\":6049:6103   */\n      tag_130\n      jump\t// in\n    tag_228:\n        /* \"#utility.yul\":6119:6205   */\n      tag_229\n        /* \"#utility.yul\":6198:6204   */\n      dup2\n        /* \"#utility.yul\":6193:6196   */\n      dup6\n        /* \"#utility.yul\":6119:6205   */\n      tag_131\n      jump\t// in\n    tag_229:\n        /* \"#utility.yul\":6112:6205   */\n      swap4\n      pop\n        /* \"#utility.yul\":6229:6285   */\n      tag_230\n        /* \"#utility.yul\":6279:6284   */\n      dup4\n        /* \"#utility.yul\":6229:6285   */\n      tag_132\n      jump\t// in\n    tag_230:\n        /* \"#utility.yul\":6308:6315   */\n      dup1\n        /* \"#utility.yul\":6339:6340   */\n      0x00\n        /* \"#utility.yul\":6324:6608   */\n    tag_231:\n        /* \"#utility.yul\":6349:6355   */\n      dup4\n        /* \"#utility.yul\":6346:6347   */\n      dup2\n        /* \"#utility.yul\":6343:6356   */\n      lt\n        /* \"#utility.yul\":6324:6608   */\n      iszero\n      tag_233\n      jumpi\n        /* \"#utility.yul\":6425:6431   */\n      dup2\n        /* \"#utility.yul\":6419:6432   */\n      mload\n        /* \"#utility.yul\":6452:6515   */\n      tag_234\n        /* \"#utility.yul\":6511:6514   */\n      dup9\n        /* \"#utility.yul\":6496:6509   */\n      dup3\n        /* \"#utility.yul\":6452:6515   */\n      tag_134\n      jump\t// in\n    tag_234:\n        /* \"#utility.yul\":6445:6515   */\n      swap8\n      pop\n        /* \"#utility.yul\":6538:6598   */\n      tag_235\n        /* \"#utility.yul\":6591:6597   */\n      dup4\n        /* \"#utility.yul\":6538:6598   */\n      tag_135\n      jump\t// in\n    tag_235:\n        /* \"#utility.yul\":6528:6598   */\n      swap3\n      pop\n        /* \"#utility.yul\":6384:6608   */\n      pop\n        /* \"#utility.yul\":6371:6372   */\n      0x01\n        /* \"#utility.yul\":6368:6369   */\n      dup2\n        /* \"#utility.yul\":6364:6373   */\n      add\n        /* \"#utility.yul\":6359:6373   */\n      swap1\n      pop\n        /* \"#utility.yul\":6324:6608   */\n      jump(tag_231)\n    tag_233:\n        /* \"#utility.yul\":6328:6342   */\n      pop\n        /* \"#utility.yul\":6624:6627   */\n      dup6\n        /* \"#utility.yul\":6617:6627   */\n      swap4\n      pop\n        /* \"#utility.yul\":6025:6633   */\n      pop\n      pop\n      pop\n        /* \"#utility.yul\":5901:6633   */\n      swap3\n      swap2\n      pop\n      pop\n      jump\t// out\n        /* \"#utility.yul\":6639:7012   */\n    tag_51:\n        /* \"#utility.yul\":6782:6786   */\n      0x00\n        /* \"#utility.yul\":6820:6822   */\n      0x20\n        /* \"#utility.yul\":6809:6818   */\n      dup3\n        /* \"#utility.yul\":6805:6823   */\n      add\n        /* \"#utility.yul\":6797:6823   */\n      swap1\n      pop\n        /* \"#utility.yul\":6869:6878   */\n      dup2\n        /* \"#utility.yul\":6863:6867   */\n      dup2\n        /* \"#utility.yul\":6859:6879   */\n      sub\n        /* \"#utility.yul\":6855:6856   */\n      0x00\n        /* \"#utility.yul\":6844:6853   */\n      dup4\n        /* \"#utility.yul\":6840:6857   */\n      add\n        /* \"#utility.yul\":6833:6880   */\n      mstore\n        /* \"#utility.yul\":6897:7005   */\n      tag_237\n        /* \"#utility.yul\":7000:7004   */\n      dup2\n        /* \"#utility.yul\":6991:6997   */\n      dup5\n        /* \"#utility.yul\":6897:7005   */\n      tag_136\n      jump\t// in\n    tag_237:\n        /* \"#utility.yul\":6889:7005   */\n      swap1\n      pop\n        /* \"#utility.yul\":6639:7012   */\n      swap3\n      swap2\n      pop\n      pop\n      jump\t// out\n        /* \"#utility.yul\":7018:7240   */\n    tag_56:\n        /* \"#utility.yul\":7111:7115   */\n      0x00\n        /* \"#utility.yul\":7149:7151   */\n      0x20\n        /* \"#utility.yul\":7138:7147   */\n      dup3\n        /* \"#utility.yul\":7134:7152   */\n      add\n        /* \"#utility.yul\":7126:7152   */\n      swap1\n      pop\n        /* \"#utility.yul\":7162:7233   */\n      tag_239\n        /* \"#utility.yul\":7230:7231   */\n      0x00\n        /* \"#utility.yul\":7219:7228   */\n      dup4\n        /* \"#utility.yul\":7215:7232   */\n      add\n        /* \"#utility.yul\":7206:7212   */\n      dup5\n        /* \"#utility.yul\":7162:7233   */\n      tag_125\n      jump\t// in\n    tag_239:\n        /* \"#utility.yul\":7018:7240   */\n      swap3\n      swap2\n      pop\n      pop\n      jump\t// out\n        /* \"#utility.yul\":7246:7415   */\n    tag_137:\n        /* \"#utility.yul\":7330:7341   */\n      0x00\n        /* \"#utility.yul\":7364:7370   */\n      dup3\n        /* \"#utility.yul\":7359:7362   */\n      dup3\n        /* \"#utility.yul\":7352:7371   */\n      mstore\n        /* \"#utility.yul\":7404:7408   */\n      0x20\n        /* \"#utility.yul\":7399:7402   */\n      dup3\n        /* \"#utility.yul\":7395:7409   */\n      add\n        /* \"#utility.yul\":7380:7409   */\n      swap1\n      pop\n        /* \"#utility.yul\":7246:7415   */\n      swap3\n      swap2\n      pop\n      pop\n      jump\t// out\n        /* \"#utility.yul\":7421:7581   */\n    tag_138:\n        /* \"#utility.yul\":7561:7573   */\n      0x4f6e6c792061646d696e00000000000000000000000000000000000000000000\n        /* \"#utility.yul\":7557:7558   */\n      0x00\n        /* \"#utility.yul\":7549:7555   */\n      dup3\n        /* \"#utility.yul\":7545:7559   */\n      add\n        /* \"#utility.yul\":7538:7574   */\n      mstore\n        /* \"#utility.yul\":7421:7581   */\n      pop\n      jump\t// out\n        /* \"#utility.yul\":7587:7953   */\n    tag_139:\n        /* \"#utility.yul\":7729:7732   */\n      0x00\n        /* \"#utility.yul\":7750:7817   */\n      tag_243\n        /* \"#utility.yul\":7814:7816   */\n      0x0a\n        /* \"#utility.yul\":7809:7812   */\n      dup4\n        /* \"#utility.yul\":7750:7817   */\n      tag_137\n      jump\t// in\n    tag_243:\n        /* \"#utility.yul\":7743:7817   */\n      swap2\n      pop\n        /* \"#utility.yul\":7826:7919   */\n      tag_244\n        /* \"#utility.yul\":7915:7918   */\n      dup3\n        /* \"#utility.yul\":7826:7919   */\n      tag_138\n      jump\t// in\n    tag_244:\n        /* \"#utility.yul\":7944:7946   */\n      0x20\n        /* \"#utility.yul\":7939:7942   */\n      dup3\n        /* \"#utility.yul\":7935:7947   */\n      add\n        /* \"#utility.yul\":7928:7947   */\n      swap1\n      pop\n        /* \"#utility.yul\":7587:7953   */\n      swap2\n      swap1\n      pop\n      jump\t// out\n        /* \"#utility.yul\":7959:8378   */\n    tag_60:\n        /* \"#utility.yul\":8125:8129   */\n      0x00\n        /* \"#utility.yul\":8163:8165   */\n      0x20\n        /* \"#utility.yul\":8152:8161   */\n      dup3\n        /* \"#utility.yul\":8148:8166   */\n      add\n        /* \"#utility.yul\":8140:8166   */\n      swap1\n      pop\n        /* \"#utility.yul\":8212:8221   */\n      dup2\n        /* \"#utility.yul\":8206:8210   */\n      dup2\n        /* \"#utility.yul\":8202:8222   */\n      sub\n        /* \"#utility.yul\":8198:8199   */\n      0x00\n        /* \"#utility.yul\":8187:8196   */\n      dup4\n        /* \"#utility.yul\":8183:8200   */\n      add\n        /* \"#utility.yul\":8176:8223   */\n      mstore\n        /* \"#utility.yul\":8240:8371   */\n      tag_246\n        /* \"#utility.yul\":8366:8370   */\n      dup2\n        /* \"#utility.yul\":8240:8371   */\n      tag_139\n      jump\t// in\n    tag_246:\n        /* \"#utility.yul\":8232:8371   */\n      swap1\n      pop\n        /* \"#utility.yul\":7959:8378   */\n      swap2\n      swap1\n      pop\n      jump\t// out\n        /* \"#utility.yul\":8384:8554   */\n    tag_140:\n        /* \"#utility.yul\":8524:8546   */\n      0x496e73756666696369656e742062616c616e6365000000000000000000000000\n        /* \"#utility.yul\":8520:8521   */\n      0x00\n        /* \"#utility.yul\":8512:8518   */\n      dup3\n        /* \"#utility.yul\":8508:8522   */\n      add\n        /* \"#utility.yul\":8501:8547   */\n      mstore\n        /* \"#utility.yul\":8384:8554   */\n      pop\n      jump\t// out\n        /* \"#utility.yul\":8560:8926   */\n    tag_141:\n        /* \"#utility.yul\":8702:8705   */\n      0x00\n        /* \"#utility.yul\":8723:8790   */\n      tag_249\n        /* \"#utility.yul\":8787:8789   */\n      0x14\n        /* \"#utility.yul\":8782:8785   */\n      dup4\n        /* \"#utility.yul\":8723:8790   */\n      tag_137\n      jump\t// in\n    tag_249:\n        /* \"#utility.yul\":8716:8790   */\n      swap2\n      pop\n        /* \"#utility.yul\":8799:8892   */\n      tag_250\n        /* \"#utility.yul\":8888:8891   */\n      dup3\n        /* \"#utility.yul\":8799:8892   */\n      tag_140\n      jump\t// in\n    tag_250:\n        /* \"#utility.yul\":8917:8919   */\n      0x20\n        /* \"#utility.yul\":8912:8915   */\n      dup3\n        /* \"#utility.yul\":8908:8920   */\n      add\n        /* \"#utility.yul\":8901:8920   */\n      swap1\n      pop\n        /* \"#utility.yul\":8560:8926   */\n      swap2\n      swap1\n      pop\n      jump\t// out\n        /* \"#utility.yul\":8932:9351   */\n    tag_64:\n        /* \"#utility.yul\":9098:9102   */\n      0x00\n        /* \"#utility.yul\":9136:9138   */\n      0x20\n        /* \"#utility.yul\":9125:9134   */\n      dup3\n        /* \"#utility.yul\":9121:9139   */\n      add\n        /* \"#utility.yul\":9113:9139   */\n      swap1\n      pop\n        /* \"#utility.yul\":9185:9194   */\n      dup2\n        /* \"#utility.yul\":9179:9183   */\n      dup2\n        /* \"#utility.yul\":9175:9195   */\n      sub\n        /* \"#utility.yul\":9171:9172   */\n      0x00\n        /* \"#utility.yul\":9160:9169   */\n      dup4\n        /* \"#utility.yul\":9156:9173   */\n      add\n        /* \"#utility.yul\":9149:9196   */\n      mstore\n        /* \"#utility.yul\":9213:9344   */\n      tag_252\n        /* \"#utility.yul\":9339:9343   */\n      dup2\n        /* \"#utility.yul\":9213:9344   */\n      tag_141\n      jump\t// in\n    tag_252:\n        /* \"#utility.yul\":9205:9344   */\n      swap1\n      pop\n        /* \"#utility.yul\":8932:9351   */\n      swap2\n      swap1\n      pop\n      jump\t// out\n        /* \"#utility.yul\":9357:9504   */\n    tag_142:\n        /* \"#utility.yul\":9458:9469   */\n      0x00\n        /* \"#utility.yul\":9495:9498   */\n      dup2\n        /* \"#utility.yul\":9480:9498   */\n      swap1\n      pop\n        /* \"#utility.yul\":9357:9504   */\n      swap3\n      swap2\n      pop\n      pop\n      jump\t// out\n        /* \"#utility.yul\":9510:9624   */\n    tag_143:\n      pop\n      jump\t// out\n        /* \"#utility.yul\":9630:10028   */\n    tag_144:\n        /* \"#utility.yul\":9789:9792   */\n      0x00\n        /* \"#utility.yul\":9810:9893   */\n      tag_256\n        /* \"#utility.yul\":9891:9892   */\n      0x00\n        /* \"#utility.yul\":9886:9889   */\n      dup4\n        /* \"#utility.yul\":9810:9893   */\n      tag_142\n      jump\t// in\n    tag_256:\n        /* \"#utility.yul\":9803:9893   */\n      swap2\n      pop\n        /* \"#utility.yul\":9902:9995   */\n      tag_257\n        /* \"#utility.yul\":9991:9994   */\n      dup3\n        /* \"#utility.yul\":9902:9995   */\n      tag_143\n      jump\t// in\n    tag_257:\n        /* \"#utility.yul\":10020:10021   */\n      0x00\n        /* \"#utility.yul\":10015:10018   */\n      dup3\n        /* \"#utility.yul\":10011:10022   */\n      add\n        /* \"#utility.yul\":10004:10022   */\n      swap1\n      pop\n        /* \"#utility.yul\":9630:10028   */\n      swap2\n      swap1\n      pop\n      jump\t// out\n        /* \"#utility.yul\":10034:10413   */\n    tag_66:\n        /* \"#utility.yul\":10218:10221   */\n      0x00\n        /* \"#utility.yul\":10240:10387   */\n      tag_259\n        /* \"#utility.yul\":10383:10386   */\n      dup3\n        /* \"#utility.yul\":10240:10387   */\n      tag_144\n      jump\t// in\n    tag_259:\n        /* \"#utility.yul\":10233:10387   */\n      swap2\n      pop\n        /* \"#utility.yul\":10404:10407   */\n      dup2\n        /* \"#utility.yul\":10397:10407   */\n      swap1\n      pop\n        /* \"#utility.yul\":10034:10413   */\n      swap2\n      swap1\n      pop\n      jump\t// out\n        /* \"#utility.yul\":10419:10584   */\n    tag_145:\n        /* \"#utility.yul\":10559:10576   */\n      0x5769746864726177206661696c65640000000000000000000000000000000000\n        /* \"#utility.yul\":10555:10556   */\n      0x00\n        /* \"#utility.yul\":10547:10553   */\n      dup3\n        /* \"#utility.yul\":10543:10557   */\n      add\n        /* \"#utility.yul\":10536:10577   */\n      mstore\n        /* \"#utility.yul\":10419:10584   */\n      pop\n      jump\t// out\n        /* \"#utility.yul\":10590:10956   */\n    tag_146:\n        /* \"#utility.yul\":10732:10735   */\n      0x00\n        /* \"#utility.yul\":10753:10820   */\n      tag_262\n        /* \"#utility.yul\":10817:10819   */\n      0x0f\n        /* \"#utility.yul\":10812:10815   */\n      dup4\n        /* \"#utility.yul\":10753:10820   */\n      tag_137\n      jump\t// in\n    tag_262:\n        /* \"#utility.yul\":10746:10820   */\n      swap2\n      pop\n        /* \"#utility.yul\":10829:10922   */\n      tag_263\n        /* \"#utility.yul\":10918:10921   */\n      dup3\n        /* \"#utility.yul\":10829:10922   */\n      tag_145\n      jump\t// in\n    tag_263:\n        /* \"#utility.yul\":10947:10949   */\n      0x20\n        /* \"#utility.yul\":10942:10945   */\n      dup3\n        /* \"#utility.yul\":10938:10950   */\n      add\n        /* \"#utility.yul\":10931:10950   */\n      swap1\n      pop\n        /* \"#utility.yul\":10590:10956   */\n      swap2\n      swap1\n      pop\n      jump\t// out\n        /* \"#utility.yul\":10962:11381   */\n    tag_72:\n        /* \"#utility.yul\":11128:11132   */\n      0x00\n        /* \"#utility.yul\":11166:11168   */\n      0x20\n        /* \"#utility.yul\":11155:11164   */\n      dup3\n        /* \"#utility.yul\":11151:11169   */\n      add\n        /* \"#utility.yul\":11143:11169   */\n      swap1\n      pop\n        /* \"#utility.yul\":11215:11224   */\n      dup2\n        /* \"#utility.yul\":11209:11213   */\n      dup2\n        /* \"#utility.yul\":11205:11225   */\n      sub\n        /* \"#utility.yul\":11201:11202   */\n      0x00\n        /* \"#utility.yul\":11190:11199   */\n      dup4\n        /* \"#utility.yul\":11186:11203   */\n      add\n        /* \"#utility.yul\":11179:11226   */\n      mstore\n        /* \"#utility.yul\":11243:11374   */\n      tag_265\n        /* \"#utility.yul\":11369:11373   */\n      dup2\n        /* \"#utility.yul\":11243:11374   */\n      tag_146\n      jump\t// in\n    tag_265:\n        /* \"#utility.yul\":11235:11374   */\n      swap1\n      pop\n        /* \"#utility.yul\":10962:11381   */\n      swap2\n      swap1\n      pop\n      jump\t// out\n        /* \"#utility.yul\":11387:11562   */\n    tag_147:\n        /* \"#utility.yul\":11527:11554   */\n      0x496e73756666696369656e7420706f6f6c2062616c616e636500000000000000\n        /* \"#utility.yul\":11523:11524   */\n      0x00\n        /* \"#utility.yul\":11515:11521   */\n      dup3\n        /* \"#utility.yul\":11511:11525   */\n      add\n        /* \"#utility.yul\":11504:11555   */\n      mstore\n        /* \"#utility.yul\":11387:11562   */\n      pop\n      jump\t// out\n        /* \"#utility.yul\":11568:11934   */\n    tag_148:\n        /* \"#utility.yul\":11710:11713   */\n      0x00\n        /* \"#utility.yul\":11731:11798   */\n      tag_268\n        /* \"#utility.yul\":11795:11797   */\n      0x19\n        /* \"#utility.yul\":11790:11793   */\n      dup4\n        /* \"#utility.yul\":11731:11798   */\n      tag_137\n      jump\t// in\n    tag_268:\n        /* \"#utility.yul\":11724:11798   */\n      swap2\n      pop\n        /* \"#utility.yul\":11807:11900   */\n      tag_269\n        /* \"#utility.yul\":11896:11899   */\n      dup3\n        /* \"#utility.yul\":11807:11900   */\n      tag_147\n      jump\t// in\n    tag_269:\n        /* \"#utility.yul\":11925:11927   */\n      0x20\n        /* \"#utility.yul\":11920:11923   */\n      dup3\n        /* \"#utility.yul\":11916:11928   */\n      add\n        /* \"#utility.yul\":11909:11928   */\n      swap1\n      pop\n        /* \"#utility.yul\":11568:11934   */\n      swap2\n      swap1\n      pop\n      jump\t// out\n        /* \"#utility.yul\":11940:12359   */\n    tag_80:\n        /* \"#utility.yul\":12106:12110   */\n      0x00\n        /* \"#utility.yul\":12144:12146   */\n      0x20\n        /* \"#utility.yul\":12133:12142   */\n      dup3\n        /* \"#utility.yul\":12129:12147   */\n      add\n        /* \"#utility.yul\":12121:12147   */\n      swap1\n      pop\n        /* \"#utility.yul\":12193:12202   */\n      dup2\n        /* \"#utility.yul\":12187:12191   */\n      dup2\n        /* \"#utility.yul\":12183:12203   */\n      sub\n        /* \"#utility.yul\":12179:12180   */\n      0x00\n        /* \"#utility.yul\":12168:12177   */\n      dup4\n        /* \"#utility.yul\":12164:12181   */\n      add\n        /* \"#utility.yul\":12157:12204   */\n      mstore\n        /* \"#utility.yul\":12221:12352   */\n      tag_271\n        /* \"#utility.yul\":12347:12351   */\n      dup2\n        /* \"#utility.yul\":12221:12352   */\n      tag_148\n      jump\t// in\n    tag_271:\n        /* \"#utility.yul\":12213:12352   */\n      swap1\n      pop\n        /* \"#utility.yul\":11940:12359   */\n      swap2\n      swap1\n      pop\n      jump\t// out\n        /* \"#utility.yul\":12365:12545   */\n    tag_149:\n        /* \"#utility.yul\":12413:12490   */\n      0x4e487b7100000000000000000000000000000000000000000000000000000000\n        /* \"#utility.yul\":12410:12411   */\n      0x00\n        /* \"#utility.yul\":12403:12491   */\n      mstore\n        /* \"#utility.yul\":12510:12514   */\n      0x11\n        /* \"#utility.yul\":12507:12508   */\n      0x04\n        /* \"#utility.yul\":12500:12515   */\n      mstore\n        /* \"#utility.yul\":12534:12538   */\n      0x24\n        /* \"#utility.yul\":12531:12532   */\n      0x00\n        /* \"#utility.yul\":12524:12539   */\n      revert\n        /* \"#utility.yul\":12551:12742   */\n    tag_82:\n        /* \"#utility.yul\":12591:12594   */\n      0x00\n        /* \"#utility.yul\":12610:12630   */\n      tag_274\n        /* \"#utility.yul\":12628:12629   */\n      dup3\n        /* \"#utility.yul\":12610:12630   */\n      tag_113\n      jump\t// in\n    tag_274:\n        /* \"#utility.yul\":12605:12630   */\n      swap2\n      pop\n        /* \"#utility.yul\":12644:12664   */\n      tag_275\n        /* \"#utility.yul\":12662:12663   */\n      dup4\n        /* \"#utility.yul\":12644:12664   */\n      tag_113\n      jump\t// in\n    tag_275:\n        /* \"#utility.yul\":12639:12664   */\n      swap3\n      pop\n        /* \"#utility.yul\":12687:12688   */\n      dup3\n        /* \"#utility.yul\":12684:12685   */\n      dup3\n        /* \"#utility.yul\":12680:12689   */\n      add\n        /* \"#utility.yul\":12673:12689   */\n      swap1\n      pop\n        /* \"#utility.yul\":12708:12711   */\n      dup1\n        /* \"#utility.yul\":12705:12706   */\n      dup3\n        /* \"#utility.yul\":12702:12712   */\n      gt\n        /* \"#utility.yul\":12699:12735   */\n      iszero\n      tag_276\n      jumpi\n        /* \"#utility.yul\":12715:12733   */\n      tag_277\n      tag_149\n      jump\t// in\n    tag_277:\n        /* \"#utility.yul\":12699:12735   */\n    tag_276:\n        /* \"#utility.yul\":12551:12742   */\n      swap3\n      swap2\n      pop\n      pop\n      jump\t// out\n        /* \"#utility.yul\":12748:13158   */\n    tag_84:\n        /* \"#utility.yul\":12788:12795   */\n      0x00\n        /* \"#utility.yul\":12811:12831   */\n      tag_279\n        /* \"#utility.yul\":12829:12830   */\n      dup3\n        /* \"#utility.yul\":12811:12831   */\n      tag_113\n      jump\t// in\n    tag_279:\n        /* \"#utility.yul\":12806:12831   */\n      swap2\n      pop\n        /* \"#utility.yul\":12845:12865   */\n      tag_280\n        /* \"#utility.yul\":12863:12864   */\n      dup4\n        /* \"#utility.yul\":12845:12865   */\n      tag_113\n      jump\t// in\n    tag_280:\n        /* \"#utility.yul\":12840:12865   */\n      swap3\n      pop\n        /* \"#utility.yul\":12900:12901   */\n      dup3\n        /* \"#utility.yul\":12897:12898   */\n      dup3\n        /* \"#utility.yul\":12893:12902   */\n      mul\n        /* \"#utility.yul\":12922:12952   */\n      tag_281\n        /* \"#utility.yul\":12940:12951   */\n      dup2\n        /* \"#utility.yul\":12922:12952   */\n      tag_113\n      jump\t// in\n    tag_281:\n        /* \"#utility.yul\":12911:12952   */\n      swap2\n      pop\n        /* \"#utility.yul\":13101:13102   */\n      dup3\n        /* \"#utility.yul\":13092:13099   */\n      dup3\n        /* \"#utility.yul\":13088:13103   */\n      div\n        /* \"#utility.yul\":13085:13086   */\n      dup5\n        /* \"#utility.yul\":13082:13104   */\n      eq\n        /* \"#utility.yul\":13062:13063   */\n      dup4\n        /* \"#utility.yul\":13055:13064   */\n      iszero\n        /* \"#utility.yul\":13035:13118   */\n      or\n        /* \"#utility.yul\":13012:13151   */\n      tag_282\n      jumpi\n        /* \"#utility.yul\":13131:13149   */\n      tag_283\n      tag_149\n      jump\t// in\n    tag_283:\n        /* \"#utility.yul\":13012:13151   */\n    tag_282:\n        /* \"#utility.yul\":12796:13158   */\n      pop\n        /* \"#utility.yul\":12748:13158   */\n      swap3\n      swap2\n      pop\n      pop\n      jump\t// out\n        /* \"#utility.yul\":13164:13329   */\n    tag_150:\n        /* \"#utility.yul\":13304:13321   */\n      0x5472616e73666572206661696c65640000000000000000000000000000000000\n        /* \"#utility.yul\":13300:13301   */\n      0x00\n        /* \"#utility.yul\":13292:13298   */\n      dup3\n        /* \"#utility.yul\":13288:13302   */\n      add\n        /* \"#utility.yul\":13281:13322   */\n      mstore\n        /* \"#utility.yul\":13164:13329   */\n      pop\n      jump\t// out\n        /* \"#utility.yul\":13335:13701   */\n    tag_151:\n        /* \"#utility.yul\":13477:13480   */\n      0x00\n        /* \"#utility.yul\":13498:13565   */\n      tag_286\n        /* \"#utility.yul\":13562:13564   */\n      0x0f\n        /* \"#utility.yul\":13557:13560   */\n      dup4\n        /* \"#utility.yul\":13498:13565   */\n      tag_137\n      jump\t// in\n    tag_286:\n        /* \"#utility.yul\":13491:13565   */\n      swap2\n      pop\n        /* \"#utility.yul\":13574:13667   */\n      tag_287\n        /* \"#utility.yul\":13663:13666   */\n      dup3\n        /* \"#utility.yul\":13574:13667   */\n      tag_150\n      jump\t// in\n    tag_287:\n        /* \"#utility.yul\":13692:13694   */\n      0x20\n        /* \"#utility.yul\":13687:13690   */\n      dup3\n        /* \"#utility.yul\":13683:13695   */\n      add\n        /* \"#utility.yul\":13676:13695   */\n      swap1\n      pop\n        /* \"#utility.yul\":13335:13701   */\n      swap2\n      swap1\n      pop\n      jump\t// out\n        /* \"#utility.yul\":13707:14126   */\n    tag_93:\n        /* \"#utility.yul\":13873:13877   */\n      0x00\n        /* \"#utility.yul\":13911:13913   */\n      0x20\n        /* \"#utility.yul\":13900:13909   */\n      dup3\n        /* \"#utility.yul\":13896:13914   */\n      add\n        /* \"#utility.yul\":13888:13914   */\n      swap1\n      pop\n        /* \"#utility.yul\":13960:13969   */\n      dup2\n        /* \"#utility.yul\":13954:13958   */\n      dup2\n        /* \"#utility.yul\":13950:13970   */\n      sub\n        /* \"#utility.yul\":13946:13947   */\n      0x00\n        /* \"#utility.yul\":13935:13944   */\n      dup4\n        /* \"#utility.yul\":13931:13948   */\n      add\n        /* \"#utility.yul\":13924:13971   */\n      mstore\n        /* \"#utility.yul\":13988:14119   */\n      tag_289\n        /* \"#utility.yul\":14114:14118   */\n      dup2\n        /* \"#utility.yul\":13988:14119   */\n      tag_151\n      jump\t// in\n    tag_289:\n        /* \"#utility.yul\":13980:14119   */\n      swap1\n      pop\n        /* \"#utility.yul\":13707:14126   */\n      swap2\n      swap1\n      pop\n      jump\t// out\n        /* \"#utility.yul\":14132:14574   */\n    tag_95:\n        /* \"#utility.yul\":14281:14285   */\n      0x00\n        /* \"#utility.yul\":14319:14321   */\n      0x60\n        /* \"#utility.yul\":14308:14317   */\n      dup3\n        /* \"#utility.yul\":14304:14322   */\n      add\n        /* \"#utility.yul\":14296:14322   */\n      swap1\n      pop\n        /* \"#utility.yul\":14332:14403   */\n      tag_291\n        /* \"#utility.yul\":14400:14401   */\n      0x00\n        /* \"#utility.yul\":14389:14398   */\n      dup4\n        /* \"#utility.yul\":14385:14402   */\n      add\n        /* \"#utility.yul\":14376:14382   */\n      dup7\n        /* \"#utility.yul\":14332:14403   */\n      tag_114\n      jump\t// in\n    tag_291:\n        /* \"#utility.yul\":14413:14485   */\n      tag_292\n        /* \"#utility.yul\":14481:14483   */\n      0x20\n        /* \"#utility.yul\":14470:14479   */\n      dup4\n        /* \"#utility.yul\":14466:14484   */\n      add\n        /* \"#utility.yul\":14457:14463   */\n      dup6\n        /* \"#utility.yul\":14413:14485   */\n      tag_114\n      jump\t// in\n    tag_292:\n        /* \"#utility.yul\":14495:14567   */\n      tag_293\n        /* \"#utility.yul\":14563:14565   */\n      0x40\n        /* \"#utility.yul\":14552:14561   */\n      dup4\n        /* \"#utility.yul\":14548:14566   */\n      add\n        /* \"#utility.yul\":14539:14545   */\n      dup5\n        /* \"#utility.yul\":14495:14567   */\n      tag_114\n      jump\t// in\n    tag_293:\n        /* \"#utility.yul\":14132:14574   */\n      swap5\n      swap4\n      pop\n      pop\n      pop\n      pop\n      jump\t// out\n        /* \"#utility.yul\":14580:14744   */\n    tag_152:\n        /* \"#utility.yul\":14720:14736   */\n      0x4c6f616e206e6f74206578697374000000000000000000000000000000000000\n        /* \"#utility.yul\":14716:14717   */\n      0x00\n        /* \"#utility.yul\":14708:14714   */\n      dup3\n        /* \"#utility.yul\":14704:14718   */\n      add\n        /* \"#utility.yul\":14697:14737   */\n      mstore\n        /* \"#utility.yul\":14580:14744   */\n      pop\n      jump\t// out\n        /* \"#utility.yul\":14750:15116   */\n    tag_153:\n        /* \"#utility.yul\":14892:14895   */\n      0x00\n        /* \"#utility.yul\":14913:14980   */\n      tag_296\n        /* \"#utility.yul\":14977:14979   */\n      0x0e\n        /* \"#utility.yul\":14972:14975   */\n      dup4\n        /* \"#utility.yul\":14913:14980   */\n      tag_137\n      jump\t// in\n    tag_296:\n        /* \"#utility.yul\":14906:14980   */\n      swap2\n      pop\n        /* \"#utility.yul\":14989:15082   */\n      tag_297\n        /* \"#utility.yul\":15078:15081   */\n      dup3\n        /* \"#utility.yul\":14989:15082   */\n      tag_152\n      jump\t// in\n    tag_297:\n        /* \"#utility.yul\":15107:15109   */\n      0x20\n        /* \"#utility.yul\":15102:15105   */\n      dup3\n        /* \"#utility.yul\":15098:15110   */\n      add\n        /* \"#utility.yul\":15091:15110   */\n      swap1\n      pop\n        /* \"#utility.yul\":14750:15116   */\n      swap2\n      swap1\n      pop\n      jump\t// out\n        /* \"#utility.yul\":15122:15541   */\n    tag_99:\n        /* \"#utility.yul\":15288:15292   */\n      0x00\n        /* \"#utility.yul\":15326:15328   */\n      0x20\n        /* \"#utility.yul\":15315:15324   */\n      dup3\n        /* \"#utility.yul\":15311:15329   */\n      add\n        /* \"#utility.yul\":15303:15329   */\n      swap1\n      pop\n        /* \"#utility.yul\":15375:15384   */\n      dup2\n        /* \"#utility.yul\":15369:15373   */\n      dup2\n        /* \"#utility.yul\":15365:15385   */\n      sub\n        /* \"#utility.yul\":15361:15362   */\n      0x00\n        /* \"#utility.yul\":15350:15359   */\n      dup4\n        /* \"#utility.yul\":15346:15363   */\n      add\n        /* \"#utility.yul\":15339:15386   */\n      mstore\n        /* \"#utility.yul\":15403:15534   */\n      tag_299\n        /* \"#utility.yul\":15529:15533   */\n      dup2\n        /* \"#utility.yul\":15403:15534   */\n      tag_153\n      jump\t// in\n    tag_299:\n        /* \"#utility.yul\":15395:15534   */\n      swap1\n      pop\n        /* \"#utility.yul\":15122:15541   */\n      swap2\n      swap1\n      pop\n      jump\t// out\n        /* \"#utility.yul\":15547:15711   */\n    tag_154:\n        /* \"#utility.yul\":15687:15703   */\n      0x416c726561647920726570616964000000000000000000000000000000000000\n        /* \"#utility.yul\":15683:15684   */\n      0x00\n        /* \"#utility.yul\":15675:15681   */\n      dup3\n        /* \"#utility.yul\":15671:15685   */\n      add\n        /* \"#utility.yul\":15664:15704   */\n      mstore\n        /* \"#utility.yul\":15547:15711   */\n      pop\n      jump\t// out\n        /* \"#utility.yul\":15717:16083   */\n    tag_155:\n        /* \"#utility.yul\":15859:15862   */\n      0x00\n        /* \"#utility.yul\":15880:15947   */\n      tag_302\n        /* \"#utility.yul\":15944:15946   */\n      0x0e\n        /* \"#utility.yul\":15939:15942   */\n      dup4\n        /* \"#utility.yul\":15880:15947   */\n      tag_137\n      jump\t// in\n    tag_302:\n        /* \"#utility.yul\":15873:15947   */\n      swap2\n      pop\n        /* \"#utility.yul\":15956:16049   */\n      tag_303\n        /* \"#utility.yul\":16045:16048   */\n      dup3\n        /* \"#utility.yul\":15956:16049   */\n      tag_154\n      jump\t// in\n    tag_303:\n        /* \"#utility.yul\":16074:16076   */\n      0x20\n        /* \"#utility.yul\":16069:16072   */\n      dup3\n        /* \"#utility.yul\":16065:16077   */\n      add\n        /* \"#utility.yul\":16058:16077   */\n      swap1\n      pop\n        /* \"#utility.yul\":15717:16083   */\n      swap2\n      swap1\n      pop\n      jump\t// out\n        /* \"#utility.yul\":16089:16508   */\n    tag_102:\n        /* \"#utility.yul\":16255:16259   */\n      0x00\n        /* \"#utility.yul\":16293:16295   */\n      0x20\n        /* \"#utility.yul\":16282:16291   */\n      dup3\n        /* \"#utility.yul\":16278:16296   */\n      add\n        /* \"#utility.yul\":16270:16296   */\n      swap1\n      pop\n        /* \"#utility.yul\":16342:16351   */\n      dup2\n        /* \"#utility.yul\":16336:16340   */\n      dup2\n        /* \"#utility.yul\":16332:16352   */\n      sub\n        /* \"#utility.yul\":16328:16329   */\n      0x00\n        /* \"#utility.yul\":16317:16326   */\n      dup4\n        /* \"#utility.yul\":16313:16330   */\n      add\n        /* \"#utility.yul\":16306:16353   */\n      mstore\n        /* \"#utility.yul\":16370:16501   */\n      tag_305\n        /* \"#utility.yul\":16496:16500   */\n      dup2\n        /* \"#utility.yul\":16370:16501   */\n      tag_155\n      jump\t// in\n    tag_305:\n        /* \"#utility.yul\":16362:16501   */\n      swap1\n      pop\n        /* \"#utility.yul\":16089:16508   */\n      swap2\n      swap1\n      pop\n      jump\t// out\n        /* \"#utility.yul\":16514:16686   */\n    tag_156:\n        /* \"#utility.yul\":16654:16678   */\n      0x496e73756666696369656e742072657061796d656e7400000000000000000000\n        /* \"#utility.yul\":16650:16651   */\n      0x00\n        /* \"#utility.yul\":16642:16648   */\n      dup3\n        /* \"#utility.yul\":16638:16652   */\n      add\n        /* \"#utility.yul\":16631:16679   */\n      mstore\n        /* \"#utility.yul\":16514:16686   */\n      pop\n      jump\t// out\n        /* \"#utility.yul\":16692:17058   */\n    tag_157:\n        /* \"#utility.yul\":16834:16837   */\n      0x00\n        /* \"#utility.yul\":16855:16922   */\n      tag_308\n        /* \"#utility.yul\":16919:16921   */\n      0x16\n        /* \"#utility.yul\":16914:16917   */\n      dup4\n        /* \"#utility.yul\":16855:16922   */\n      tag_137\n      jump\t// in\n    tag_308:\n        /* \"#utility.yul\":16848:16922   */\n      swap2\n      pop\n        /* \"#utility.yul\":16931:17024   */\n      tag_309\n        /* \"#utility.yul\":17020:17023   */\n      dup3\n        /* \"#utility.yul\":16931:17024   */\n      tag_156\n      jump\t// in\n    tag_309:\n        /* \"#utility.yul\":17049:17051   */\n      0x20\n        /* \"#utility.yul\":17044:17047   */\n      dup3\n        /* \"#utility.yul\":17040:17052   */\n      add\n        /* \"#utility.yul\":17033:17052   */\n      swap1\n      pop\n        /* \"#utility.yul\":16692:17058   */\n      swap2\n      swap1\n      pop\n      jump\t// out\n        /* \"#utility.yul\":17064:17483   */\n    tag_106:\n        /* \"#utility.yul\":17230:17234   */\n      0x00\n        /* \"#utility.yul\":17268:17270   */\n      0x20\n        /* \"#utility.yul\":17257:17266   */\n      dup3\n        /* \"#utility.yul\":17253:17271   */\n      add\n        /* \"#utility.yul\":17245:17271   */\n      swap1\n      pop\n        /* \"#utility.yul\":17317:17326   */\n      dup2\n        /* \"#utility.yul\":17311:17315   */\n      dup2\n        /* \"#utility.yul\":17307:17327   */\n      sub\n        /* \"#utility.yul\":17303:17304   */\n      0x00\n        /* \"#utility.yul\":17292:17301   */\n      dup4\n        /* \"#utility.yul\":17288:17305   */\n      add\n        /* \"#utility.yul\":17281:17328   */\n      mstore\n        /* \"#utility.yul\":17345:17476   */\n      tag_311\n        /* \"#utility.yul\":17471:17475   */\n      dup2\n        /* \"#utility.yul\":17345:17476   */\n      tag_157\n      jump\t// in\n    tag_311:\n        /* \"#utility.yul\":17337:17476   */\n      swap1\n      pop\n        /* \"#utility.yul\":17064:17483   */\n      swap2\n      swap1\n      pop\n      jump\t// out\n\n    auxdata: 0xa26469706673582212201ff70f97a3d346fe0b064fb6cdc06a3a85f4be2632d644dcb9dbd358784c52c564736f6c634300081e0033\n}\n",
				"bytecode": {
					"linkReferences": {},
					"object": "6080604052348015600e575f5ffd5b50335f5f6101000a81548173ffffffffffffffffffffffffffffffffffffffff021916908373ffffffffffffffffffffffffffffffffffffffff1602179055505f600181905550611271806100625f395ff3fe60806040526004361061007e575f3560e01c8063e1ec3c681161004d578063e1ec3c681461016d578063e3ed1902146101ae578063eee8b7ff146101ea578063f851a44014610226576100d3565b806334d9289e146100d75780637c5b4a37146101015780639e8101c614610129578063ab7b1c8914610151576100d3565b366100d3573373ffffffffffffffffffffffffffffffffffffffff167f543ba50a5eec5e6178218e364b1d0f396157b3c8fa278522c2cb7fd99407d474346040516100c99190610a88565b60405180910390a2005b5f5ffd5b3480156100e2575f5ffd5b506100eb610250565b6040516100f89190610a88565b60405180910390f35b34801561010c575f5ffd5b5061012760048036038101906101229190610acf565b610256565b005b348015610134575f5ffd5b5061014f600480360381019061014a9190610b54565b610461565b005b61016b60048036038101906101669190610acf565b6107b7565b005b348015610178575f5ffd5b50610193600480360381019061018e9190610acf565b61092b565b6040516101a596959493929190610bf2565b60405180910390f35b3480156101b9575f5ffd5b506101d460048036038101906101cf9190610c7b565b61098e565b6040516101e19190610a88565b60405180910390f35b3480156101f5575f5ffd5b50610210600480360381019061020b9190610cb9565b6109b9565b60405161021d9190610d9b565b60405180910390f35b348015610231575f5ffd5b5061023a610a4c565b6040516102479190610dbb565b60405180910390f35b60015481565b5f5f9054906101000a900473ffffffffffffffffffffffffffffffffffffffff1673ffffffffffffffffffffffffffffffffffffffff163373ffffffffffffffffffffffffffffffffffffffff16146102e4576040517f08c379a00000000000000000000000000000000000000000000000000000000081526004016102db90610e2e565b60405180910390fd5b80471015610327576040517f08c379a000000000000000000000000000000000000000000000000000000000815260040161031e90610e96565b60405180910390fd5b5f5f5f9054906101000a900473ffffffffffffffffffffffffffffffffffffffff1673ffffffffffffffffffffffffffffffffffffffff168260405161036c90610ee1565b5f6040518083038185875af1925050503d805f81146103a6576040519150601f19603f3d011682016040523d82523d5f602084013e6103ab565b606091505b50509050806103ef576040517f08c379a00000000000000000000000000000000000000000000000000000000081526004016103e690610f3f565b60405180910390fd5b5f5f9054906101000a900473ffffffffffffffffffffffffffffffffffffffff1673ffffffffffffffffffffffffffffffffffffffff167fba443e8671971c36cdeb74f87321041daff421230cbc5e36cb835269ed1d8b7e836040516104559190610a88565b60405180910390a25050565b5f5f9054906101000a900473ffffffffffffffffffffffffffffffffffffffff1673ffffffffffffffffffffffffffffffffffffffff163373ffffffffffffffffffffffffffffffffffffffff16146104ef576040517f08c379a00000000000000000000000000000000000000000000000000000000081526004016104e690610e2e565b60405180910390fd5b82471015610532576040517f08c379a000000000000000000000000000000000000000000000000000000000815260040161052990610fa7565b60405180910390fd5b6001805f8282546105439190610ff2565b925050819055505f620151808261055a9190611025565b426105659190610ff2565b90506040518060c0016040528060015481526020018673ffffffffffffffffffffffffffffffffffffffff1681526020018581526020018481526020018281526020015f151581525060025f60015481526020019081526020015f205f820151815f01556020820151816001015f6101000a81548173ffffffffffffffffffffffffffffffffffffffff021916908373ffffffffffffffffffffffffffffffffffffffff16021790555060408201518160020155606082015181600301556080820151816004015560a0820151816005015f6101000a81548160ff02191690831515021790555090505060035f8673ffffffffffffffffffffffffffffffffffffffff1673ffffffffffffffffffffffffffffffffffffffff1681526020019081526020015f20600154908060018154018082558091505060019003905f5260205f20015f90919091909150555f8573ffffffffffffffffffffffffffffffffffffffff16856040516106d790610ee1565b5f6040518083038185875af1925050503d805f8114610711576040519150601f19603f3d011682016040523d82523d5f602084013e610716565b606091505b505090508061075a576040517f08c379a0000000000000000000000000000000000000000000000000000000008152600401610751906110b0565b60405180910390fd5b8573ffffffffffffffffffffffffffffffffffffffff166001547fb2cca1719ad611d325136b9c9a4357f412d33694d93c60d4c1b6e922d524cf598787866040516107a7939291906110ce565b60405180910390a3505050505050565b5f60025f8381526020019081526020015f2090505f815f015403610810576040517f08c379a00000000000000000000000000000000000000000000000000000000081526004016108079061114d565b60405180910390fd5b806005015f9054906101000a900460ff1615610861576040517f08c379a0000000000000000000000000000000000000000000000000000000008152600401610858906111b5565b60405180910390fd5b5f816003015482600201546108769190610ff2565b9050803410156108bb576040517f08c379a00000000000000000000000000000000000000000000000000000000081526004016108b29061121d565b60405180910390fd5b6001826005015f6101000a81548160ff0219169083151502179055503373ffffffffffffffffffffffffffffffffffffffff16837f512d3e65b3e58c2187bb1872aa435dba5bd09c1c03823ba56ab70aac411e4a213460405161091e9190610a88565b60405180910390a3505050565b6002602052805f5260405f205f91509050805f015490806001015f9054906101000a900473ffffffffffffffffffffffffffffffffffffffff1690806002015490806003015490806004015490806005015f9054906101000a900460ff16905086565b6003602052815f5260405f2081815481106109a7575f80fd5b905f5260205f20015f91509150505481565b606060035f8373ffffffffffffffffffffffffffffffffffffffff1673ffffffffffffffffffffffffffffffffffffffff1681526020019081526020015f20805480602002602001604051908101604052809291908181526020018280548015610a4057602002820191905f5260205f20905b815481526020019060010190808311610a2c575b50505050509050919050565b5f5f9054906101000a900473ffffffffffffffffffffffffffffffffffffffff1681565b5f819050919050565b610a8281610a70565b82525050565b5f602082019050610a9b5f830184610a79565b92915050565b5f5ffd5b610aae81610a70565b8114610ab8575f5ffd5b50565b5f81359050610ac981610aa5565b92915050565b5f60208284031215610ae457610ae3610aa1565b5b5f610af184828501610abb565b91505092915050565b5f73ffffffffffffffffffffffffffffffffffffffff82169050919050565b5f610b2382610afa565b9050919050565b610b3381610b19565b8114610b3d575f5ffd5b50565b5f81359050610b4e81610b2a565b92915050565b5f5f5f5f60808587031215610b6c57610b6b610aa1565b5b5f610b7987828801610b40565b9450506020610b8a87828801610abb565b9350506040610b9b87828801610abb565b9250506060610bac87828801610abb565b91505092959194509250565b5f610bc282610afa565b9050919050565b610bd281610bb8565b82525050565b5f8115159050919050565b610bec81610bd8565b82525050565b5f60c082019050610c055f830189610a79565b610c126020830188610bc9565b610c1f6040830187610a79565b610c2c6060830186610a79565b610c396080830185610a79565b610c4660a0830184610be3565b979650505050505050565b610c5a81610bb8565b8114610c64575f5ffd5b50565b5f81359050610c7581610c51565b92915050565b5f5f60408385031215610c9157610c90610aa1565b5b5f610c9e85828601610c67565b9250506020610caf85828601610abb565b9150509250929050565b5f60208284031215610cce57610ccd610aa1565b5b5f610cdb84828501610c67565b91505092915050565b5f81519050919050565b5f82825260208201905092915050565b5f819050602082019050919050565b610d1681610a70565b82525050565b5f610d278383610d0d565b60208301905092915050565b5f602082019050919050565b5f610d4982610ce4565b610d538185610cee565b9350610d5e83610cfe565b805f5b83811015610d8e578151610d758882610d1c565b9750610d8083610d33565b925050600181019050610d61565b5085935050505092915050565b5f6020820190508181035f830152610db38184610d3f565b905092915050565b5f602082019050610dce5f830184610bc9565b92915050565b5f82825260208201905092915050565b7f4f6e6c792061646d696e000000000000000000000000000000000000000000005f82015250565b5f610e18600a83610dd4565b9150610e2382610de4565b602082019050919050565b5f6020820190508181035f830152610e4581610e0c565b9050919050565b7f496e73756666696369656e742062616c616e63650000000000000000000000005f82015250565b5f610e80601483610dd4565b9150610e8b82610e4c565b602082019050919050565b5f6020820190508181035f830152610ead81610e74565b9050919050565b5f81905092915050565b50565b5f610ecc5f83610eb4565b9150610ed782610ebe565b5f82019050919050565b5f610eeb82610ec1565b9150819050919050565b7f5769746864726177206661696c656400000000000000000000000000000000005f82015250565b5f610f29600f83610dd4565b9150610f3482610ef5565b602082019050919050565b5f6020820190508181035f830152610f5681610f1d565b9050919050565b7f496e73756666696369656e7420706f6f6c2062616c616e6365000000000000005f82015250565b5f610f91601983610dd4565b9150610f9c82610f5d565b602082019050919050565b5f6020820190508181035f830152610fbe81610f85565b9050919050565b7f4e487b71000000000000000000000000000000000000000000000000000000005f52601160045260245ffd5b5f610ffc82610a70565b915061100783610a70565b925082820190508082111561101f5761101e610fc5565b5b92915050565b5f61102f82610a70565b915061103a83610a70565b925082820261104881610a70565b9150828204841483151761105f5761105e610fc5565b5b5092915050565b7f5472616e73666572206661696c656400000000000000000000000000000000005f82015250565b5f61109a600f83610dd4565b91506110a582611066565b602082019050919050565b5f6020820190508181035f8301526110c78161108e565b9050919050565b5f6060820190506110e15f830186610a79565b6110ee6020830185610a79565b6110fb6040830184610a79565b949350505050565b7f4c6f616e206e6f742065786973740000000000000000000000000000000000005f82015250565b5f611137600e83610dd4565b915061114282611103565b602082019050919050565b5f6020820190508181035f8301526111648161112b565b9050919050565b7f416c7265616479207265706169640000000000000000000000000000000000005f82015250565b5f61119f600e83610dd4565b91506111aa8261116b565b602082019050919050565b5f6020820190508181035f8301526111cc81611193565b9050919050565b7f496e73756666696369656e742072657061796d656e74000000000000000000005f82015250565b5f611207601683610dd4565b9150611212826111d3565b602082019050919050565b5f6020820190508181035f830152611234816111fb565b905091905056fea26469706673582212201ff70f97a3d346fe0b064fb6cdc06a3a85f4be2632d644dcb9dbd358784c52c564736f6c634300081e0033",
					"opcodes": "PUSH1 0x80 PUSH1 0x40 MSTORE CALLVALUE DUP1 ISZERO PUSH1 0xE JUMPI PUSH0 PUSH0 REVERT JUMPDEST POP CALLER PUSH0 PUSH0 PUSH2 0x100 EXP DUP2 SLOAD DUP2 PUSH20 0xFFFFFFFFFFFFFFFFFFFFFFFFFFFFFFFFFFFFFFFF MUL NOT AND SWAP1 DUP4 PUSH20 0xFFFFFFFFFFFFFFFFFFFFFFFFFFFFFFFFFFFFFFFF AND MUL OR SWAP1 SSTORE POP PUSH0 PUSH1 0x1 DUP2 SWAP1 SSTORE POP PUSH2 0x1271 DUP1 PUSH2 0x62 PUSH0 CODECOPY PUSH0 RETURN INVALID PUSH1 0x80 PUSH1 0x40 MSTORE PUSH1 0x4 CALLDATASIZE LT PUSH2 0x7E JUMPI PUSH0 CALLDATALOAD PUSH1 0xE0 SHR DUP1 PUSH4 0xE1EC3C68 GT PUSH2 0x4D JUMPI DUP1 PUSH4 0xE1EC3C68 EQ PUSH2 0x16D JUMPI DUP1 PUSH4 0xE3ED1902 EQ PUSH2 0x1AE JUMPI DUP1 PUSH4 0xEEE8B7FF EQ PUSH2 0x1EA JUMPI DUP1 PUSH4 0xF851A440 EQ PUSH2 0x226 JUMPI PUSH2 0xD3 JUMP JUMPDEST DUP1 PUSH4 0x34D9289E EQ PUSH2 0xD7 JUMPI DUP1 PUSH4 0x7C5B4A37 EQ PUSH2 0x101 JUMPI DUP1 PUSH4 0x9E8101C6 EQ PUSH2 0x129 JUMPI DUP1 PUSH4 0xAB7B1C89 EQ PUSH2 0x151 JUMPI PUSH2 0xD3 JUMP JUMPDEST CALLDATASIZE PUSH2 0xD3 JUMPI CALLER PUSH20 0xFFFFFFFFFFFFFFFFFFFFFFFFFFFFFFFFFFFFFFFF AND PUSH32 0x543BA50A5EEC5E6178218E364B1D0F396157B3C8FA278522C2CB7FD99407D474 CALLVALUE PUSH1 0x40 MLOAD PUSH2 0xC9 SWAP2 SWAP1 PUSH2 0xA88 JUMP JUMPDEST PUSH1 0x40 MLOAD DUP1 SWAP2 SUB SWAP1 LOG2 STOP JUMPDEST PUSH0 PUSH0 REVERT JUMPDEST CALLVALUE DUP1 ISZERO PUSH2 0xE2 JUMPI PUSH0 PUSH0 REVERT JUMPDEST POP PUSH2 0xEB PUSH2 0x250 JUMP JUMPDEST PUSH1 0x40 MLOAD PUSH2 0xF8 SWAP2 SWAP1 PUSH2 0xA88 JUMP JUMPDEST PUSH1 0x40 MLOAD DUP1 SWAP2 SUB SWAP1 RETURN JUMPDEST CALLVALUE DUP1 ISZERO PUSH2 0x10C JUMPI PUSH0 PUSH0 REVERT JUMPDEST POP PUSH2 0x127 PUSH1 0x4 DUP1 CALLDATASIZE SUB DUP2 ADD SWAP1 PUSH2 0x122 SWAP2 SWAP1 PUSH2 0xACF JUMP JUMPDEST PUSH2 0x256 JUMP JUMPDEST STOP JUMPDEST CALLVALUE DUP1 ISZERO PUSH2 0x134 JUMPI PUSH0 PUSH0 REVERT JUMPDEST POP PUSH2 0x14F PUSH1 0x4 DUP1 CALLDATASIZE SUB DUP2 ADD SWAP1 PUSH2 0x14A SWAP2 SWAP1 PUSH2 0xB54 JUMP JUMPDEST PUSH2 0x461 JUMP JUMPDEST STOP JUMPDEST PUSH2 0x16B PUSH1 0x4 DUP1 CALLDATASIZE SUB DUP2 ADD SWAP1 PUSH2 0x166 SWAP2 SWAP1 PUSH2 0xACF JUMP JUMPDEST PUSH2 0x7B7 JUMP JUMPDEST STOP JUMPDEST CALLVALUE DUP1 ISZERO PUSH2 0x178 JUMPI PUSH0 PUSH0 REVERT JUMPDEST POP PUSH2 0x193 PUSH1 0x4 DUP1 CALLDATASIZE SUB DUP2 ADD SWAP1 PUSH2 0x18E SWAP2 SWAP1 PUSH2 0xACF JUMP JUMPDEST PUSH2 0x92B JUMP JUMPDEST PUSH1 0x40 MLOAD PUSH2 0x1A5 SWAP7 SWAP6 SWAP5 SWAP4 SWAP3 SWAP2 SWAP1 PUSH2 0xBF2 JUMP JUMPDEST PUSH1 0x40 MLOAD DUP1 SWAP2 SUB SWAP1 RETURN JUMPDEST CALLVALUE DUP1 ISZERO PUSH2 0x1B9 JUMPI PUSH0 PUSH0 REVERT JUMPDEST POP PUSH2 0x1D4 PUSH1 0x4 DUP1 CALLDATASIZE SUB DUP2 ADD SWAP1 PUSH2 0x1CF SWAP2 SWAP1 PUSH2 0xC7B JUMP JUMPDEST PUSH2 0x98E JUMP JUMPDEST PUSH1 0x40 MLOAD PUSH2 0x1E1 SWAP2 SWAP1 PUSH2 0xA88 JUMP JUMPDEST PUSH1 0x40 MLOAD DUP1 SWAP2 SUB SWAP1 RETURN JUMPDEST CALLVALUE DUP1 ISZERO PUSH2 0x1F5 JUMPI PUSH0 PUSH0 REVERT JUMPDEST POP PUSH2 0x210 PUSH1 0x4 DUP1 CALLDATASIZE SUB DUP2 ADD SWAP1 PUSH2 0x20B SWAP2 SWAP1 PUSH2 0xCB9 JUMP JUMPDEST PUSH2 0x9B9 JUMP JUMPDEST PUSH1 0x40 MLOAD PUSH2 0x21D SWAP2 SWAP1 PUSH2 0xD9B JUMP JUMPDEST PUSH1 0x40 MLOAD DUP1 SWAP2 SUB SWAP1 RETURN JUMPDEST CALLVALUE DUP1 ISZERO PUSH2 0x231 JUMPI PUSH0 PUSH0 REVERT JUMPDEST POP PUSH2 0x23A PUSH2 0xA4C JUMP JUMPDEST PUSH1 0x40 MLOAD PUSH2 0x247 SWAP2 SWAP1 PUSH2 0xDBB JUMP JUMPDEST PUSH1 0x40 MLOAD DUP1 SWAP2 SUB SWAP1 RETURN JUMPDEST PUSH1 0x1 SLOAD DUP2 JUMP JUMPDEST PUSH0 PUSH0 SWAP1 SLOAD SWAP1 PUSH2 0x100 EXP SWAP1 DIV PUSH20 0xFFFFFFFFFFFFFFFFFFFFFFFFFFFFFFFFFFFFFFFF AND PUSH20 0xFFFFFFFFFFFFFFFFFFFFFFFFFFFFFFFFFFFFFFFF AND CALLER PUSH20 0xFFFFFFFFFFFFFFFFFFFFFFFFFFFFFFFFFFFFFFFF AND EQ PUSH2 0x2E4 JUMPI PUSH1 0x40 MLOAD PUSH32 0x8C379A000000000000000000000000000000000000000000000000000000000 DUP2 MSTORE PUSH1 0x4 ADD PUSH2 0x2DB SWAP1 PUSH2 0xE2E JUMP JUMPDEST PUSH1 0x40 MLOAD DUP1 SWAP2 SUB SWAP1 REVERT JUMPDEST DUP1 SELFBALANCE LT ISZERO PUSH2 0x327 JUMPI PUSH1 0x40 MLOAD PUSH32 0x8C379A000000000000000000000000000000000000000000000000000000000 DUP2 MSTORE PUSH1 0x4 ADD PUSH2 0x31E SWAP1 PUSH2 0xE96 JUMP JUMPDEST PUSH1 0x40 MLOAD DUP1 SWAP2 SUB SWAP1 REVERT JUMPDEST PUSH0 PUSH0 PUSH0 SWAP1 SLOAD SWAP1 PUSH2 0x100 EXP SWAP1 DIV PUSH20 0xFFFFFFFFFFFFFFFFFFFFFFFFFFFFFFFFFFFFFFFF AND PUSH20 0xFFFFFFFFFFFFFFFFFFFFFFFFFFFFFFFFFFFFFFFF AND DUP3 PUSH1 0x40 MLOAD PUSH2 0x36C SWAP1 PUSH2 0xEE1 JUMP JUMPDEST PUSH0 PUSH1 0x40 MLOAD DUP1 DUP4 SUB DUP2 DUP6 DUP8 GAS CALL SWAP3 POP POP POP RETURNDATASIZE DUP1 PUSH0 DUP2 EQ PUSH2 0x3A6 JUMPI PUSH1 0x40 MLOAD SWAP2 POP PUSH1 0x1F NOT PUSH1 0x3F RETURNDATASIZE ADD AND DUP3 ADD PUSH1 0x40 MSTORE RETURNDATASIZE DUP3 MSTORE RETURNDATASIZE PUSH0 PUSH1 0x20 DUP5 ADD RETURNDATACOPY PUSH2 0x3AB JUMP JUMPDEST PUSH1 0x60 SWAP2 POP JUMPDEST POP POP SWAP1 POP DUP1 PUSH2 0x3EF JUMPI PUSH1 0x40 MLOAD PUSH32 0x8C379A000000000000000000000000000000000000000000000000000000000 DUP2 MSTORE PUSH1 0x4 ADD PUSH2 0x3E6 SWAP1 PUSH2 0xF3F JUMP JUMPDEST PUSH1 0x40 MLOAD DUP1 SWAP2 SUB SWAP1 REVERT JUMPDEST PUSH0 PUSH0 SWAP1 SLOAD SWAP1 PUSH2 0x100 EXP SWAP1 DIV PUSH20 0xFFFFFFFFFFFFFFFFFFFFFFFFFFFFFFFFFFFFFFFF AND PUSH20 0xFFFFFFFFFFFFFFFFFFFFFFFFFFFFFFFFFFFFFFFF AND PUSH32 0xBA443E8671971C36CDEB74F87321041DAFF421230CBC5E36CB835269ED1D8B7E DUP4 PUSH1 0x40 MLOAD PUSH2 0x455 SWAP2 SWAP1 PUSH2 0xA88 JUMP JUMPDEST PUSH1 0x40 MLOAD DUP1 SWAP2 SUB SWAP1 LOG2 POP POP JUMP JUMPDEST PUSH0 PUSH0 SWAP1 SLOAD SWAP1 PUSH2 0x100 EXP SWAP1 DIV PUSH20 0xFFFFFFFFFFFFFFFFFFFFFFFFFFFFFFFFFFFFFFFF AND PUSH20 0xFFFFFFFFFFFFFFFFFFFFFFFFFFFFFFFFFFFFFFFF AND CALLER PUSH20 0xFFFFFFFFFFFFFFFFFFFFFFFFFFFFFFFFFFFFFFFF AND EQ PUSH2 0x4EF JUMPI PUSH1 0x40 MLOAD PUSH32 0x8C379A000000000000000000000000000000000000000000000000000000000 DUP2 MSTORE PUSH1 0x4 ADD PUSH2 0x4E6 SWAP1 PUSH2 0xE2E JUMP JUMPDEST PUSH1 0x40 MLOAD DUP1 SWAP2 SUB SWAP1 REVERT JUMPDEST DUP3 SELFBALANCE LT ISZERO PUSH2 0x532 JUMPI PUSH1 0x40 MLOAD PUSH32 0x8C379A000000000000000000000000000000000000000000000000000000000 DUP2 MSTORE PUSH1 0x4 ADD PUSH2 0x529 SWAP1 PUSH2 0xFA7 JUMP JUMPDEST PUSH1 0x40 MLOAD DUP1 SWAP2 SUB SWAP1 REVERT JUMPDEST PUSH1 0x1 DUP1 PUSH0 DUP3 DUP3 SLOAD PUSH2 0x543 SWAP2 SWAP1 PUSH2 0xFF2 JUMP JUMPDEST SWAP3 POP POP DUP2 SWAP1 SSTORE POP PUSH0 PUSH3 0x15180 DUP3 PUSH2 0x55A SWAP2 SWAP1 PUSH2 0x1025 JUMP JUMPDEST TIMESTAMP PUSH2 0x565 SWAP2 SWAP1 PUSH2 0xFF2 JUMP JUMPDEST SWAP1 POP PUSH1 0x40 MLOAD DUP1 PUSH1 0xC0 ADD PUSH1 0x40 MSTORE DUP1 PUSH1 0x1 SLOAD DUP2 MSTORE PUSH1 0x20 ADD DUP7 PUSH20 0xFFFFFFFFFFFFFFFFFFFFFFFFFFFFFFFFFFFFFFFF AND DUP2 MSTORE PUSH1 0x20 ADD DUP6 DUP2 MSTORE PUSH1 0x20 ADD DUP5 DUP2 MSTORE PUSH1 0x20 ADD DUP3 DUP2 MSTORE PUSH1 0x20 ADD PUSH0 ISZERO ISZERO DUP2 MSTORE POP PUSH1 0x2 PUSH0 PUSH1 0x1 SLOAD DUP2 MSTORE PUSH1 0x20 ADD SWAP1 DUP2 MSTORE PUSH1 0x20 ADD PUSH0 KECCAK256 PUSH0 DUP3 ADD MLOAD DUP2 PUSH0 ADD SSTORE PUSH1 0x20 DUP3 ADD MLOAD DUP2 PUSH1 0x1 ADD PUSH0 PUSH2 0x100 EXP DUP2 SLOAD DUP2 PUSH20 0xFFFFFFFFFFFFFFFFFFFFFFFFFFFFFFFFFFFFFFFF MUL NOT AND SWAP1 DUP4 PUSH20 0xFFFFFFFFFFFFFFFFFFFFFFFFFFFFFFFFFFFFFFFF AND MUL OR SWAP1 SSTORE POP PUSH1 0x40 DUP3 ADD MLOAD DUP2 PUSH1 0x2 ADD SSTORE PUSH1 0x60 DUP3 ADD MLOAD DUP2 PUSH1 0x3 ADD SSTORE PUSH1 0x80 DUP3 ADD MLOAD DUP2 PUSH1 0x4 ADD SSTORE PUSH1 0xA0 DUP3 ADD MLOAD DUP2 PUSH1 0x5 ADD PUSH0 PUSH2 0x100 EXP DUP2 SLOAD DUP2 PUSH1 0xFF MUL NOT AND SWAP1 DUP4 ISZERO ISZERO MUL OR SWAP1 SSTORE POP SWAP1 POP POP PUSH1 0x3 PUSH0 DUP7 PUSH20 0xFFFFFFFFFFFFFFFFFFFFFFFFFFFFFFFFFFFFFFFF AND PUSH20 0xFFFFFFFFFFFFFFFFFFFFFFFFFFFFFFFFFFFFFFFF AND DUP2 MSTORE PUSH1 0x20 ADD SWAP1 DUP2 MSTORE PUSH1 0x20 ADD PUSH0 KECCAK256 PUSH1 0x1 SLOAD SWAP1 DUP1 PUSH1 0x1 DUP2 SLOAD ADD DUP1 DUP3 SSTORE DUP1 SWAP2 POP POP PUSH1 0x1 SWAP1 SUB SWAP1 PUSH0 MSTORE PUSH1 0x20 PUSH0 KECCAK256 ADD PUSH0 SWAP1 SWAP2 SWAP1 SWAP2 SWAP1 SWAP2 POP SSTORE PUSH0 DUP6 PUSH20 0xFFFFFFFFFFFFFFFFFFFFFFFFFFFFFFFFFFFFFFFF AND DUP6 PUSH1 0x40 MLOAD PUSH2 0x6D7 SWAP1 PUSH2 0xEE1 JUMP JUMPDEST PUSH0 PUSH1 0x40 MLOAD DUP1 DUP4 SUB DUP2 DUP6 DUP8 GAS CALL SWAP3 POP POP POP RETURNDATASIZE DUP1 PUSH0 DUP2 EQ PUSH2 0x711 JUMPI PUSH1 0x40 MLOAD SWAP2 POP PUSH1 0x1F NOT PUSH1 0x3F RETURNDATASIZE ADD AND DUP3 ADD PUSH1 0x40 MSTORE RETURNDATASIZE DUP3 MSTORE RETURNDATASIZE PUSH0 PUSH1 0x20 DUP5 ADD RETURNDATACOPY PUSH2 0x716 JUMP JUMPDEST PUSH1 0x60 SWAP2 POP JUMPDEST POP POP SWAP1 POP DUP1 PUSH2 0x75A JUMPI PUSH1 0x40 MLOAD PUSH32 0x8C379A000000000000000000000000000000000000000000000000000000000 DUP2 MSTORE PUSH1 0x4 ADD PUSH2 0x751 SWAP1 PUSH2 0x10B0 JUMP JUMPDEST PUSH1 0x40 MLOAD DUP1 SWAP2 SUB SWAP1 REVERT JUMPDEST DUP6 PUSH20 0xFFFFFFFFFFFFFFFFFFFFFFFFFFFFFFFFFFFFFFFF AND PUSH1 0x1 SLOAD PUSH32 0xB2CCA1719AD611D325136B9C9A4357F412D33694D93C60D4C1B6E922D524CF59 DUP8 DUP8 DUP7 PUSH1 0x40 MLOAD PUSH2 0x7A7 SWAP4 SWAP3 SWAP2 SWAP1 PUSH2 0x10CE JUMP JUMPDEST PUSH1 0x40 MLOAD DUP1 SWAP2 SUB SWAP1 LOG3 POP POP POP POP POP POP JUMP JUMPDEST PUSH0 PUSH1 0x2 PUSH0 DUP4 DUP2 MSTORE PUSH1 0x20 ADD SWAP1 DUP2 MSTORE PUSH1 0x20 ADD PUSH0 KECCAK256 SWAP1 POP PUSH0 DUP2 PUSH0 ADD SLOAD SUB PUSH2 0x810 JUMPI PUSH1 0x40 MLOAD PUSH32 0x8C379A000000000000000000000000000000000000000000000000000000000 DUP2 MSTORE PUSH1 0x4 ADD PUSH2 0x807 SWAP1 PUSH2 0x114D JUMP JUMPDEST PUSH1 0x40 MLOAD DUP1 SWAP2 SUB SWAP1 REVERT JUMPDEST DUP1 PUSH1 0x5 ADD PUSH0 SWAP1 SLOAD SWAP1 PUSH2 0x100 EXP SWAP1 DIV PUSH1 0xFF AND ISZERO PUSH2 0x861 JUMPI PUSH1 0x40 MLOAD PUSH32 0x8C379A000000000000000000000000000000000000000000000000000000000 DUP2 MSTORE PUSH1 0x4 ADD PUSH2 0x858 SWAP1 PUSH2 0x11B5 JUMP JUMPDEST PUSH1 0x40 MLOAD DUP1 SWAP2 SUB SWAP1 REVERT JUMPDEST PUSH0 DUP2 PUSH1 0x3 ADD SLOAD DUP3 PUSH1 0x2 ADD SLOAD PUSH2 0x876 SWAP2 SWAP1 PUSH2 0xFF2 JUMP JUMPDEST SWAP1 POP DUP1 CALLVALUE LT ISZERO PUSH2 0x8BB JUMPI PUSH1 0x40 MLOAD PUSH32 0x8C379A000000000000000000000000000000000000000000000000000000000 DUP2 MSTORE PUSH1 0x4 ADD PUSH2 0x8B2 SWAP1 PUSH2 0x121D JUMP JUMPDEST PUSH1 0x40 MLOAD DUP1 SWAP2 SUB SWAP1 REVERT JUMPDEST PUSH1 0x1 DUP3 PUSH1 0x5 ADD PUSH0 PUSH2 0x100 EXP DUP2 SLOAD DUP2 PUSH1 0xFF MUL NOT AND SWAP1 DUP4 ISZERO ISZERO MUL OR SWAP1 SSTORE POP CALLER PUSH20 0xFFFFFFFFFFFFFFFFFFFFFFFFFFFFFFFFFFFFFFFF AND DUP4 PUSH32 0x512D3E65B3E58C2187BB1872AA435DBA5BD09C1C03823BA56AB70AAC411E4A21 CALLVALUE PUSH1 0x40 MLOAD PUSH2 0x91E SWAP2 SWAP1 PUSH2 0xA88 JUMP JUMPDEST PUSH1 0x40 MLOAD DUP1 SWAP2 SUB SWAP1 LOG3 POP POP POP JUMP JUMPDEST PUSH1 0x2 PUSH1 0x20 MSTORE DUP1 PUSH0 MSTORE PUSH1 0x40 PUSH0 KECCAK256 PUSH0 SWAP2 POP SWAP1 POP DUP1 PUSH0 ADD SLOAD SWAP1 DUP1 PUSH1 0x1 ADD PUSH0 SWAP1 SLOAD SWAP1 PUSH2 0x100 EXP SWAP1 DIV PUSH20 0xFFFFFFFFFFFFFFFFFFFFFFFFFFFFFFFFFFFFFFFF AND SWAP1 DUP1 PUSH1 0x2 ADD SLOAD SWAP1 DUP1 PUSH1 0x3 ADD SLOAD SWAP1 DUP1 PUSH1 0x4 ADD SLOAD SWAP1 DUP1 PUSH1 0x5 ADD PUSH0 SWAP1 SLOAD SWAP1 PUSH2 0x100 EXP SWAP1 DIV PUSH1 0xFF AND SWAP1 POP DUP7 JUMP JUMPDEST PUSH1 0x3 PUSH1 0x20 MSTORE DUP2 PUSH0 MSTORE PUSH1 0x40 PUSH0 KECCAK256 DUP2 DUP2 SLOAD DUP2 LT PUSH2 0x9A7 JUMPI PUSH0 DUP1 REVERT JUMPDEST SWAP1 PUSH0 MSTORE PUSH1 0x20 PUSH0 KECCAK256 ADD PUSH0 SWAP2 POP SWAP2 POP POP SLOAD DUP2 JUMP JUMPDEST PUSH1 0x60 PUSH1 0x3 PUSH0 DUP4 PUSH20 0xFFFFFFFFFFFFFFFFFFFFFFFFFFFFFFFFFFFFFFFF AND PUSH20 0xFFFFFFFFFFFFFFFFFFFFFFFFFFFFFFFFFFFFFFFF AND DUP2 MSTORE PUSH1 0x20 ADD SWAP1 DUP2 MSTORE PUSH1 0x20 ADD PUSH0 KECCAK256 DUP1 SLOAD DUP1 PUSH1 0x20 MUL PUSH1 0x20 ADD PUSH1 0x40 MLOAD SWAP1 DUP2 ADD PUSH1 0x40 MSTORE DUP1 SWAP3 SWAP2 SWAP1 DUP2 DUP2 MSTORE PUSH1 0x20 ADD DUP3 DUP1 SLOAD DUP1 ISZERO PUSH2 0xA40 JUMPI PUSH1 0x20 MUL DUP3 ADD SWAP2 SWAP1 PUSH0 MSTORE PUSH1 0x20 PUSH0 KECCAK256 SWAP1 JUMPDEST DUP2 SLOAD DUP2 MSTORE PUSH1 0x20 ADD SWAP1 PUSH1 0x1 ADD SWAP1 DUP1 DUP4 GT PUSH2 0xA2C JUMPI JUMPDEST POP POP POP POP POP SWAP1 POP SWAP2 SWAP1 POP JUMP JUMPDEST PUSH0 PUSH0 SWAP1 SLOAD SWAP1 PUSH2 0x100 EXP SWAP1 DIV PUSH20 0xFFFFFFFFFFFFFFFFFFFFFFFFFFFFFFFFFFFFFFFF AND DUP2 JUMP JUMPDEST PUSH0 DUP2 SWAP1 POP SWAP2 SWAP1 POP JUMP JUMPDEST PUSH2 0xA82 DUP2 PUSH2 0xA70 JUMP JUMPDEST DUP3 MSTORE POP POP JUMP JUMPDEST PUSH0 PUSH1 0x20 DUP3 ADD SWAP1 POP PUSH2 0xA9B PUSH0 DUP4 ADD DUP5 PUSH2 0xA79 JUMP JUMPDEST SWAP3 SWAP2 POP POP JUMP JUMPDEST PUSH0 PUSH0 REVERT JUMPDEST PUSH2 0xAAE DUP2 PUSH2 0xA70 JUMP JUMPDEST DUP2 EQ PUSH2 0xAB8 JUMPI PUSH0 PUSH0 REVERT JUMPDEST POP JUMP JUMPDEST PUSH0 DUP2 CALLDATALOAD SWAP1 POP PUSH2 0xAC9 DUP2 PUSH2 0xAA5 JUMP JUMPDEST SWAP3 SWAP2 POP POP JUMP JUMPDEST PUSH0 PUSH1 0x20 DUP3 DUP5 SUB SLT ISZERO PUSH2 0xAE4 JUMPI PUSH2 0xAE3 PUSH2 0xAA1 JUMP JUMPDEST JUMPDEST PUSH0 PUSH2 0xAF1 DUP5 DUP3 DUP6 ADD PUSH2 0xABB JUMP JUMPDEST SWAP2 POP POP SWAP3 SWAP2 POP POP JUMP JUMPDEST PUSH0 PUSH20 0xFFFFFFFFFFFFFFFFFFFFFFFFFFFFFFFFFFFFFFFF DUP3 AND SWAP1 POP SWAP2 SWAP1 POP JUMP JUMPDEST PUSH0 PUSH2 0xB23 DUP3 PUSH2 0xAFA JUMP JUMPDEST SWAP1 POP SWAP2 SWAP1 POP JUMP JUMPDEST PUSH2 0xB33 DUP2 PUSH2 0xB19 JUMP JUMPDEST DUP2 EQ PUSH2 0xB3D JUMPI PUSH0 PUSH0 REVERT JUMPDEST POP JUMP JUMPDEST PUSH0 DUP2 CALLDATALOAD SWAP1 POP PUSH2 0xB4E DUP2 PUSH2 0xB2A JUMP JUMPDEST SWAP3 SWAP2 POP POP JUMP JUMPDEST PUSH0 PUSH0 PUSH0 PUSH0 PUSH1 0x80 DUP6 DUP8 SUB SLT ISZERO PUSH2 0xB6C JUMPI PUSH2 0xB6B PUSH2 0xAA1 JUMP JUMPDEST JUMPDEST PUSH0 PUSH2 0xB79 DUP8 DUP3 DUP9 ADD PUSH2 0xB40 JUMP JUMPDEST SWAP5 POP POP PUSH1 0x20 PUSH2 0xB8A DUP8 DUP3 DUP9 ADD PUSH2 0xABB JUMP JUMPDEST SWAP4 POP POP PUSH1 0x40 PUSH2 0xB9B DUP8 DUP3 DUP9 ADD PUSH2 0xABB JUMP JUMPDEST SWAP3 POP POP PUSH1 0x60 PUSH2 0xBAC DUP8 DUP3 DUP9 ADD PUSH2 0xABB JUMP JUMPDEST SWAP2 POP POP SWAP3 SWAP6 SWAP2 SWAP5 POP SWAP3 POP JUMP JUMPDEST PUSH0 PUSH2 0xBC2 DUP3 PUSH2 0xAFA JUMP JUMPDEST SWAP1 POP SWAP2 SWAP1 POP JUMP JUMPDEST PUSH2 0xBD2 DUP2 PUSH2 0xBB8 JUMP JUMPDEST DUP3 MSTORE POP POP JUMP JUMPDEST PUSH0 DUP2 ISZERO ISZERO SWAP1 POP SWAP2 SWAP1 POP JUMP JUMPDEST PUSH2 0xBEC DUP2 PUSH2 0xBD8 JUMP JUMPDEST DUP3 MSTORE POP POP JUMP JUMPDEST PUSH0 PUSH1 0xC0 DUP3 ADD SWAP1 POP PUSH2 0xC05 PUSH0 DUP4 ADD DUP10 PUSH2 0xA79 JUMP JUMPDEST PUSH2 0xC12 PUSH1 0x20 DUP4 ADD DUP9 PUSH2 0xBC9 JUMP JUMPDEST PUSH2 0xC1F PUSH1 0x40 DUP4 ADD DUP8 PUSH2 0xA79 JUMP JUMPDEST PUSH2 0xC2C PUSH1 0x60 DUP4 ADD DUP7 PUSH2 0xA79 JUMP JUMPDEST PUSH2 0xC39 PUSH1 0x80 DUP4 ADD DUP6 PUSH2 0xA79 JUMP JUMPDEST PUSH2 0xC46 PUSH1 0xA0 DUP4 ADD DUP5 PUSH2 0xBE3 JUMP JUMPDEST SWAP8 SWAP7 POP POP POP POP POP POP POP JUMP JUMPDEST PUSH2 0xC5A DUP2 PUSH2 0xBB8 JUMP JUMPDEST DUP2 EQ PUSH2 0xC64 JUMPI PUSH0 PUSH0 REVERT JUMPDEST POP JUMP JUMPDEST PUSH0 DUP2 CALLDATALOAD SWAP1 POP PUSH2 0xC75 DUP2 PUSH2 0xC51 JUMP JUMPDEST SWAP3 SWAP2 POP POP JUMP JUMPDEST PUSH0 PUSH0 PUSH1 0x40 DUP4 DUP6 SUB SLT ISZERO PUSH2 0xC91 JUMPI PUSH2 0xC90 PUSH2 0xAA1 JUMP JUMPDEST JUMPDEST PUSH0 PUSH2 0xC9E DUP6 DUP3 DUP7 ADD PUSH2 0xC67 JUMP JUMPDEST SWAP3 POP POP PUSH1 0x20 PUSH2 0xCAF DUP6 DUP3 DUP7 ADD PUSH2 0xABB JUMP JUMPDEST SWAP2 POP POP SWAP3 POP SWAP3 SWAP1 POP JUMP JUMPDEST PUSH0 PUSH1 0x20 DUP3 DUP5 SUB SLT ISZERO PUSH2 0xCCE JUMPI PUSH2 0xCCD PUSH2 0xAA1 JUMP JUMPDEST JUMPDEST PUSH0 PUSH2 0xCDB DUP5 DUP3 DUP6 ADD PUSH2 0xC67 JUMP JUMPDEST SWAP2 POP POP SWAP3 SWAP2 POP POP JUMP JUMPDEST PUSH0 DUP2 MLOAD SWAP1 POP SWAP2 SWAP1 POP JUMP JUMPDEST PUSH0 DUP3 DUP3 MSTORE PUSH1 0x20 DUP3 ADD SWAP1 POP SWAP3 SWAP2 POP POP JUMP JUMPDEST PUSH0 DUP2 SWAP1 POP PUSH1 0x20 DUP3 ADD SWAP1 POP SWAP2 SWAP1 POP JUMP JUMPDEST PUSH2 0xD16 DUP2 PUSH2 0xA70 JUMP JUMPDEST DUP3 MSTORE POP POP JUMP JUMPDEST PUSH0 PUSH2 0xD27 DUP4 DUP4 PUSH2 0xD0D JUMP JUMPDEST PUSH1 0x20 DUP4 ADD SWAP1 POP SWAP3 SWAP2 POP POP JUMP JUMPDEST PUSH0 PUSH1 0x20 DUP3 ADD SWAP1 POP SWAP2 SWAP1 POP JUMP JUMPDEST PUSH0 PUSH2 0xD49 DUP3 PUSH2 0xCE4 JUMP JUMPDEST PUSH2 0xD53 DUP2 DUP6 PUSH2 0xCEE JUMP JUMPDEST SWAP4 POP PUSH2 0xD5E DUP4 PUSH2 0xCFE JUMP JUMPDEST DUP1 PUSH0 JUMPDEST DUP4 DUP2 LT ISZERO PUSH2 0xD8E JUMPI DUP2 MLOAD PUSH2 0xD75 DUP9 DUP3 PUSH2 0xD1C JUMP JUMPDEST SWAP8 POP PUSH2 0xD80 DUP4 PUSH2 0xD33 JUMP JUMPDEST SWAP3 POP POP PUSH1 0x1 DUP2 ADD SWAP1 POP PUSH2 0xD61 JUMP JUMPDEST POP DUP6 SWAP4 POP POP POP POP SWAP3 SWAP2 POP POP JUMP JUMPDEST PUSH0 PUSH1 0x20 DUP3 ADD SWAP1 POP DUP2 DUP2 SUB PUSH0 DUP4 ADD MSTORE PUSH2 0xDB3 DUP2 DUP5 PUSH2 0xD3F JUMP JUMPDEST SWAP1 POP SWAP3 SWAP2 POP POP JUMP JUMPDEST PUSH0 PUSH1 0x20 DUP3 ADD SWAP1 POP PUSH2 0xDCE PUSH0 DUP4 ADD DUP5 PUSH2 0xBC9 JUMP JUMPDEST SWAP3 SWAP2 POP POP JUMP JUMPDEST PUSH0 DUP3 DUP3 MSTORE PUSH1 0x20 DUP3 ADD SWAP1 POP SWAP3 SWAP2 POP POP JUMP JUMPDEST PUSH32 0x4F6E6C792061646D696E00000000000000000000000000000000000000000000 PUSH0 DUP3 ADD MSTORE POP JUMP JUMPDEST PUSH0 PUSH2 0xE18 PUSH1 0xA DUP4 PUSH2 0xDD4 JUMP JUMPDEST SWAP2 POP PUSH2 0xE23 DUP3 PUSH2 0xDE4 JUMP JUMPDEST PUSH1 0x20 DUP3 ADD SWAP1 POP SWAP2 SWAP1 POP JUMP JUMPDEST PUSH0 PUSH1 0x20 DUP3 ADD SWAP1 POP DUP2 DUP2 SUB PUSH0 DUP4 ADD MSTORE PUSH2 0xE45 DUP2 PUSH2 0xE0C JUMP JUMPDEST SWAP1 POP SWAP2 SWAP1 POP JUMP JUMPDEST PUSH32 0x496E73756666696369656E742062616C616E6365000000000000000000000000 PUSH0 DUP3 ADD MSTORE POP JUMP JUMPDEST PUSH0 PUSH2 0xE80 PUSH1 0x14 DUP4 PUSH2 0xDD4 JUMP JUMPDEST SWAP2 POP PUSH2 0xE8B DUP3 PUSH2 0xE4C JUMP JUMPDEST PUSH1 0x20 DUP3 ADD SWAP1 POP SWAP2 SWAP1 POP JUMP JUMPDEST PUSH0 PUSH1 0x20 DUP3 ADD SWAP1 POP DUP2 DUP2 SUB PUSH0 DUP4 ADD MSTORE PUSH2 0xEAD DUP2 PUSH2 0xE74 JUMP JUMPDEST SWAP1 POP SWAP2 SWAP1 POP JUMP JUMPDEST PUSH0 DUP2 SWAP1 POP SWAP3 SWAP2 POP POP JUMP JUMPDEST POP JUMP JUMPDEST PUSH0 PUSH2 0xECC PUSH0 DUP4 PUSH2 0xEB4 JUMP JUMPDEST SWAP2 POP PUSH2 0xED7 DUP3 PUSH2 0xEBE JUMP JUMPDEST PUSH0 DUP3 ADD SWAP1 POP SWAP2 SWAP1 POP JUMP JUMPDEST PUSH0 PUSH2 0xEEB DUP3 PUSH2 0xEC1 JUMP JUMPDEST SWAP2 POP DUP2 SWAP1 POP SWAP2 SWAP1 POP JUMP JUMPDEST PUSH32 0x5769746864726177206661696C65640000000000000000000000000000000000 PUSH0 DUP3 ADD MSTORE POP JUMP JUMPDEST PUSH0 PUSH2 0xF29 PUSH1 0xF DUP4 PUSH2 0xDD4 JUMP JUMPDEST SWAP2 POP PUSH2 0xF34 DUP3 PUSH2 0xEF5 JUMP JUMPDEST PUSH1 0x20 DUP3 ADD SWAP1 POP SWAP2 SWAP1 POP JUMP JUMPDEST PUSH0 PUSH1 0x20 DUP3 ADD SWAP1 POP DUP2 DUP2 SUB PUSH0 DUP4 ADD MSTORE PUSH2 0xF56 DUP2 PUSH2 0xF1D JUMP JUMPDEST SWAP1 POP SWAP2 SWAP1 POP JUMP JUMPDEST PUSH32 0x496E73756666696369656E7420706F6F6C2062616C616E636500000000000000 PUSH0 DUP3 ADD MSTORE POP JUMP JUMPDEST PUSH0 PUSH2 0xF91 PUSH1 0x19 DUP4 PUSH2 0xDD4 JUMP JUMPDEST SWAP2 POP PUSH2 0xF9C DUP3 PUSH2 0xF5D JUMP JUMPDEST PUSH1 0x20 DUP3 ADD SWAP1 POP SWAP2 SWAP1 POP JUMP JUMPDEST PUSH0 PUSH1 0x20 DUP3 ADD SWAP1 POP DUP2 DUP2 SUB PUSH0 DUP4 ADD MSTORE PUSH2 0xFBE DUP2 PUSH2 0xF85 JUMP JUMPDEST SWAP1 POP SWAP2 SWAP1 POP JUMP JUMPDEST PUSH32 0x4E487B7100000000000000000000000000000000000000000000000000000000 PUSH0 MSTORE PUSH1 0x11 PUSH1 0x4 MSTORE PUSH1 0x24 PUSH0 REVERT JUMPDEST PUSH0 PUSH2 0xFFC DUP3 PUSH2 0xA70 JUMP JUMPDEST SWAP2 POP PUSH2 0x1007 DUP4 PUSH2 0xA70 JUMP JUMPDEST SWAP3 POP DUP3 DUP3 ADD SWAP1 POP DUP1 DUP3 GT ISZERO PUSH2 0x101F JUMPI PUSH2 0x101E PUSH2 0xFC5 JUMP JUMPDEST JUMPDEST SWAP3 SWAP2 POP POP JUMP JUMPDEST PUSH0 PUSH2 0x102F DUP3 PUSH2 0xA70 JUMP JUMPDEST SWAP2 POP PUSH2 0x103A DUP4 PUSH2 0xA70 JUMP JUMPDEST SWAP3 POP DUP3 DUP3 MUL PUSH2 0x1048 DUP2 PUSH2 0xA70 JUMP JUMPDEST SWAP2 POP DUP3 DUP3 DIV DUP5 EQ DUP4 ISZERO OR PUSH2 0x105F JUMPI PUSH2 0x105E PUSH2 0xFC5 JUMP JUMPDEST JUMPDEST POP SWAP3 SWAP2 POP POP JUMP JUMPDEST PUSH32 0x5472616E73666572206661696C65640000000000000000000000000000000000 PUSH0 DUP3 ADD MSTORE POP JUMP JUMPDEST PUSH0 PUSH2 0x109A PUSH1 0xF DUP4 PUSH2 0xDD4 JUMP JUMPDEST SWAP2 POP PUSH2 0x10A5 DUP3 PUSH2 0x1066 JUMP JUMPDEST PUSH1 0x20 DUP3 ADD SWAP1 POP SWAP2 SWAP1 POP JUMP JUMPDEST PUSH0 PUSH1 0x20 DUP3 ADD SWAP1 POP DUP2 DUP2 SUB PUSH0 DUP4 ADD MSTORE PUSH2 0x10C7 DUP2 PUSH2 0x108E JUMP JUMPDEST SWAP1 POP SWAP2 SWAP1 POP JUMP JUMPDEST PUSH0 PUSH1 0x60 DUP3 ADD SWAP1 POP PUSH2 0x10E1 PUSH0 DUP4 ADD DUP7 PUSH2 0xA79 JUMP JUMPDEST PUSH2 0x10EE PUSH1 0x20 DUP4 ADD DUP6 PUSH2 0xA79 JUMP JUMPDEST PUSH2 0x10FB PUSH1 0x40 DUP4 ADD DUP5 PUSH2 0xA79 JUMP JUMPDEST SWAP5 SWAP4 POP POP POP POP JUMP JUMPDEST PUSH32 0x4C6F616E206E6F74206578697374000000000000000000000000000000000000 PUSH0 DUP3 ADD MSTORE POP JUMP JUMPDEST PUSH0 PUSH2 0x1137 PUSH1 0xE DUP4 PUSH2 0xDD4 JUMP JUMPDEST SWAP2 POP PUSH2 0x1142 DUP3 PUSH2 0x1103 JUMP JUMPDEST PUSH1 0x20 DUP3 ADD SWAP1 POP SWAP2 SWAP1 POP JUMP JUMPDEST PUSH0 PUSH1 0x20 DUP3 ADD SWAP1 POP DUP2 DUP2 SUB PUSH0 DUP4 ADD MSTORE PUSH2 0x1164 DUP2 PUSH2 0x112B JUMP JUMPDEST SWAP1 POP SWAP2 SWAP1 POP JUMP JUMPDEST PUSH32 0x416C726561647920726570616964000000000000000000000000000000000000 PUSH0 DUP3 ADD MSTORE POP JUMP JUMPDEST PUSH0 PUSH2 0x119F PUSH1 0xE DUP4 PUSH2 0xDD4 JUMP JUMPDEST SWAP2 POP PUSH2 0x11AA DUP3 PUSH2 0x116B JUMP JUMPDEST PUSH1 0x20 DUP3 ADD SWAP1 POP SWAP2 SWAP1 POP JUMP JUMPDEST PUSH0 PUSH1 0x20 DUP3 ADD SWAP1 POP DUP2 DUP2 SUB PUSH0 DUP4 ADD MSTORE PUSH2 0x11CC DUP2 PUSH2 0x1193 JUMP JUMPDEST SWAP1 POP SWAP2 SWAP1 POP JUMP JUMPDEST PUSH32 0x496E73756666696369656E742072657061796D656E7400000000000000000000 PUSH0 DUP3 ADD MSTORE POP JUMP JUMPDEST PUSH0 PUSH2 0x1207 PUSH1 0x16 DUP4 PUSH2 0xDD4 JUMP JUMPDEST SWAP2 POP PUSH2 0x1212 DUP3 PUSH2 0x11D3 JUMP JUMPDEST PUSH1 0x20 DUP3 ADD SWAP1 POP SWAP2 SWAP1 POP JUMP JUMPDEST PUSH0 PUSH1 0x20 DUP3 ADD SWAP1 POP DUP2 DUP2 SUB PUSH0 DUP4 ADD MSTORE PUSH2 0x1234 DUP2 PUSH2 0x11FB JUMP JUMPDEST SWAP1 POP SWAP2 SWAP1 POP JUMP INVALID LOG2 PUSH5 0x6970667358 0x22 SLT KECCAK256 0x1F 0xF7 0xF SWAP8 LOG3 0xD3 CHAINID INVALID SIGNEXTEND MOD 0x4F 0xB6 0xCD 0xC0 PUSH11 0x3A85F4BE2632D644DCB9DB 0xD3 PC PUSH25 0x4C52C564736F6C634300081E00330000000000000000000000 "
				},
				"gasEstimates": {
					"creation": {
						"codeDepositCost": "944200",
						"executionCost": "30256",
						"totalCost": "974456"
					},
					"external": {
						"admin()": "2573",
						"adminWithdraw(uint256)": "infinite",
						"borrowerLoans(address,uint256)": "infinite",
						"createLoan(address,uint256,uint256,uint256)": "infinite",
						"getBorrowerLoans(address)": "infinite",
						"loanCounter()": "2426",
						"loans(uint256)": "infinite",
						"repayLoan(uint256)": "infinite"
					}
				},
				"methodIdentifiers": {
					"admin()": "f851a440",
					"adminWithdraw(uint256)": "7c5b4a37",
					"borrowerLoans(address,uint256)": "e3ed1902",
					"createLoan(address,uint256,uint256,uint256)": "9e8101c6",
					"getBorrowerLoans(address)": "eee8b7ff",
					"loanCounter()": "34d9289e",
					"loans(uint256)": "e1ec3c68",
					"repayLoan(uint256)": "ab7b1c89"
				}
			},
			"storageLayout": {
				"storage": [
					{
						"astId": 3,
						"contract": "DeFi-EduOps/contracts/Scholarship.sol:MicroLoan",
						"label": "admin",
						"offset": 0,
						"slot": "0",
						"type": "t_address"
					},
					{
						"astId": 5,
						"contract": "DeFi-EduOps/contracts/Scholarship.sol:MicroLoan",
						"label": "loanCounter",
						"offset": 0,
						"slot": "1",
						"type": "t_uint256"
					},
					{
						"astId": 23,
						"contract": "DeFi-EduOps/contracts/Scholarship.sol:MicroLoan",
						"label": "loans",
						"offset": 0,
						"slot": "2",
						"type": "t_mapping(t_uint256,t_struct(Loan)18_storage)"
					},
					{
						"astId": 28,
						"contract": "DeFi-EduOps/contracts/Scholarship.sol:MicroLoan",
						"label": "borrowerLoans",
						"offset": 0,
						"slot": "3",
						"type": "t_mapping(t_address,t_array(t_uint256)dyn_storage)"
					}
				],
				"types": {
					"t_address": {
						"encoding": "inplace",
						"label": "address",
						"numberOfBytes": "20"
					},
					"t_array(t_uint256)dyn_storage": {
						"base": "t_uint256",
						"encoding": "dynamic_array",
						"label": "uint256[]",
						"numberOfBytes": "32"
					},
					"t_bool": {
						"encoding": "inplace",
						"label": "bool",
						"numberOfBytes": "1"
					},
					"t_mapping(t_address,t_array(t_uint256)dyn_storage)": {
						"encoding": "mapping",
						"key": "t_address",
						"label": "mapping(address => uint256[])",
						"numberOfBytes": "32",
						"value": "t_array(t_uint256)dyn_storage"
					},
					"t_mapping(t_uint256,t_struct(Loan)18_storage)": {
						"encoding": "mapping",
						"key": "t_uint256",
						"label": "mapping(uint256 => struct MicroLoan.Loan)",
						"numberOfBytes": "32",
						"value": "t_struct(Loan)18_storage"
					},
					"t_struct(Loan)18_storage": {
						"encoding": "inplace",
						"label": "struct MicroLoan.Loan",
						"members": [
							{
								"astId": 7,
								"contract": "DeFi-EduOps/contracts/Scholarship.sol:MicroLoan",
								"label": "id",
								"offset": 0,
								"slot": "0",
								"type": "t_uint256"
							},
							{
								"astId": 9,
								"contract": "DeFi-EduOps/contracts/Scholarship.sol:MicroLoan",
								"label": "borrower",
								"offset": 0,
								"slot": "1",
								"type": "t_address"
							},
							{
								"astId": 11,
								"contract": "DeFi-EduOps/contracts/Scholarship.sol:MicroLoan",
								"label": "principal",
								"offset": 0,
								"slot": "2",
								"type": "t_uint256"
							},
							{
								"astId": 13,
								"contract": "DeFi-EduOps/contracts/Scholarship.sol:MicroLoan",
								"label": "interest",
								"offset": 0,
								"slot": "3",
								"type": "t_uint256"
							},
							{
								"astId": 15,
								"contract": "DeFi-EduOps/contracts/Scholarship.sol:MicroLoan",
								"label": "dueDate",
								"offset": 0,
								"slot": "4",
								"type": "t_uint256"
							},
							{
								"astId": 17,
								"contract": "DeFi-EduOps/contracts/Scholarship.sol:MicroLoan",
								"label": "repaid",
								"offset": 0,
								"slot": "5",
								"type": "t_bool"
							}
						],
						"numberOfBytes": "192"
					},
					"t_uint256": {
						"encoding": "inplace",
						"label": "uint256",
						"numberOfBytes": "32"
					}
				}
			},
			"userdoc": {
				"kind": "user",
				"methods": {},
				"version": 1
			}
		}
	}
}